{
  "_format": "hh-sol-artifact-1",
  "contractName": "WhisperChainPaymaster",
  "sourceName": "contracts/WhisperChainPaymaster.sol",
  "abi": [
    {
      "inputs": [
        {
          "internalType": "address",
          "name": "_forwarder",
          "type": "address"
        }
      ],
      "stateMutability": "nonpayable",
      "type": "constructor"
    },
    {
      "anonymous": false,
      "inputs": [
        {
          "indexed": true,
          "internalType": "address",
          "name": "from",
          "type": "address"
        },
        {
          "indexed": false,
          "internalType": "uint256",
          "name": "amount",
          "type": "uint256"
        }
      ],
      "name": "Deposited",
      "type": "event"
    },
    {
      "anonymous": false,
      "inputs": [
        {
          "indexed": false,
          "internalType": "uint256",
          "name": "oldMax",
          "type": "uint256"
        },
        {
          "indexed": false,
          "internalType": "uint256",
          "name": "newMax",
          "type": "uint256"
        }
      ],
      "name": "MaxReimbursementUpdated",
      "type": "event"
    },
    {
      "anonymous": false,
      "inputs": [
        {
          "indexed": true,
          "internalType": "address",
          "name": "previousOwner",
          "type": "address"
        },
        {
          "indexed": true,
          "internalType": "address",
          "name": "newOwner",
          "type": "address"
        }
      ],
      "name": "OwnershipTransferred",
      "type": "event"
    },
    {
      "anonymous": false,
      "inputs": [
        {
          "indexed": true,
          "internalType": "address",
          "name": "from",
          "type": "address"
        },
        {
          "indexed": true,
          "internalType": "address",
          "name": "to",
          "type": "address"
        },
        {
          "indexed": true,
          "internalType": "address",
          "name": "relayer",
          "type": "address"
        },
        {
          "indexed": false,
          "internalType": "uint256",
          "name": "reimbursement",
          "type": "uint256"
        }
      ],
      "name": "Relayed",
      "type": "event"
    },
    {
      "inputs": [],
      "name": "deposit",
      "outputs": [],
      "stateMutability": "payable",
      "type": "function"
    },
    {
      "inputs": [],
      "name": "forwarder",
      "outputs": [
        {
          "internalType": "contract MinimalForwarder",
          "name": "",
          "type": "address"
        }
      ],
      "stateMutability": "view",
      "type": "function"
    },
    {
      "inputs": [],
      "name": "maxReimbursementPerTx",
      "outputs": [
        {
          "internalType": "uint256",
          "name": "",
          "type": "uint256"
        }
      ],
      "stateMutability": "view",
      "type": "function"
    },
    {
      "inputs": [],
      "name": "owner",
      "outputs": [
        {
          "internalType": "address",
          "name": "",
          "type": "address"
        }
      ],
      "stateMutability": "view",
      "type": "function"
    },
    {
      "inputs": [
        {
          "components": [
            {
              "internalType": "address",
              "name": "from",
              "type": "address"
            },
            {
              "internalType": "address",
              "name": "to",
              "type": "address"
            },
            {
              "internalType": "uint256",
              "name": "value",
              "type": "uint256"
            },
            {
              "internalType": "uint256",
              "name": "gas",
              "type": "uint256"
            },
            {
              "internalType": "uint256",
              "name": "nonce",
              "type": "uint256"
            },
            {
              "internalType": "bytes",
              "name": "data",
              "type": "bytes"
            }
          ],
          "internalType": "struct MinimalForwarder.ForwardRequest",
          "name": "req",
          "type": "tuple"
        },
        {
          "internalType": "bytes",
          "name": "signature",
          "type": "bytes"
        },
        {
          "internalType": "address",
          "name": "relayer",
          "type": "address"
        },
        {
          "internalType": "uint256",
          "name": "reimbursement",
          "type": "uint256"
        }
      ],
      "name": "relay",
      "outputs": [],
      "stateMutability": "payable",
      "type": "function"
    },
    {
      "inputs": [],
      "name": "renounceOwnership",
      "outputs": [],
      "stateMutability": "nonpayable",
      "type": "function"
    },
    {
      "inputs": [
        {
          "internalType": "uint256",
          "name": "_max",
          "type": "uint256"
        }
      ],
      "name": "setMaxReimbursementPerTx",
      "outputs": [],
      "stateMutability": "nonpayable",
      "type": "function"
    },
    {
      "inputs": [],
      "name": "totalReimbursed",
      "outputs": [
        {
          "internalType": "uint256",
          "name": "",
          "type": "uint256"
        }
      ],
      "stateMutability": "view",
      "type": "function"
    },
    {
      "inputs": [
        {
          "internalType": "address",
          "name": "newOwner",
          "type": "address"
        }
      ],
      "name": "transferOwnership",
      "outputs": [],
      "stateMutability": "nonpayable",
      "type": "function"
    },
    {
      "inputs": [
        {
          "internalType": "uint256",
          "name": "amount",
          "type": "uint256"
        }
      ],
      "name": "withdraw",
      "outputs": [],
      "stateMutability": "nonpayable",
      "type": "function"
    },
    {
      "stateMutability": "payable",
      "type": "receive"
    }
  ],
  "bytecode": "0x60a0604052662386f26fc1000060025534801561001b57600080fd5b50604051610c38380380610c3883398101604081905261003a916100f6565b610043336100a6565b600180556001600160a01b0381166100955760405162461bcd60e51b815260206004820152601160248201527024b73b30b634b2103337b93bb0b93232b960791b604482015260640160405180910390fd5b6001600160a01b0316608052610126565b600080546001600160a01b038381166001600160a01b0319831681178455604051919092169283917f8be0079c531659141344cd1fd0a4f28419497f9722a3daafe3b4186f6b6457e09190a35050565b60006020828403121561010857600080fd5b81516001600160a01b038116811461011f57600080fd5b9392505050565b608051610af0610148600039600081816101eb01526103f40152610af06000f3fe6080604052600436106100955760003560e01c80638da5cb5b116100595780638da5cb5b1461015f578063c5df5c6714610191578063d0e30db0146101b1578063f2fde38b146101b9578063f645d4f9146101d957600080fd5b80632e1a7d4d146100d65780634c8a14d7146100f85780634d2478891461010b57806364910cc814610134578063715018a61461014a57600080fd5b366100d15760405134815233907f2da466a7b24304f47e87fa2e1e5a81b9831ce54fec19055ce277ca2f39ba42c49060200160405180910390a2005b600080fd5b3480156100e257600080fd5b506100f66100f136600461084e565b61020d565b005b6100f6610106366004610883565b6102fa565b34801561011757600080fd5b5061012160025481565b6040519081526020015b60405180910390f35b34801561014057600080fd5b5061012160035481565b34801561015657600080fd5b506100f661063a565b34801561016b57600080fd5b506000546001600160a01b03165b6040516001600160a01b03909116815260200161012b565b34801561019d57600080fd5b506100f66101ac36600461084e565b61064e565b6100f661069b565b3480156101c557600080fd5b506100f66101d4366004610941565b6106d2565b3480156101e557600080fd5b506101797f000000000000000000000000000000000000000000000000000000000000000081565b61021561074b565b478111156102615760405162461bcd60e51b8152602060048201526014602482015273496e73756666696369656e742062616c616e636560601b60448201526064015b60405180910390fd5b600080546040516001600160a01b039091169083908381818185875af1925050503d80600081146102ae576040519150601f19603f3d011682016040523d82523d6000602084013e6102b3565b606091505b50509050806102f65760405162461bcd60e51b815260206004820152600f60248201526e15da5d1a191c985dc819985a5b1959608a1b6044820152606401610258565b5050565b6103026107a5565b6001600160a01b03821661034a5760405162461bcd60e51b815260206004820152600f60248201526e24b73b30b634b2103932b630bcb2b960891b6044820152606401610258565b60025481111561039c5760405162461bcd60e51b815260206004820152601960248201527f5265696d62757273656d656e742065786365656473206d6178000000000000006044820152606401610258565b6103aa816040870135610963565b4710156103f05760405162461bcd60e51b8152602060048201526014602482015273496e73756666696369656e742062616c616e636560601b6044820152606401610258565b60007f00000000000000000000000000000000000000000000000000000000000000006001600160a01b031686604001356347153f8260e01b88888860405160240161043e939291906109b3565b60408051601f198184030181529181526020820180516001600160e01b03166001600160e01b031990941693909317909252905161047c9190610a8b565b60006040518083038185875af1925050503d80600081146104b9576040519150601f19603f3d011682016040523d82523d6000602084013e6104be565b606091505b50509050806105005760405162461bcd60e51b815260206004820152600e60248201526d119bdc9dd85c990819985a5b195960921b6044820152606401610258565b81156105b75781600360008282546105189190610963565b90915550506040516000906001600160a01b0385169084908381818185875af1925050503d8060008114610568576040519150601f19603f3d011682016040523d82523d6000602084013e61056d565b606091505b50509050806105b55760405162461bcd60e51b815260206004820152601460248201527314995a5b589d5c9cd95b595b9d0819985a5b195960621b6044820152606401610258565b505b6001600160a01b0383166105d16040880160208901610941565b6001600160a01b03166105e76020890189610941565b6001600160a01b03167f5dbe58ce26d7d095b3b906260d89f0a4373e41614a8841a533ccbe6569b4286c8560405161062191815260200190565b60405180910390a45061063360018055565b5050505050565b61064261074b565b61064c60006107fe565b565b61065661074b565b600280549082905560408051828152602081018490527f6ff3ba4223f4d694ced77174a208557c49fd86ead36368eb2871ceb7eb4d1eeb910160405180910390a15050565b60405134815233907f2da466a7b24304f47e87fa2e1e5a81b9831ce54fec19055ce277ca2f39ba42c49060200160405180910390a2565b6106da61074b565b6001600160a01b03811661073f5760405162461bcd60e51b815260206004820152602660248201527f4f776e61626c653a206e6577206f776e657220697320746865207a65726f206160448201526564647265737360d01b6064820152608401610258565b610748816107fe565b50565b6000546001600160a01b0316331461064c5760405162461bcd60e51b815260206004820181905260248201527f4f776e61626c653a2063616c6c6572206973206e6f7420746865206f776e65726044820152606401610258565b6002600154036107f75760405162461bcd60e51b815260206004820152601f60248201527f5265656e7472616e637947756172643a207265656e7472616e742063616c6c006044820152606401610258565b6002600155565b600080546001600160a01b038381166001600160a01b0319831681178455604051919092169283917f8be0079c531659141344cd1fd0a4f28419497f9722a3daafe3b4186f6b6457e09190a35050565b60006020828403121561086057600080fd5b5035919050565b80356001600160a01b038116811461087e57600080fd5b919050565b60008060008060006080868803121561089b57600080fd5b853567ffffffffffffffff8111156108b257600080fd5b860160c081890312156108c457600080fd5b9450602086013567ffffffffffffffff8111156108e057600080fd5b8601601f810188136108f157600080fd5b803567ffffffffffffffff81111561090857600080fd5b88602082840101111561091a57600080fd5b6020919091019450925061093060408701610867565b949793965091946060013592915050565b60006020828403121561095357600080fd5b61095c82610867565b9392505050565b8082018082111561098457634e487b7160e01b600052601160045260246000fd5b92915050565b81835281816020850137506000828201602090810191909152601f909101601f19169091010190565b604081526001600160a01b036109c885610867565b1660408201526001600160a01b036109e260208601610867565b1660608281019190915260408501356080808401919091529085013560a0808401919091529085013560c083015260009085013536869003601e19018112610a2957600080fd5b850160208101903567ffffffffffffffff811115610a4657600080fd5b803603821315610a5557600080fd5b60c060e0850152610a6b6101008501828461098a565b9150508281036020840152610a8181858761098a565b9695505050505050565b6000825160005b81811015610aac5760208186018101518583015201610a92565b50600092019182525091905056fea2646970667358221220930f03c387716f54811a495115aedb3f9df112732c378e9fee58d6101ff4b56764736f6c634300081c0033",
  "linkReferences": {},
  "deployedLinkReferences": {}
}