{
  "_format": "hh-sol-artifact-1",
  "contractName": "WhisperChain",
  "sourceName": "contracts/whisperChain.sol",
  "abi": [
    {
      "inputs": [
        {
          "internalType": "address",
          "name": "trustedForwarder",
          "type": "address"
        }
      ],
      "stateMutability": "nonpayable",
      "type": "constructor"
    },
    {
      "anonymous": false,
      "inputs": [
        {
          "indexed": false,
          "internalType": "bytes32[]",
          "name": "messageIds",
          "type": "bytes32[]"
        },
        {
          "indexed": true,
          "internalType": "address",
          "name": "sender",
          "type": "address"
        }
      ],
      "name": "BatchMessageSent",
      "type": "event"
    },
    {
      "anonymous": false,
      "inputs": [
        {
          "indexed": true,
          "internalType": "bytes32",
          "name": "conversationId",
          "type": "bytes32"
        },
        {
          "indexed": false,
          "internalType": "address[]",
          "name": "participants",
          "type": "address[]"
        }
      ],
      "name": "ConversationCreated",
      "type": "event"
    },
    {
      "anonymous": false,
      "inputs": [
        {
          "indexed": true,
          "internalType": "bytes32",
          "name": "messageId",
          "type": "bytes32"
        },
        {
          "indexed": false,
          "internalType": "string",
          "name": "ipfsHash",
          "type": "string"
        },
        {
          "indexed": false,
          "internalType": "enum WhisperChain.MediaType",
          "name": "mediaType",
          "type": "uint8"
        }
      ],
      "name": "MediaUploaded",
      "type": "event"
    },
    {
      "anonymous": false,
      "inputs": [
        {
          "indexed": true,
          "internalType": "bytes32",
          "name": "messageId",
          "type": "bytes32"
        },
        {
          "indexed": true,
          "internalType": "address",
          "name": "deleter",
          "type": "address"
        }
      ],
      "name": "MessageDeleted",
      "type": "event"
    },
    {
      "anonymous": false,
      "inputs": [
        {
          "indexed": true,
          "internalType": "bytes32",
          "name": "messageId",
          "type": "bytes32"
        },
        {
          "indexed": true,
          "internalType": "address",
          "name": "sender",
          "type": "address"
        },
        {
          "indexed": true,
          "internalType": "address",
          "name": "recipient",
          "type": "address"
        },
        {
          "indexed": false,
          "internalType": "uint256",
          "name": "timestamp",
          "type": "uint256"
        },
        {
          "indexed": false,
          "internalType": "uint256",
          "name": "paymentAmount",
          "type": "uint256"
        }
      ],
      "name": "MessageSent",
      "type": "event"
    },
    {
      "anonymous": false,
      "inputs": [
        {
          "indexed": true,
          "internalType": "address",
          "name": "previousOwner",
          "type": "address"
        },
        {
          "indexed": true,
          "internalType": "address",
          "name": "newOwner",
          "type": "address"
        }
      ],
      "name": "OwnershipTransferred",
      "type": "event"
    },
    {
      "anonymous": false,
      "inputs": [
        {
          "indexed": false,
          "internalType": "address",
          "name": "account",
          "type": "address"
        }
      ],
      "name": "Paused",
      "type": "event"
    },
    {
      "anonymous": false,
      "inputs": [
        {
          "indexed": true,
          "internalType": "bytes32",
          "name": "messageId",
          "type": "bytes32"
        },
        {
          "indexed": false,
          "internalType": "uint256",
          "name": "amount",
          "type": "uint256"
        }
      ],
      "name": "PaymentSettled",
      "type": "event"
    },
    {
      "anonymous": false,
      "inputs": [
        {
          "indexed": true,
          "internalType": "address",
          "name": "user",
          "type": "address"
        },
        {
          "indexed": false,
          "internalType": "uint256",
          "name": "used",
          "type": "uint256"
        },
        {
          "indexed": false,
          "internalType": "uint256",
          "name": "limit",
          "type": "uint256"
        }
      ],
      "name": "StorageLimitExceeded",
      "type": "event"
    },
    {
      "anonymous": false,
      "inputs": [
        {
          "indexed": false,
          "internalType": "address",
          "name": "account",
          "type": "address"
        }
      ],
      "name": "Unpaused",
      "type": "event"
    },
    {
      "anonymous": false,
      "inputs": [
        {
          "indexed": true,
          "internalType": "address",
          "name": "user",
          "type": "address"
        },
        {
          "indexed": false,
          "internalType": "bytes32",
          "name": "publicKey",
          "type": "bytes32"
        }
      ],
      "name": "UserRegistered",
      "type": "event"
    },
    {
      "inputs": [],
      "name": "MAX_FILE_SIZE",
      "outputs": [
        {
          "internalType": "uint256",
          "name": "",
          "type": "uint256"
        }
      ],
      "stateMutability": "view",
      "type": "function"
    },
    {
      "inputs": [],
      "name": "MAX_MESSAGES_PER_USER",
      "outputs": [
        {
          "internalType": "uint256",
          "name": "",
          "type": "uint256"
        }
      ],
      "stateMutability": "view",
      "type": "function"
    },
    {
      "inputs": [],
      "name": "MAX_STORAGE_PER_USER",
      "outputs": [
        {
          "internalType": "uint256",
          "name": "",
          "type": "uint256"
        }
      ],
      "stateMutability": "view",
      "type": "function"
    },
    {
      "inputs": [],
      "name": "clearStorage",
      "outputs": [],
      "stateMutability": "nonpayable",
      "type": "function"
    },
    {
      "inputs": [
        {
          "internalType": "bytes32",
          "name": "",
          "type": "bytes32"
        }
      ],
      "name": "conversations",
      "outputs": [
        {
          "internalType": "bytes32",
          "name": "conversationKey",
          "type": "bytes32"
        },
        {
          "internalType": "uint256",
          "name": "createdAt",
          "type": "uint256"
        },
        {
          "internalType": "bool",
          "name": "isActive",
          "type": "bool"
        },
        {
          "internalType": "uint256",
          "name": "messageCount",
          "type": "uint256"
        }
      ],
      "stateMutability": "view",
      "type": "function"
    },
    {
      "inputs": [
        {
          "internalType": "address[]",
          "name": "participants",
          "type": "address[]"
        },
        {
          "internalType": "bytes32",
          "name": "conversationKeyHash",
          "type": "bytes32"
        }
      ],
      "name": "createConversation",
      "outputs": [],
      "stateMutability": "nonpayable",
      "type": "function"
    },
    {
      "inputs": [
        {
          "internalType": "bytes32",
          "name": "messageId",
          "type": "bytes32"
        }
      ],
      "name": "deleteMessage",
      "outputs": [],
      "stateMutability": "nonpayable",
      "type": "function"
    },
    {
      "inputs": [],
      "name": "emergencyWithdraw",
      "outputs": [],
      "stateMutability": "nonpayable",
      "type": "function"
    },
    {
      "inputs": [],
      "name": "getContractStats",
      "outputs": [
        {
          "internalType": "uint256",
          "name": "",
          "type": "uint256"
        },
        {
          "internalType": "uint256",
          "name": "",
          "type": "uint256"
        },
        {
          "internalType": "uint256",
          "name": "",
          "type": "uint256"
        }
      ],
      "stateMutability": "view",
      "type": "function"
    },
    {
      "inputs": [
        {
          "internalType": "bytes32",
          "name": "conversationId",
          "type": "bytes32"
        }
      ],
      "name": "getConversation",
      "outputs": [
        {
          "components": [
            {
              "internalType": "address[]",
              "name": "participants",
              "type": "address[]"
            },
            {
              "internalType": "bytes32",
              "name": "conversationKey",
              "type": "bytes32"
            },
            {
              "internalType": "uint256",
              "name": "createdAt",
              "type": "uint256"
            },
            {
              "internalType": "bool",
              "name": "isActive",
              "type": "bool"
            },
            {
              "internalType": "uint256",
              "name": "messageCount",
              "type": "uint256"
            }
          ],
          "internalType": "struct WhisperChain.Conversation",
          "name": "",
          "type": "tuple"
        }
      ],
      "stateMutability": "view",
      "type": "function"
    },
    {
      "inputs": [
        {
          "internalType": "bytes32",
          "name": "messageId",
          "type": "bytes32"
        }
      ],
      "name": "getFileSize",
      "outputs": [
        {
          "internalType": "uint256",
          "name": "",
          "type": "uint256"
        }
      ],
      "stateMutability": "view",
      "type": "function"
    },
    {
      "inputs": [
        {
          "internalType": "bytes32",
          "name": "messageId",
          "type": "bytes32"
        }
      ],
      "name": "getIPFSHash",
      "outputs": [
        {
          "internalType": "string",
          "name": "",
          "type": "string"
        }
      ],
      "stateMutability": "view",
      "type": "function"
    },
    {
      "inputs": [
        {
          "internalType": "bytes32",
          "name": "messageId",
          "type": "bytes32"
        }
      ],
      "name": "getMediaType",
      "outputs": [
        {
          "internalType": "enum WhisperChain.MediaType",
          "name": "",
          "type": "uint8"
        }
      ],
      "stateMutability": "view",
      "type": "function"
    },
    {
      "inputs": [
        {
          "internalType": "bytes32",
          "name": "messageId",
          "type": "bytes32"
        }
      ],
      "name": "getMessage",
      "outputs": [
        {
          "components": [
            {
              "internalType": "address",
              "name": "sender",
              "type": "address"
            },
            {
              "internalType": "address",
              "name": "recipient",
              "type": "address"
            },
            {
              "internalType": "bytes32",
              "name": "messageHash",
              "type": "bytes32"
            },
            {
              "internalType": "uint256",
              "name": "timestamp",
              "type": "uint256"
            },
            {
              "internalType": "bool",
              "name": "delivered",
              "type": "bool"
            },
            {
              "internalType": "bool",
              "name": "read",
              "type": "bool"
            },
            {
              "internalType": "uint256",
              "name": "paymentAmount",
              "type": "uint256"
            },
            {
              "internalType": "address",
              "name": "paymentToken",
              "type": "address"
            },
            {
              "internalType": "string",
              "name": "ipfsHash",
              "type": "string"
            },
            {
              "internalType": "enum WhisperChain.MediaType",
              "name": "mediaType",
              "type": "uint8"
            },
            {
              "internalType": "uint256",
              "name": "fileSize",
              "type": "uint256"
            },
            {
              "internalType": "string",
              "name": "textContent",
              "type": "string"
            }
          ],
          "internalType": "struct WhisperChain.Message",
          "name": "",
          "type": "tuple"
        }
      ],
      "stateMutability": "view",
      "type": "function"
    },
    {
      "inputs": [
        {
          "internalType": "address",
          "name": "user",
          "type": "address"
        }
      ],
      "name": "getRemainingStorage",
      "outputs": [
        {
          "internalType": "uint256",
          "name": "",
          "type": "uint256"
        }
      ],
      "stateMutability": "view",
      "type": "function"
    },
    {
      "inputs": [
        {
          "internalType": "bytes32",
          "name": "messageId",
          "type": "bytes32"
        }
      ],
      "name": "getTextContent",
      "outputs": [
        {
          "internalType": "string",
          "name": "",
          "type": "string"
        }
      ],
      "stateMutability": "view",
      "type": "function"
    },
    {
      "inputs": [
        {
          "internalType": "address",
          "name": "user",
          "type": "address"
        }
      ],
      "name": "getUserMessageCount",
      "outputs": [
        {
          "internalType": "uint256",
          "name": "",
          "type": "uint256"
        }
      ],
      "stateMutability": "view",
      "type": "function"
    },
    {
      "inputs": [
        {
          "internalType": "address",
          "name": "user",
          "type": "address"
        }
      ],
      "name": "getUserMessages",
      "outputs": [
        {
          "internalType": "bytes32[]",
          "name": "",
          "type": "bytes32[]"
        }
      ],
      "stateMutability": "view",
      "type": "function"
    },
    {
      "inputs": [
        {
          "internalType": "address",
          "name": "user",
          "type": "address"
        }
      ],
      "name": "getUserPublicKey",
      "outputs": [
        {
          "internalType": "bytes32",
          "name": "",
          "type": "bytes32"
        }
      ],
      "stateMutability": "view",
      "type": "function"
    },
    {
      "inputs": [
        {
          "internalType": "address",
          "name": "user",
          "type": "address"
        }
      ],
      "name": "getUserStorageUsed",
      "outputs": [
        {
          "internalType": "uint256",
          "name": "",
          "type": "uint256"
        }
      ],
      "stateMutability": "view",
      "type": "function"
    },
    {
      "inputs": [
        {
          "internalType": "string",
          "name": "ipfsHash",
          "type": "string"
        }
      ],
      "name": "isIPFSHashUsed",
      "outputs": [
        {
          "internalType": "bool",
          "name": "",
          "type": "bool"
        }
      ],
      "stateMutability": "view",
      "type": "function"
    },
    {
      "inputs": [
        {
          "internalType": "bytes32",
          "name": "messageId",
          "type": "bytes32"
        }
      ],
      "name": "isMessageDeleted",
      "outputs": [
        {
          "internalType": "bool",
          "name": "",
          "type": "bool"
        }
      ],
      "stateMutability": "view",
      "type": "function"
    },
    {
      "inputs": [
        {
          "internalType": "address",
          "name": "forwarder",
          "type": "address"
        }
      ],
      "name": "isTrustedForwarder",
      "outputs": [
        {
          "internalType": "bool",
          "name": "",
          "type": "bool"
        }
      ],
      "stateMutability": "view",
      "type": "function"
    },
    {
      "inputs": [
        {
          "internalType": "address",
          "name": "user",
          "type": "address"
        }
      ],
      "name": "isUserRegistered",
      "outputs": [
        {
          "internalType": "bool",
          "name": "",
          "type": "bool"
        }
      ],
      "stateMutability": "view",
      "type": "function"
    },
    {
      "inputs": [
        {
          "internalType": "bytes32",
          "name": "",
          "type": "bytes32"
        }
      ],
      "name": "messageDeleted",
      "outputs": [
        {
          "internalType": "bool",
          "name": "",
          "type": "bool"
        }
      ],
      "stateMutability": "view",
      "type": "function"
    },
    {
      "inputs": [
        {
          "internalType": "bytes32",
          "name": "",
          "type": "bytes32"
        }
      ],
      "name": "messages",
      "outputs": [
        {
          "internalType": "address",
          "name": "sender",
          "type": "address"
        },
        {
          "internalType": "address",
          "name": "recipient",
          "type": "address"
        },
        {
          "internalType": "bytes32",
          "name": "messageHash",
          "type": "bytes32"
        },
        {
          "internalType": "uint256",
          "name": "timestamp",
          "type": "uint256"
        },
        {
          "internalType": "bool",
          "name": "delivered",
          "type": "bool"
        },
        {
          "internalType": "bool",
          "name": "read",
          "type": "bool"
        },
        {
          "internalType": "uint256",
          "name": "paymentAmount",
          "type": "uint256"
        },
        {
          "internalType": "address",
          "name": "paymentToken",
          "type": "address"
        },
        {
          "internalType": "string",
          "name": "ipfsHash",
          "type": "string"
        },
        {
          "internalType": "enum WhisperChain.MediaType",
          "name": "mediaType",
          "type": "uint8"
        },
        {
          "internalType": "uint256",
          "name": "fileSize",
          "type": "uint256"
        },
        {
          "internalType": "string",
          "name": "textContent",
          "type": "string"
        }
      ],
      "stateMutability": "view",
      "type": "function"
    },
    {
      "inputs": [],
      "name": "owner",
      "outputs": [
        {
          "internalType": "address",
          "name": "",
          "type": "address"
        }
      ],
      "stateMutability": "view",
      "type": "function"
    },
    {
      "inputs": [],
      "name": "pause",
      "outputs": [],
      "stateMutability": "nonpayable",
      "type": "function"
    },
    {
      "inputs": [],
      "name": "paused",
      "outputs": [
        {
          "internalType": "bool",
          "name": "",
          "type": "bool"
        }
      ],
      "stateMutability": "view",
      "type": "function"
    },
    {
      "inputs": [
        {
          "internalType": "bytes32",
          "name": "",
          "type": "bytes32"
        }
      ],
      "name": "paymentSettled",
      "outputs": [
        {
          "internalType": "bool",
          "name": "",
          "type": "bool"
        }
      ],
      "stateMutability": "view",
      "type": "function"
    },
    {
      "inputs": [
        {
          "internalType": "bytes32",
          "name": "publicKey",
          "type": "bytes32"
        },
        {
          "internalType": "string",
          "name": "username",
          "type": "string"
        }
      ],
      "name": "registerUser",
      "outputs": [],
      "stateMutability": "nonpayable",
      "type": "function"
    },
    {
      "inputs": [],
      "name": "renounceOwnership",
      "outputs": [],
      "stateMutability": "nonpayable",
      "type": "function"
    },
    {
      "inputs": [
        {
          "internalType": "address[]",
          "name": "recipients",
          "type": "address[]"
        },
        {
          "internalType": "bytes32[]",
          "name": "messageHashes",
          "type": "bytes32[]"
        },
        {
          "internalType": "address[]",
          "name": "paymentTokens",
          "type": "address[]"
        },
        {
          "internalType": "uint256[]",
          "name": "paymentAmounts",
          "type": "uint256[]"
        },
        {
          "internalType": "string[]",
          "name": "ipfsHashes",
          "type": "string[]"
        },
        {
          "internalType": "enum WhisperChain.MediaType[]",
          "name": "mediaTypes",
          "type": "uint8[]"
        },
        {
          "internalType": "uint256[]",
          "name": "fileSizes",
          "type": "uint256[]"
        },
        {
          "internalType": "string[]",
          "name": "textContents",
          "type": "string[]"
        }
      ],
      "name": "sendBatchMessages",
      "outputs": [],
      "stateMutability": "payable",
      "type": "function"
    },
    {
      "inputs": [
        {
          "internalType": "address",
          "name": "recipient",
          "type": "address"
        },
        {
          "internalType": "bytes32",
          "name": "messageHash",
          "type": "bytes32"
        },
        {
          "internalType": "address",
          "name": "paymentToken",
          "type": "address"
        },
        {
          "internalType": "uint256",
          "name": "paymentAmount",
          "type": "uint256"
        },
        {
          "internalType": "string",
          "name": "ipfsHash",
          "type": "string"
        },
        {
          "internalType": "enum WhisperChain.MediaType",
          "name": "mediaType",
          "type": "uint8"
        },
        {
          "internalType": "uint256",
          "name": "fileSize",
          "type": "uint256"
        },
        {
          "internalType": "string",
          "name": "textContent",
          "type": "string"
        }
      ],
      "name": "sendMessage",
      "outputs": [],
      "stateMutability": "payable",
      "type": "function"
    },
    {
      "inputs": [
        {
          "internalType": "address",
          "name": "newOwner",
          "type": "address"
        }
      ],
      "name": "transferOwnership",
      "outputs": [],
      "stateMutability": "nonpayable",
      "type": "function"
    },
    {
      "inputs": [],
      "name": "unpause",
      "outputs": [],
      "stateMutability": "nonpayable",
      "type": "function"
    },
    {
      "inputs": [],
      "name": "updateLastSeen",
      "outputs": [],
      "stateMutability": "nonpayable",
      "type": "function"
    },
    {
      "inputs": [
        {
          "internalType": "bytes32",
          "name": "newPublicKey",
          "type": "bytes32"
        }
      ],
      "name": "updatePublicKey",
      "outputs": [],
      "stateMutability": "nonpayable",
      "type": "function"
    },
    {
      "inputs": [
        {
          "internalType": "string",
          "name": "",
          "type": "string"
        }
      ],
      "name": "usedIPFSHashes",
      "outputs": [
        {
          "internalType": "bool",
          "name": "",
          "type": "bool"
        }
      ],
      "stateMutability": "view",
      "type": "function"
    },
    {
      "inputs": [
        {
          "internalType": "address",
          "name": "",
          "type": "address"
        }
      ],
      "name": "userBalances",
      "outputs": [
        {
          "internalType": "uint256",
          "name": "",
          "type": "uint256"
        }
      ],
      "stateMutability": "view",
      "type": "function"
    },
    {
      "inputs": [
        {
          "internalType": "address",
          "name": "",
          "type": "address"
        },
        {
          "internalType": "uint256",
          "name": "",
          "type": "uint256"
        }
      ],
      "name": "userConversations",
      "outputs": [
        {
          "internalType": "bytes32",
          "name": "",
          "type": "bytes32"
        }
      ],
      "stateMutability": "view",
      "type": "function"
    },
    {
      "inputs": [
        {
          "internalType": "address",
          "name": "",
          "type": "address"
        }
      ],
      "name": "userMessageCount",
      "outputs": [
        {
          "internalType": "uint256",
          "name": "",
          "type": "uint256"
        }
      ],
      "stateMutability": "view",
      "type": "function"
    },
    {
      "inputs": [
        {
          "internalType": "address",
          "name": "",
          "type": "address"
        },
        {
          "internalType": "uint256",
          "name": "",
          "type": "uint256"
        }
      ],
      "name": "userMessages",
      "outputs": [
        {
          "internalType": "bytes32",
          "name": "",
          "type": "bytes32"
        }
      ],
      "stateMutability": "view",
      "type": "function"
    },
    {
      "inputs": [
        {
          "internalType": "address",
          "name": "",
          "type": "address"
        }
      ],
      "name": "userProfiles",
      "outputs": [
        {
          "internalType": "bytes32",
          "name": "publicKey",
          "type": "bytes32"
        },
        {
          "internalType": "bool",
          "name": "isActive",
          "type": "bool"
        },
        {
          "internalType": "uint256",
          "name": "lastSeen",
          "type": "uint256"
        },
        {
          "internalType": "string",
          "name": "username",
          "type": "string"
        }
      ],
      "stateMutability": "view",
      "type": "function"
    },
    {
      "inputs": [
        {
          "internalType": "address",
          "name": "",
          "type": "address"
        }
      ],
      "name": "userStorageUsed",
      "outputs": [
        {
          "internalType": "uint256",
          "name": "",
          "type": "uint256"
        }
      ],
      "stateMutability": "view",
      "type": "function"
    },
    {
      "inputs": [],
      "name": "withdrawBalance",
      "outputs": [],
      "stateMutability": "nonpayable",
      "type": "function"
    },
    {
      "stateMutability": "payable",
      "type": "receive"
    }
  ],
  "bytecode": "0x60a060405234801561001057600080fd5b50604051614a7f380380614a7f83398101604081905261002f9161020d565b60016000558061004561004061007d565b61008c565b6001805460ff60a01b191690556001600160a01b031660805260408051602081019091526000808252610077916100de565b50610423565b60006100876101b2565b905090565b600180546001600160a01b038381166001600160a01b0319831681179093556040519116919082907f8be0079c531659141344cd1fd0a4f28419497f9722a3daafe3b4186f6b6457e090600090a35050565b60408051608081018252838152600160208201524291810191909152606081018290526002600061010d61007d565b6001600160a01b031681526020808201929092526040908101600020835181559183015160018301805460ff191691151591909117905582015160028201556060820151600382019061016090826102dc565b5061016c91505061007d565b6001600160a01b03167f4c5d15f5779ae1ecd7d55bd3283d898e29c35743d172bd7b83a16e17bc0afe2a836040516101a691815260200190565b60405180910390a25050565b6000368160146080519091506001600160a01b0316331480156101d55750808210155b15610205576000366101e7838561039a565b6101f29282906103c1565b6101fb916103eb565b60601c9250505090565b339250505090565b60006020828403121561021f57600080fd5b81516001600160a01b038116811461023657600080fd5b9392505050565b634e487b7160e01b600052604160045260246000fd5b600181811c9082168061026757607f821691505b60208210810361028757634e487b7160e01b600052602260045260246000fd5b50919050565b601f8211156102d757806000526020600020601f840160051c810160208510156102b45750805b601f840160051c820191505b818110156102d457600081556001016102c0565b50505b505050565b81516001600160401b038111156102f5576102f561023d565b610309816103038454610253565b8461028d565b6020601f82116001811461033d57600083156103255750848201515b600019600385901b1c1916600184901b1784556102d4565b600084815260208120601f198516915b8281101561036d578785015182556020948501946001909201910161034d565b508482101561038b5786840151600019600387901b60f8161c191681555b50505050600190811b01905550565b818103818111156103bb57634e487b7160e01b600052601160045260246000fd5b92915050565b600080858511156103d157600080fd5b838611156103de57600080fd5b5050820193919092039150565b80356001600160601b0319811690601484101561041c576001600160601b0319601485900360031b81901b82161691505b5092915050565b60805161463a6104456000396000818161057501526137cb015261463a6000f3fe6080604052600436106102815760003560e01c80636eca16651161014f578063c3b68fba116100c1578063db2e21bc1161007a578063db2e21bc146108d0578063dfe6b5d6146108e5578063e968e83d14610910578063f2fde38b14610930578063fcaadf5614610950578063fe1e3eca146109c057600080fd5b8063c3b68fba146107d0578063c462a512146107e3578063ccfd55e714610823578063d3bb8b9614610843578063d91dd84f14610873578063d92fa314146108a057600080fd5b80638da5cb5b116101135780638da5cb5b146106f35780639428cda31461071b578063964db8f51461073b57806398d63d3d1461075357806399b0645414610780578063b206c446146107a057600080fd5b80636eca166514610660578063715018a6146106735780637f635fa6146106885780638456cb59146106be57806388f12d27146106d357600080fd5b8063332d56d7116101f35780635a506ebc116101ac5780635a506ebc146105a55780635a9baf37146105d25780635c975abb146105ea5780635fd8c7101461060957806369bd38a01461061e5780636c90d39f1461063357600080fd5b8063332d56d7146104a25780633f4ba83a146104d2578063462f4a3e146104e75780634a54315c14610522578063541d5f0314610542578063572b6c051461055857600080fd5b806326224c641161024557806326224c641461039a57806328b5238d146103c75780632b659bfb146103e75780632bbd59ca1461041d5780632ed5ef1414610455578063332346301461048257600080fd5b80630139a2211461028d5780630f2cb69d146102c357806311231fe014610303578063163f7522146103475780631ddd58f11461038357600080fd5b3661028857005b600080fd5b34801561029957600080fd5b506102ad6102a83660046138fa565b6109e0565b6040516102ba919061399b565b60405180910390f35b3480156102cf57600080fd5b506102f36102de3660046138fa565b60076020526000908152604090205460ff1681565b60405190151581526020016102ba565b34801561030f57600080fd5b5061033961031e366004613ab0565b6001600160a01b031660009081526002602052604090205490565b6040519081526020016102ba565b34801561035357600080fd5b506102f3610362366004613ab0565b6001600160a01b031660009081526002602052604090206001015460ff1690565b34801561038f57600080fd5b50610398610c34565b005b3480156103a657600080fd5b506103396103b5366004613ab0565b60086020526000908152604090205481565b3480156103d357600080fd5b506103986103e2366004613baf565b610cb1565b3480156103f357600080fd5b50610339610402366004613ab0565b6001600160a01b03166000908152600a602052604090205490565b34801561042957600080fd5b5061043d6104383660046138fa565b610f88565b6040516102ba9c9b9a99989796959493929190613bf3565b34801561046157600080fd5b506104756104703660046138fa565b611114565b6040516102ba9190613c94565b34801561048e57600080fd5b5061047561049d3660046138fa565b6111b9565b3480156104ae57600080fd5b506104c26104bd366004613ab0565b6111d9565b6040516102ba9493929190613ca7565b3480156104de57600080fd5b5061039861128f565b3480156104f357600080fd5b506102f3610502366004613d47565b8051602081830181018051600b8252928201919093012091525460ff1681565b34801561052e57600080fd5b5061039861053d366004613d83565b6112a1565b34801561054e57600080fd5b5061033961271081565b34801561056457600080fd5b506102f3610573366004613ab0565b7f00000000000000000000000000000000000000000000000000000000000000006001600160a01b0390811691161490565b3480156105b157600080fd5b506103396105c0366004613ab0565b600a6020526000908152604090205481565b3480156105de57600080fd5b506103396302faf08081565b3480156105f657600080fd5b50600154600160a01b900460ff166102f3565b34801561061557600080fd5b5061039861136a565b34801561062a57600080fd5b50610398611510565b34801561063f57600080fd5b5061065361064e3660046138fa565b611582565b6040516102ba9190613e0e565b61039861066e366004613fb4565b611654565b34801561067f57600080fd5b5061039861257e565b34801561069457600080fd5b506103396106a3366004613ab0565b6001600160a01b03166000908152600c602052604090205490565b3480156106ca57600080fd5b50610398612590565b3480156106df57600080fd5b506103396106ee366004613ab0565b6125a0565b3480156106ff57600080fd5b506001546040516001600160a01b0390911681526020016102ba565b34801561072757600080fd5b5061033961073636600461411b565b6125cd565b34801561074757600080fd5b50610339633b9aca0081565b34801561075f57600080fd5b5061077361076e366004613ab0565b6125fe565b6040516102ba9190614145565b34801561078c57600080fd5b5061039861079b3660046138fa565b612669565b3480156107ac57600080fd5b506102f36107bb3660046138fa565b60009081526009602052604090205460ff1690565b6103986107de366004614188565b612754565b3480156107ef57600080fd5b506108166107fe3660046138fa565b60009081526003602052604090206008015460ff1690565b6040516102ba919061422e565b34801561082f57600080fd5b5061033961083e36600461411b565b613161565b34801561084f57600080fd5b5061033961085e3660046138fa565b60009081526003602052604090206009015490565b34801561087f57600080fd5b5061033961088e366004613ab0565b600c6020526000908152604090205481565b3480156108ac57600080fd5b506102f36108bb3660046138fa565b60096020526000908152604090205460ff1681565b3480156108dc57600080fd5b5061039861317d565b3480156108f157600080fd5b50604080516000808252602082015247918101919091526060016102ba565b34801561091c57600080fd5b506102f361092b366004613d47565b613280565b34801561093c57600080fd5b5061039861094b366004613ab0565b6132ab565b34801561095c57600080fd5b5061099a61096b3660046138fa565b6004602081905260009182526040909120600181015460028201546003830154929093015490929160ff169084565b6040805194855260208501939093529015159183019190915260608201526080016102ba565b3480156109cc57600080fd5b506103986109db3660046138fa565b613324565b610a45604080516101808101825260008082526020820181905291810182905260608082018390526080820183905260a0820183905260c0820183905260e0820183905261010082015290610120820190815260200160008152602001606081525090565b60008281526003602081815260409283902083516101808101855281546001600160a01b0390811682526001830154811693820193909352600282015494810194909452918201546060840152600482015460ff808216151560808601526101009182900416151560a0850152600583015460c0850152600683015490911660e084015260078201805491840191610adc9061423c565b80601f0160208091040260200160405190810160405280929190818152602001828054610b089061423c565b8015610b555780601f10610b2a57610100808354040283529160200191610b55565b820191906000526020600020905b815481529060010190602001808311610b3857829003601f168201915b5050509183525050600882015460209091019060ff166004811115610b7c57610b7c613963565b6004811115610b8d57610b8d613963565b815260200160098201548152602001600a82018054610bab9061423c565b80601f0160208091040260200160405190810160405280929190818152602001828054610bd79061423c565b8015610c245780601f10610bf957610100808354040283529160200191610c24565b820191906000526020600020905b815481529060010190602001808311610c0757829003601f168201915b5050505050815250509050919050565b60026000610c406134c7565b6001600160a01b0316815260208101919091526040016000206001015460ff16610c855760405162461bcd60e51b8152600401610c7c90614276565b60405180910390fd5b4260026000610c926134c7565b6001600160a01b03168152602081019190915260400160002060020155565b60026000610cbd6134c7565b6001600160a01b0316815260208101919091526040016000206001015460ff16610cf95760405162461bcd60e51b8152600401610c7c90614276565b600282511015610d4b5760405162461bcd60e51b815260206004820152601c60248201527f4e656564206174206c656173742032207061727469636970616e7473000000006044820152606401610c7c565b80610d985760405162461bcd60e51b815260206004820152601860248201527f496e76616c696420636f6e766572736174696f6e206b657900000000000000006044820152606401610c7c565b60005b8251811015610e385760026000848381518110610dba57610dba6142a3565b6020908102919091018101516001600160a01b031682528101919091526040016000206001015460ff16610e305760405162461bcd60e51b815260206004820152601a60248201527f5061727469636970616e74206e6f7420726567697374657265640000000000006044820152606401610c7c565b600101610d9b565b506000828242604051602001610e50939291906142b9565b60408051601f19818403018152828252805160209182012060a0840183528684528382018690524284840152600160608501526000608085018190528181526004835292909220835180519395509092610ead9284920190613880565b506020820151600182015560408201516002820155606082015160038201805460ff191691151591909117905560809091015160049091015560005b8351811015610f4a5760066000858381518110610f0857610f086142a3565b6020908102919091018101516001600160a01b031682528181019290925260400160009081208054600181810183559183529290912090910183905501610ee9565b50807f77521a8f8fdd167d0f112b1336664ec6b6887c6fbc4240968083377f473694d284604051610f7b9190614302565b60405180910390a2505050565b6003602081905260009182526040909120805460018201546002830154938301546004840154600585015460068601546007870180546001600160a01b0397881699968816989697959660ff808716976101009097041695909316929190610fef9061423c565b80601f016020809104026020016040519081016040528092919081815260200182805461101b9061423c565b80156110685780601f1061103d57610100808354040283529160200191611068565b820191906000526020600020905b81548152906001019060200180831161104b57829003601f168201915b5050505060088301546009840154600a85018054949560ff90931694919350906110919061423c565b80601f01602080910402602001604051908101604052809291908181526020018280546110bd9061423c565b801561110a5780601f106110df5761010080835404028352916020019161110a565b820191906000526020600020905b8154815290600101906020018083116110ed57829003601f168201915b505050505090508c565b60008181526003602052604090206007018054606091906111349061423c565b80601f01602080910402602001604051908101604052809291908181526020018280546111609061423c565b80156111ad5780601f10611182576101008083540402835291602001916111ad565b820191906000526020600020905b81548152906001019060200180831161119057829003601f168201915b50505050509050919050565b6000818152600360205260409020600a018054606091906111349061423c565b60026020819052600091825260409091208054600182015492820154600383018054929460ff1693919261120c9061423c565b80601f01602080910402602001604051908101604052809291908181526020018280546112389061423c565b80156112855780601f1061125a57610100808354040283529160200191611285565b820191906000526020600020905b81548152906001019060200180831161126857829003601f168201915b5050505050905084565b6112976134d6565b61129f61354f565b565b600260006112ad6134c7565b6001600160a01b0316815260208101919091526040016000206001015460ff161561131a5760405162461bcd60e51b815260206004820152601760248201527f5573657220616c726561647920726567697374657265640000000000000000006044820152606401610c7c565b8161135c5760405162461bcd60e51b8152602060048201526012602482015271496e76616c6964207075626c6963206b657960701b6044820152606401610c7c565b61136682826135aa565b5050565b600260006113766134c7565b6001600160a01b0316815260208101919091526040016000206001015460ff166113b25760405162461bcd60e51b8152600401610c7c90614276565b6113ba61367f565b6000600860006113c86134c7565b6001600160a01b03166001600160a01b03168152602001908152602001600020549050600081116114345760405162461bcd60e51b81526020600482015260166024820152754e6f2062616c616e636520746f20776974686472617760501b6044820152606401610c7c565b6000600860006114426134c7565b6001600160a01b03166001600160a01b031681526020019081526020016000208190555060006114706134c7565b6001600160a01b03168260405160006040518083038185875af1925050503d80600081146114ba576040519150601f19603f3d011682016040523d82523d6000602084013e6114bf565b606091505b50509050806115045760405162461bcd60e51b815260206004820152601160248201527015da5d1a191c985dd85b0819985a5b1959607a1b6044820152606401610c7c565b505061129f6001600055565b6002600061151c6134c7565b6001600160a01b0316815260208101919091526040016000206001015460ff166115585760405162461bcd60e51b8152600401610c7c90614276565b6000600c60006115666134c7565b6001600160a01b03168152602081019190915260400160002055565b6040805160a0810182526060808252600060208301819052928201839052810182905260808101919091526000828152600460209081526040918290208251815460c09381028201840190945260a08101848152909391928492849184018282801561161757602002820191906000526020600020905b81546001600160a01b031681526001909101906020018083116115f9575b50505091835250506001820154602082015260028201546040820152600382015460ff161515606082015260049091015460809091015292915050565b600260006116606134c7565b6001600160a01b0316815260208101919091526040016000206001015460ff1661169c5760405162461bcd60e51b8152600401610c7c90614276565b6116a461367f565b6116ac6136d8565b86518851146116cd5760405162461bcd60e51b8152600401610c7c90614315565b85518851146116ee5760405162461bcd60e51b8152600401610c7c90614315565b845188511461170f5760405162461bcd60e51b8152600401610c7c90614315565b83518851146117305760405162461bcd60e51b8152600401610c7c90614315565b82518851146117515760405162461bcd60e51b8152600401610c7c90614315565b81518851146117725760405162461bcd60e51b8152600401610c7c90614315565b80518851146117935760405162461bcd60e51b8152600401610c7c90614315565b600a885111156117e55760405162461bcd60e51b815260206004820152601a60248201527f546f6f206d616e79206d6573736167657320696e2062617463680000000000006044820152606401610c7c565b600088516001600160401b0381111561180057611800613ad2565b604051908082528060200260200182016040528015611829578160200160208202803683370190505b50905060005b89518110156124dd5760006001600160a01b03168a8281518110611855576118556142a3565b60200260200101516001600160a01b0316036118a75760405162461bcd60e51b8152602060048201526011602482015270125b9d985b1a59081c9958da5c1a595b9d607a1b6044820152606401610c7c565b6118af6134c7565b6001600160a01b03168a82815181106118ca576118ca6142a3565b60200260200101516001600160a01b03160361191e5760405162461bcd60e51b815260206004820152601360248201527221b0b73737ba1039b2b732103a379039b2b63360691b6044820152606401610c7c565b600260008b8381518110611934576119346142a3565b6020908102919091018101516001600160a01b031682528101919091526040016000206001015460ff166119a55760405162461bcd60e51b8152602060048201526018602482015277149958da5c1a595b9d081b9bdd081c9959da5cdd195c995960421b6044820152606401610c7c565b6000801b8982815181106119bb576119bb6142a3565b602002602001015103611a075760405162461bcd60e51b8152602060048201526014602482015273092dcecc2d8d2c840dacae6e6c2ceca40d0c2e6d60631b6044820152606401610c7c565b6000858281518110611a1b57611a1b6142a3565b60200260200101516004811115611a3457611a34613963565b03611b2c576000838281518110611a4d57611a4d6142a3565b60200260200101515111611a735760405162461bcd60e51b8152600401610c7c90614344565b6000868281518110611a8757611a876142a3565b602002602001015151118015611ad65750600b868281518110611aac57611aac6142a3565b6020026020010151604051611ac1919061438b565b9081526040519081900360200190205460ff16155b15611b27576001600b878381518110611af157611af16142a3565b6020026020010151604051611b06919061438b565b908152604051908190036020019020805491151560ff199092169190911790555b611ce3565b6000868281518110611b4057611b406142a3565b60200260200101515111611b665760405162461bcd60e51b8152600401610c7c906143a7565b600b868281518110611b7a57611b7a6142a3565b6020026020010151604051611b8f919061438b565b9081526040519081900360200190205460ff1615611be85760405162461bcd60e51b815260206004820152601660248201527512541194c81a185cda08185b1c9958591e481d5cd95960521b6044820152606401610c7c565b6302faf080848281518110611bff57611bff6142a3565b60200260200101511115611c465760405162461bcd60e51b815260206004820152600e60248201526d46696c6520746f6f206c6172676560901b6044820152606401610c7c565b633b9aca00848281518110611c5d57611c5d6142a3565b6020026020010151600c6000611c716134c7565b6001600160a01b03166001600160a01b0316815260200190815260200160002054611c9c9190614402565b1115611ce35760405162461bcd60e51b815260206004820152601660248201527514dd1bdc9859d9481b1a5b5a5d08195e18d95959195960521b6044820152606401610c7c565b6000611ced6134c7565b8b8381518110611cff57611cff6142a3565b60200260200101518b8481518110611d1957611d196142a3565b6020908102919091018101516040516001600160601b0319606095861b8116938201939093529290931b166034820152604881019190915242606882015243608882015260a8810183905260c8016040516020818303038152906040528051906020012090506000888381518110611d9357611d936142a3565b602002602001015111156120875760006001600160a01b0316898381518110611dbe57611dbe6142a3565b60200260200101516001600160a01b031603611f0957878281518110611de657611de66142a3565b6020026020010151341015611e385760405162461bcd60e51b8152602060048201526018602482015277125b9cdd59999a58da595b9d08115512081c185e5b595b9d60421b6044820152606401610c7c565b60008b8381518110611e4c57611e4c6142a3565b60200260200101516001600160a01b0316898481518110611e6f57611e6f6142a3565b602002602001015160405160006040518083038185875af1925050503d8060008114611eb7576040519150601f19603f3d011682016040523d82523d6000602084013e611ebc565b606091505b5050905080611f035760405162461bcd60e51b8152602060048201526013602482015272115512081d1c985b9cd9995c8819985a5b1959606a1b6044820152606401610c7c565b50612033565b6000898381518110611f1d57611f1d6142a3565b60200260200101519050806001600160a01b03166323b872dd611f3e6134c7565b8e8681518110611f5057611f506142a3565b60200260200101518c8781518110611f6a57611f6a6142a3565b60209081029190910101516040516001600160e01b031960e086901b1681526001600160a01b03938416600482015292909116602483015260448201526064016020604051808303816000875af1158015611fc9573d6000803e3d6000fd5b505050506040513d601f19601f82011682018060405250810190611fed9190614415565b6120315760405162461bcd60e51b8152602060048201526015602482015274151bdad95b881d1c985b9cd9995c8819985a5b1959605a1b6044820152606401610c7c565b505b807f59dcd7f7740501f043c7fdd2559d35e50b1c6d9cfa1c72352bbcccfc45467554898481518110612067576120676142a3565b602002602001015160405161207e91815260200190565b60405180910390a25b60405180610180016040528061209b6134c7565b6001600160a01b031681526020018c84815181106120bb576120bb6142a3565b60200260200101516001600160a01b031681526020018b84815181106120e3576120e36142a3565b6020026020010151815260200142815260200160001515815260200160001515815260200189848151811061211a5761211a6142a3565b602002602001015181526020018a8481518110612139576121396142a3565b60200260200101516001600160a01b03168152602001888481518110612161576121616142a3565b60200260200101518152602001878481518110612180576121806142a3565b6020026020010151600481111561219957612199613963565b81526020018684815181106121b0576121b06142a3565b602002602001015181526020018584815181106121cf576121cf6142a3565b60209081029190910181015190915260008381526003808352604091829020845181546001600160a01b03199081166001600160a01b03928316178355948601516001830180548716918316919091179055928501516002820155606085015191810191909155608084015160048201805460a087015161ffff1990911692151561ff00191692909217610100921515830217905560c0850151600583015560e085015160068301805490951693169290921790925582015160078201906122979082614486565b5061012082015160088201805460ff191660018360048111156122bc576122bc613963565b02179055506101408201516009820155610160820151600a8201906122e19082614486565b50905050600560006122f16134c7565b6001600160a01b03168152602080820192909252604001600090812080546001810182559082529181209091018290558b51600591908d9085908110612339576123396142a3565b6020908102919091018101516001600160a01b0316825281810192909252604001600090812080546001810182559082529190200181905582518190849084908110612387576123876142a3565b60200260200101818152505060008783815181106123a7576123a76142a3565b6020026020010151511180156123f65750600b8783815181106123cc576123cc6142a3565b60200260200101516040516123e1919061438b565b9081526040519081900360200190205460ff16155b15612447576001600b888481518110612411576124116142a3565b6020026020010151604051612426919061438b565b908152604051908190036020019020805491151560ff199092169190911790555b600086838151811061245b5761245b6142a3565b6020026020010151600481111561247457612474613963565b146124d45784828151811061248b5761248b6142a3565b6020026020010151600c600061249f6134c7565b6001600160a01b03166001600160a01b0316815260200190815260200160002060008282546124ce9190614402565b90915550505b5060010161182f565b508851600a60006124ec6134c7565b6001600160a01b03166001600160a01b03168152602001908152602001600020600082825461251b9190614402565b9091555061252990506134c7565b6001600160a01b03167fb86ae99ed5193dc66280d13677675bd13564a983809d971c92de3bf5049bbe19826040516125619190614145565b60405180910390a2506125746001600055565b5050505050505050565b6125866134d6565b61129f6000613725565b6125986134d6565b61129f613777565b6001600160a01b0381166000908152600c60205260408120546125c790633b9aca00614544565b92915050565b600560205281600052604060002081815481106125e957600080fd5b90600052602060002001600091509150505481565b6001600160a01b0381166000908152600560209081526040918290208054835181840281018401909452808452606093928301828280156111ad57602002820191906000526020600020905b81548152602001906001019080831161264a5750505050509050919050565b600260006126756134c7565b6001600160a01b0316815260208101919091526040016000206001015460ff166126b15760405162461bcd60e51b8152600401610c7c90614276565b806126f35760405162461bcd60e51b8152602060048201526012602482015271496e76616c6964207075626c6963206b657960701b6044820152606401610c7c565b80600260006127006134c7565b6001600160a01b03166001600160a01b031681526020019081526020016000206000018190555042600260006127346134c7565b6001600160a01b0316815260208101919091526040016000206002015550565b600260006127606134c7565b6001600160a01b0316815260208101919091526040016000206001015460ff1661279c5760405162461bcd60e51b8152600401610c7c90614276565b6127a461367f565b6127ac6136d8565b6001600160a01b0388166127f65760405162461bcd60e51b8152602060048201526011602482015270125b9d985b1a59081c9958da5c1a595b9d607a1b6044820152606401610c7c565b6127fe6134c7565b6001600160a01b0316886001600160a01b0316036128545760405162461bcd60e51b815260206004820152601360248201527221b0b73737ba1039b2b732103a379039b2b63360691b6044820152606401610c7c565b6001600160a01b03881660009081526002602052604090206001015460ff166128ba5760405162461bcd60e51b8152602060048201526018602482015277149958da5c1a595b9d081b9bdd081c9959da5cdd195c995960421b6044820152606401610c7c565b866128fe5760405162461bcd60e51b8152602060048201526014602482015273092dcecc2d8d2c840dacae6e6c2ceca40d0c2e6d60631b6044820152606401610c7c565b612710600a600061290d6134c7565b6001600160a01b03166001600160a01b03168152602001908152602001600020541061297b5760405162461bcd60e51b815260206004820152601b60248201527f55736572206d657373616765206c696d697420657863656564656400000000006044820152606401610c7c565b600083600481111561298f5761298f613963565b03612a235760008151116129b55760405162461bcd60e51b8152600401610c7c90614344565b600084511180156129e65750600b846040516129d1919061438b565b9081526040519081900360200190205460ff16155b15612a1e576001600b856040516129fd919061438b565b908152604051908190036020019020805491151560ff199092169190911790555b612b76565b6000845111612a445760405162461bcd60e51b8152600401610c7c906143a7565b600b84604051612a54919061438b565b9081526040519081900360200190205460ff1615612aad5760405162461bcd60e51b815260206004820152601660248201527512541194c81a185cda08185b1c9958591e481d5cd95960521b6044820152606401610c7c565b6302faf080821115612af25760405162461bcd60e51b815260206004820152600e60248201526d46696c6520746f6f206c6172676560901b6044820152606401610c7c565b633b9aca0082600c6000612b046134c7565b6001600160a01b03166001600160a01b0316815260200190815260200160002054612b2f9190614402565b1115612b765760405162461bcd60e51b815260206004820152601660248201527514dd1bdc9859d9481b1a5b5a5d08195e18d95959195960521b6044820152606401610c7c565b6000612b806134c7565b6040516001600160601b0319606092831b81166020830152918b901b90911660348201526048810189905242606882015243608882015260a8016040516020818303038152906040528051906020012090506000861115612de5576001600160a01b038716612cd35785341015612c345760405162461bcd60e51b8152602060048201526018602482015277125b9cdd59999a58da595b9d08115512081c185e5b595b9d60421b6044820152606401610c7c565b6000896001600160a01b03168760405160006040518083038185875af1925050503d8060008114612c81576040519150601f19603f3d011682016040523d82523d6000602084013e612c86565b606091505b5050905080612ccd5760405162461bcd60e51b8152602060048201526013602482015272115512081d1c985b9cd9995c8819985a5b1959606a1b6044820152606401610c7c565b50612daa565b866001600160a01b0381166323b872dd612ceb6134c7565b6040516001600160e01b031960e084901b1681526001600160a01b039182166004820152908d166024820152604481018a90526064016020604051808303816000875af1158015612d40573d6000803e3d6000fd5b505050506040513d601f19601f82011682018060405250810190612d649190614415565b612da85760405162461bcd60e51b8152602060048201526015602482015274151bdad95b881d1c985b9cd9995c8819985a5b1959605a1b6044820152606401610c7c565b505b807f59dcd7f7740501f043c7fdd2559d35e50b1c6d9cfa1c72352bbcccfc4546755487604051612ddc91815260200190565b60405180910390a25b604051806101800160405280612df96134c7565b6001600160a01b031681526020018a6001600160a01b03168152602001898152602001428152602001600015158152602001600015158152602001878152602001886001600160a01b03168152602001868152602001856004811115612e6157612e61613963565b8152602080820186905260409182018590526000848152600380835290839020845181546001600160a01b03199081166001600160a01b03928316178355938601516001830180548616918316919091179055938501516002820155606085015191810191909155608084015160048201805460a087015161ffff1990911692151561ff00191692909217610100921515830217905560c0850151600583015560e0850151600683018054909416941693909317909155908201516007820190612f2b9082614486565b5061012082015160088201805460ff19166001836004811115612f5057612f50613963565b02179055506101408201516009820155610160820151600a820190612f759082614486565b5090505060056000612f856134c7565b6001600160a01b0390811682526020808301939093526040918201600090812080546001818101835591835285832001869055918d16815260058452918220805491820181558252918120909101829055600a90612fe16134c7565b6001600160a01b031681526020810191909152604001600090812080549161300883614557565b91905055506000855111801561303e5750600b85604051613029919061438b565b9081526040519081900360200190205460ff16155b15613076576001600b86604051613055919061438b565b908152604051908190036020019020805491151560ff199092169190911790555b600084600481111561308a5761308a613963565b146130d15782600c600061309c6134c7565b6001600160a01b03166001600160a01b0316815260200190815260200160002060008282546130cb9190614402565b90915550505b886001600160a01b03166130e36134c7565b6001600160a01b0316827f3f25921f9859dd3aa049d420d41e16cc17afef0f1bc7994033679dd72865cda2428a604051613127929190918252602082015260400190565b60405180910390a4807f5d21d37bf37daf68715464be18dd14c0fc968d8693d617680606c709fe106d238686604051612561929190614570565b600660205281600052604060002081815481106125e957600080fd5b6131856134d6565b47806131cc5760405162461bcd60e51b81526020600482015260166024820152754e6f2062616c616e636520746f20776974686472617760501b6044820152606401610c7c565b60006131e06001546001600160a01b031690565b6001600160a01b03168260405160006040518083038185875af1925050503d806000811461322a576040519150601f19603f3d011682016040523d82523d6000602084013e61322f565b606091505b50509050806113665760405162461bcd60e51b815260206004820152601b60248201527f456d657267656e6379207769746864726177616c206661696c656400000000006044820152606401610c7c565b6000600b82604051613292919061438b565b9081526040519081900360200190205460ff1692915050565b6132b36134d6565b6001600160a01b0381166133185760405162461bcd60e51b815260206004820152602660248201527f4f776e61626c653a206e6577206f776e657220697320746865207a65726f206160448201526564647265737360d01b6064820152608401610c7c565b61332181613725565b50565b60008181526003602052604090205481906001600160a01b03166133835760405162461bcd60e51b815260206004820152601660248201527513595cdcd859d948191bd95cc81b9bdd08195e1a5cdd60521b6044820152606401610c7c565b600082815260096020526040902054829060ff16156133d65760405162461bcd60e51b815260206004820152600f60248201526e13595cdcd859d94819195b195d1959608a1b6044820152606401610c7c565b60008381526003602052604090206133ec6134c7565b81546001600160a01b039081169116148061341e575061340a6134c7565b60018201546001600160a01b039081169116145b61346a5760405162461bcd60e51b815260206004820152601860248201527f4e6f7420617574686f72697a656420746f2064656c65746500000000000000006044820152606401610c7c565b6000848152600960205260409020805460ff1916600117905561348b6134c7565b6001600160a01b0316847fdb5031387d41bf5edf2cc7c9f161d7cfc8095d67ad6eec15cd99149dcdafc09360405160405180910390a350505050565b60006134d16137bb565b905090565b6134de6134c7565b6001600160a01b03166134f96001546001600160a01b031690565b6001600160a01b03161461129f5760405162461bcd60e51b815260206004820181905260248201527f4f776e61626c653a2063616c6c6572206973206e6f7420746865206f776e65726044820152606401610c7c565b613557613830565b6001805460ff60a01b191690557f5db9ee0a495bf2e6ff9c91a7834c1ba4fdd244a5e8aa4e537bd38aeae4b073aa61358d6134c7565b6040516001600160a01b03909116815260200160405180910390a1565b604051806080016040528083815260200160011515815260200142815260200182815250600260006135da6134c7565b6001600160a01b031681526020808201929092526040908101600020835181559183015160018301805460ff191691151591909117905582015160028201556060820151600382019061362d9082614486565b509050506136396134c7565b6001600160a01b03167f4c5d15f5779ae1ecd7d55bd3283d898e29c35743d172bd7b83a16e17bc0afe2a8360405161367391815260200190565b60405180910390a25050565b6002600054036136d15760405162461bcd60e51b815260206004820152601f60248201527f5265656e7472616e637947756172643a207265656e7472616e742063616c6c006044820152606401610c7c565b6002600055565b600154600160a01b900460ff161561129f5760405162461bcd60e51b815260206004820152601060248201526f14185d5cd8589b194e881c185d5cd95960821b6044820152606401610c7c565b600180546001600160a01b038381166001600160a01b0319831681179093556040519116919082907f8be0079c531659141344cd1fd0a4f28419497f9722a3daafe3b4186f6b6457e090600090a35050565b61377f6136d8565b6001805460ff60a01b1916600160a01b1790557f62e78cea01bee320cd4e420270b5ea74000d11b0c9f74754ebdbfc544b05a25861358d6134c7565b6000366014336001600160a01b037f0000000000000000000000000000000000000000000000000000000000000000161480156137f85750808210155b156138285760003661380a8385614544565b613815928290614592565b61381e916145bc565b60601c9250505090565b339250505090565b600154600160a01b900460ff1661129f5760405162461bcd60e51b815260206004820152601460248201527314185d5cd8589b194e881b9bdd081c185d5cd95960621b6044820152606401610c7c565b8280548282559060005260206000209081019282156138d5579160200282015b828111156138d557825182546001600160a01b0319166001600160a01b039091161782556020909201916001909101906138a0565b506138e19291506138e5565b5090565b5b808211156138e157600081556001016138e6565b60006020828403121561390c57600080fd5b5035919050565b60005b8381101561392e578181015183820152602001613916565b50506000910152565b6000815180845261394f816020860160208601613913565b601f01601f19169290920160200192915050565b634e487b7160e01b600052602160045260246000fd5b6005811061399757634e487b7160e01b600052602160045260246000fd5b9052565b602081526139b56020820183516001600160a01b03169052565b600060208301516139d160408401826001600160a01b03169052565b50604083015160608301526060830151608083015260808301516139f960a084018215159052565b5060a083015180151560c08401525060c083015160e083015260e0830151613a2d6101008401826001600160a01b03169052565b50610100830151610180610120840152613a4b6101a0840182613937565b9050610120840151613a61610140850182613979565b50610140840151610160840152610160840151601f1984830301610180850152613a8b8282613937565b95945050505050565b80356001600160a01b0381168114613aab57600080fd5b919050565b600060208284031215613ac257600080fd5b613acb82613a94565b9392505050565b634e487b7160e01b600052604160045260246000fd5b604051601f8201601f191681016001600160401b0381118282101715613b1057613b10613ad2565b604052919050565b60006001600160401b03821115613b3157613b31613ad2565b5060051b60200190565b600082601f830112613b4c57600080fd5b8135613b5f613b5a82613b18565b613ae8565b8082825260208201915060208360051b860101925085831115613b8157600080fd5b602085015b83811015613ba557613b9781613a94565b835260209283019201613b86565b5095945050505050565b60008060408385031215613bc257600080fd5b82356001600160401b03811115613bd857600080fd5b613be485828601613b3b565b95602094909401359450505050565b6001600160a01b038d811682528c166020820152604081018b9052606081018a9052881515608082015287151560a08201528660c0820152613c4060e08201876001600160a01b03169052565b6101806101008201526000613c59610180830187613937565b613c67610120840187613979565b84610140840152828103610160840152613c818185613937565b9f9e505050505050505050505050505050565b602081526000613acb6020830184613937565b8481528315156020820152826040820152608060608201526000613cce6080830184613937565b9695505050505050565b600082601f830112613ce957600080fd5b81356001600160401b03811115613d0257613d02613ad2565b613d15601f8201601f1916602001613ae8565b818152846020838601011115613d2a57600080fd5b816020850160208301376000918101602001919091529392505050565b600060208284031215613d5957600080fd5b81356001600160401b03811115613d6f57600080fd5b613d7b84828501613cd8565b949350505050565b60008060408385031215613d9657600080fd5b8235915060208301356001600160401b03811115613db357600080fd5b613dbf85828601613cd8565b9150509250929050565b600081518084526020840193506020830160005b82811015613e045781516001600160a01b0316865260209586019590910190600101613ddd565b5093949350505050565b602081526000825160a06020840152613e2a60c0840182613dc9565b90506020840151604084015260408401516060840152606084015115156080840152608084015160a08401528091505092915050565b600082601f830112613e7157600080fd5b8135613e7f613b5a82613b18565b8082825260208201915060208360051b860101925085831115613ea157600080fd5b602085015b83811015613ba5578035835260209283019201613ea6565b600082601f830112613ecf57600080fd5b8135613edd613b5a82613b18565b8082825260208201915060208360051b860101925085831115613eff57600080fd5b602085015b83811015613ba55780356001600160401b03811115613f2257600080fd5b613f31886020838a0101613cd8565b84525060209283019201613f04565b803560058110613aab57600080fd5b600082601f830112613f6057600080fd5b8135613f6e613b5a82613b18565b8082825260208201915060208360051b860101925085831115613f9057600080fd5b602085015b83811015613ba557613fa681613f40565b835260209283019201613f95565b600080600080600080600080610100898b031215613fd157600080fd5b88356001600160401b03811115613fe757600080fd5b613ff38b828c01613b3b565b98505060208901356001600160401b0381111561400f57600080fd5b61401b8b828c01613e60565b97505060408901356001600160401b0381111561403757600080fd5b6140438b828c01613b3b565b96505060608901356001600160401b0381111561405f57600080fd5b61406b8b828c01613e60565b95505060808901356001600160401b0381111561408757600080fd5b6140938b828c01613ebe565b94505060a08901356001600160401b038111156140af57600080fd5b6140bb8b828c01613f4f565b93505060c08901356001600160401b038111156140d757600080fd5b6140e38b828c01613e60565b92505060e08901356001600160401b038111156140ff57600080fd5b61410b8b828c01613ebe565b9150509295985092959890939650565b6000806040838503121561412e57600080fd5b61413783613a94565b946020939093013593505050565b602080825282518282018190526000918401906040840190835b8181101561417d57835183526020938401939092019160010161415f565b509095945050505050565b600080600080600080600080610100898b0312156141a557600080fd5b6141ae89613a94565b9750602089013596506141c360408a01613a94565b95506060890135945060808901356001600160401b038111156141e557600080fd5b6141f18b828c01613cd8565b94505061420060a08a01613f40565b925060c0890135915060e08901356001600160401b0381111561422257600080fd5b61410b8b828c01613cd8565b602081016125c78284613979565b600181811c9082168061425057607f821691505b60208210810361427057634e487b7160e01b600052602260045260246000fd5b50919050565b602080825260139082015272155cd95c881b9bdd081c9959da5cdd195c9959606a1b604082015260600190565b634e487b7160e01b600052603260045260246000fd5b8351600090829060208701835b828110156142ed5781516001600160a01b03168452602093840193909101906001016142c6565b50505093845250506020820152604001919050565b602081526000613acb6020830184613dc9565b602080825260159082015274082e4e4c2f240d8cadccee8d040dad2e6dac2e8c6d605b1b604082015260600190565b60208082526027908201527f5465787420636f6e74656e7420726571756972656420666f722054455854206d6040820152666573736167657360c81b606082015260800190565b6000825161439d818460208701613913565b9190910192915050565b60208082526025908201527f49504653206861736820726571756972656420666f72206d65646961206d6573604082015264736167657360d81b606082015260800190565b634e487b7160e01b600052601160045260246000fd5b808201808211156125c7576125c76143ec565b60006020828403121561442757600080fd5b81518015158114613acb57600080fd5b601f82111561448157806000526020600020601f840160051c8101602085101561445e5750805b601f840160051c820191505b8181101561447e576000815560010161446a565b50505b505050565b81516001600160401b0381111561449f5761449f613ad2565b6144b3816144ad845461423c565b84614437565b6020601f8211600181146144e757600083156144cf5750848201515b600019600385901b1c1916600184901b17845561447e565b600084815260208120601f198516915b8281101561451757878501518255602094850194600190920191016144f7565b50848210156145355786840151600019600387901b60f8161c191681555b50505050600190811b01905550565b818103818111156125c7576125c76143ec565b600060018201614569576145696143ec565b5060010190565b6040815260006145836040830185613937565b9050613acb6020830184613979565b600080858511156145a257600080fd5b838611156145af57600080fd5b5050820193919092039150565b80356001600160601b031981169060148410156145fd576bffffffffffffffffffffffff196bffffffffffffffffffffffff198560140360031b1b82161691505b509291505056fea2646970667358221220832c83ad6c1bc598f4e7f4fb82deca5091fe4692697486409b00ed8c9dcebca464736f6c634300081c0033",
  "linkReferences": {},
  "deployedLinkReferences": {}
}