{
  "_format": "hh-sol-artifact-1",
  "contractName": "WhisperChain",
  "sourceName": "contracts/whisperChain.sol",
  "abi": [
    {
      "inputs": [],
      "stateMutability": "nonpayable",
      "type": "constructor"
    },
    {
      "anonymous": false,
      "inputs": [
        {
          "indexed": false,
          "internalType": "bytes32[]",
          "name": "messageIds",
          "type": "bytes32[]"
        },
        {
          "indexed": true,
          "internalType": "address",
          "name": "sender",
          "type": "address"
        }
      ],
      "name": "BatchMessageSent",
      "type": "event"
    },
    {
      "anonymous": false,
      "inputs": [
        {
          "indexed": true,
          "internalType": "bytes32",
          "name": "conversationId",
          "type": "bytes32"
        },
        {
          "indexed": false,
          "internalType": "address[]",
          "name": "participants",
          "type": "address[]"
        }
      ],
      "name": "ConversationCreated",
      "type": "event"
    },
    {
      "anonymous": false,
      "inputs": [
        {
          "indexed": true,
          "internalType": "bytes32",
          "name": "messageId",
          "type": "bytes32"
        },
        {
          "indexed": false,
          "internalType": "string",
          "name": "ipfsHash",
          "type": "string"
        },
        {
          "indexed": false,
          "internalType": "enum WhisperChain.MediaType",
          "name": "mediaType",
          "type": "uint8"
        }
      ],
      "name": "MediaUploaded",
      "type": "event"
    },
    {
      "anonymous": false,
      "inputs": [
        {
          "indexed": true,
          "internalType": "bytes32",
          "name": "messageId",
          "type": "bytes32"
        },
        {
          "indexed": true,
          "internalType": "address",
          "name": "deleter",
          "type": "address"
        }
      ],
      "name": "MessageDeleted",
      "type": "event"
    },
    {
      "anonymous": false,
      "inputs": [
        {
          "indexed": true,
          "internalType": "bytes32",
          "name": "messageId",
          "type": "bytes32"
        },
        {
          "indexed": true,
          "internalType": "address",
          "name": "sender",
          "type": "address"
        },
        {
          "indexed": true,
          "internalType": "address",
          "name": "recipient",
          "type": "address"
        },
        {
          "indexed": false,
          "internalType": "uint256",
          "name": "timestamp",
          "type": "uint256"
        },
        {
          "indexed": false,
          "internalType": "uint256",
          "name": "paymentAmount",
          "type": "uint256"
        }
      ],
      "name": "MessageSent",
      "type": "event"
    },
    {
      "anonymous": false,
      "inputs": [
        {
          "indexed": true,
          "internalType": "address",
          "name": "previousOwner",
          "type": "address"
        },
        {
          "indexed": true,
          "internalType": "address",
          "name": "newOwner",
          "type": "address"
        }
      ],
      "name": "OwnershipTransferred",
      "type": "event"
    },
    {
      "anonymous": false,
      "inputs": [
        {
          "indexed": false,
          "internalType": "address",
          "name": "account",
          "type": "address"
        }
      ],
      "name": "Paused",
      "type": "event"
    },
    {
      "anonymous": false,
      "inputs": [
        {
          "indexed": true,
          "internalType": "bytes32",
          "name": "messageId",
          "type": "bytes32"
        },
        {
          "indexed": false,
          "internalType": "uint256",
          "name": "amount",
          "type": "uint256"
        }
      ],
      "name": "PaymentSettled",
      "type": "event"
    },
    {
      "anonymous": false,
      "inputs": [
        {
          "indexed": true,
          "internalType": "address",
          "name": "user",
          "type": "address"
        },
        {
          "indexed": false,
          "internalType": "uint256",
          "name": "used",
          "type": "uint256"
        },
        {
          "indexed": false,
          "internalType": "uint256",
          "name": "limit",
          "type": "uint256"
        }
      ],
      "name": "StorageLimitExceeded",
      "type": "event"
    },
    {
      "anonymous": false,
      "inputs": [
        {
          "indexed": false,
          "internalType": "address",
          "name": "account",
          "type": "address"
        }
      ],
      "name": "Unpaused",
      "type": "event"
    },
    {
      "anonymous": false,
      "inputs": [
        {
          "indexed": true,
          "internalType": "address",
          "name": "user",
          "type": "address"
        },
        {
          "indexed": false,
          "internalType": "bytes32",
          "name": "publicKey",
          "type": "bytes32"
        }
      ],
      "name": "UserRegistered",
      "type": "event"
    },
    {
      "inputs": [],
      "name": "MAX_FILE_SIZE",
      "outputs": [
        {
          "internalType": "uint256",
          "name": "",
          "type": "uint256"
        }
      ],
      "stateMutability": "view",
      "type": "function"
    },
    {
      "inputs": [],
      "name": "MAX_MESSAGES_PER_USER",
      "outputs": [
        {
          "internalType": "uint256",
          "name": "",
          "type": "uint256"
        }
      ],
      "stateMutability": "view",
      "type": "function"
    },
    {
      "inputs": [],
      "name": "MAX_STORAGE_PER_USER",
      "outputs": [
        {
          "internalType": "uint256",
          "name": "",
          "type": "uint256"
        }
      ],
      "stateMutability": "view",
      "type": "function"
    },
    {
      "inputs": [],
      "name": "clearStorage",
      "outputs": [],
      "stateMutability": "nonpayable",
      "type": "function"
    },
    {
      "inputs": [
        {
          "internalType": "bytes32",
          "name": "",
          "type": "bytes32"
        }
      ],
      "name": "conversations",
      "outputs": [
        {
          "internalType": "bytes32",
          "name": "conversationKey",
          "type": "bytes32"
        },
        {
          "internalType": "uint256",
          "name": "createdAt",
          "type": "uint256"
        },
        {
          "internalType": "bool",
          "name": "isActive",
          "type": "bool"
        },
        {
          "internalType": "uint256",
          "name": "messageCount",
          "type": "uint256"
        }
      ],
      "stateMutability": "view",
      "type": "function"
    },
    {
      "inputs": [
        {
          "internalType": "address[]",
          "name": "participants",
          "type": "address[]"
        },
        {
          "internalType": "bytes32",
          "name": "conversationKeyHash",
          "type": "bytes32"
        }
      ],
      "name": "createConversation",
      "outputs": [],
      "stateMutability": "nonpayable",
      "type": "function"
    },
    {
      "inputs": [
        {
          "internalType": "bytes32",
          "name": "messageId",
          "type": "bytes32"
        }
      ],
      "name": "deleteMessage",
      "outputs": [],
      "stateMutability": "nonpayable",
      "type": "function"
    },
    {
      "inputs": [],
      "name": "emergencyWithdraw",
      "outputs": [],
      "stateMutability": "nonpayable",
      "type": "function"
    },
    {
      "inputs": [],
      "name": "getContractStats",
      "outputs": [
        {
          "internalType": "uint256",
          "name": "",
          "type": "uint256"
        },
        {
          "internalType": "uint256",
          "name": "",
          "type": "uint256"
        },
        {
          "internalType": "uint256",
          "name": "",
          "type": "uint256"
        }
      ],
      "stateMutability": "view",
      "type": "function"
    },
    {
      "inputs": [
        {
          "internalType": "bytes32",
          "name": "conversationId",
          "type": "bytes32"
        }
      ],
      "name": "getConversation",
      "outputs": [
        {
          "components": [
            {
              "internalType": "address[]",
              "name": "participants",
              "type": "address[]"
            },
            {
              "internalType": "bytes32",
              "name": "conversationKey",
              "type": "bytes32"
            },
            {
              "internalType": "uint256",
              "name": "createdAt",
              "type": "uint256"
            },
            {
              "internalType": "bool",
              "name": "isActive",
              "type": "bool"
            },
            {
              "internalType": "uint256",
              "name": "messageCount",
              "type": "uint256"
            }
          ],
          "internalType": "struct WhisperChain.Conversation",
          "name": "",
          "type": "tuple"
        }
      ],
      "stateMutability": "view",
      "type": "function"
    },
    {
      "inputs": [
        {
          "internalType": "bytes32",
          "name": "messageId",
          "type": "bytes32"
        }
      ],
      "name": "getFileSize",
      "outputs": [
        {
          "internalType": "uint256",
          "name": "",
          "type": "uint256"
        }
      ],
      "stateMutability": "view",
      "type": "function"
    },
    {
      "inputs": [
        {
          "internalType": "bytes32",
          "name": "messageId",
          "type": "bytes32"
        }
      ],
      "name": "getIPFSHash",
      "outputs": [
        {
          "internalType": "string",
          "name": "",
          "type": "string"
        }
      ],
      "stateMutability": "view",
      "type": "function"
    },
    {
      "inputs": [
        {
          "internalType": "bytes32",
          "name": "messageId",
          "type": "bytes32"
        }
      ],
      "name": "getMediaType",
      "outputs": [
        {
          "internalType": "enum WhisperChain.MediaType",
          "name": "",
          "type": "uint8"
        }
      ],
      "stateMutability": "view",
      "type": "function"
    },
    {
      "inputs": [
        {
          "internalType": "bytes32",
          "name": "messageId",
          "type": "bytes32"
        }
      ],
      "name": "getMessage",
      "outputs": [
        {
          "components": [
            {
              "internalType": "address",
              "name": "sender",
              "type": "address"
            },
            {
              "internalType": "address",
              "name": "recipient",
              "type": "address"
            },
            {
              "internalType": "bytes32",
              "name": "messageHash",
              "type": "bytes32"
            },
            {
              "internalType": "uint256",
              "name": "timestamp",
              "type": "uint256"
            },
            {
              "internalType": "bool",
              "name": "delivered",
              "type": "bool"
            },
            {
              "internalType": "bool",
              "name": "read",
              "type": "bool"
            },
            {
              "internalType": "uint256",
              "name": "paymentAmount",
              "type": "uint256"
            },
            {
              "internalType": "address",
              "name": "paymentToken",
              "type": "address"
            },
            {
              "internalType": "string",
              "name": "ipfsHash",
              "type": "string"
            },
            {
              "internalType": "enum WhisperChain.MediaType",
              "name": "mediaType",
              "type": "uint8"
            },
            {
              "internalType": "uint256",
              "name": "fileSize",
              "type": "uint256"
            },
            {
              "internalType": "string",
              "name": "textContent",
              "type": "string"
            }
          ],
          "internalType": "struct WhisperChain.Message",
          "name": "",
          "type": "tuple"
        }
      ],
      "stateMutability": "view",
      "type": "function"
    },
    {
      "inputs": [
        {
          "internalType": "address",
          "name": "user",
          "type": "address"
        }
      ],
      "name": "getRemainingStorage",
      "outputs": [
        {
          "internalType": "uint256",
          "name": "",
          "type": "uint256"
        }
      ],
      "stateMutability": "view",
      "type": "function"
    },
    {
      "inputs": [
        {
          "internalType": "bytes32",
          "name": "messageId",
          "type": "bytes32"
        }
      ],
      "name": "getTextContent",
      "outputs": [
        {
          "internalType": "string",
          "name": "",
          "type": "string"
        }
      ],
      "stateMutability": "view",
      "type": "function"
    },
    {
      "inputs": [
        {
          "internalType": "address",
          "name": "user",
          "type": "address"
        }
      ],
      "name": "getUserMessageCount",
      "outputs": [
        {
          "internalType": "uint256",
          "name": "",
          "type": "uint256"
        }
      ],
      "stateMutability": "view",
      "type": "function"
    },
    {
      "inputs": [
        {
          "internalType": "address",
          "name": "user",
          "type": "address"
        }
      ],
      "name": "getUserMessages",
      "outputs": [
        {
          "internalType": "bytes32[]",
          "name": "",
          "type": "bytes32[]"
        }
      ],
      "stateMutability": "view",
      "type": "function"
    },
    {
      "inputs": [
        {
          "internalType": "address",
          "name": "user",
          "type": "address"
        }
      ],
      "name": "getUserPublicKey",
      "outputs": [
        {
          "internalType": "bytes32",
          "name": "",
          "type": "bytes32"
        }
      ],
      "stateMutability": "view",
      "type": "function"
    },
    {
      "inputs": [
        {
          "internalType": "address",
          "name": "user",
          "type": "address"
        }
      ],
      "name": "getUserStorageUsed",
      "outputs": [
        {
          "internalType": "uint256",
          "name": "",
          "type": "uint256"
        }
      ],
      "stateMutability": "view",
      "type": "function"
    },
    {
      "inputs": [
        {
          "internalType": "string",
          "name": "ipfsHash",
          "type": "string"
        }
      ],
      "name": "isIPFSHashUsed",
      "outputs": [
        {
          "internalType": "bool",
          "name": "",
          "type": "bool"
        }
      ],
      "stateMutability": "view",
      "type": "function"
    },
    {
      "inputs": [
        {
          "internalType": "bytes32",
          "name": "messageId",
          "type": "bytes32"
        }
      ],
      "name": "isMessageDeleted",
      "outputs": [
        {
          "internalType": "bool",
          "name": "",
          "type": "bool"
        }
      ],
      "stateMutability": "view",
      "type": "function"
    },
    {
      "inputs": [
        {
          "internalType": "address",
          "name": "user",
          "type": "address"
        }
      ],
      "name": "isUserRegistered",
      "outputs": [
        {
          "internalType": "bool",
          "name": "",
          "type": "bool"
        }
      ],
      "stateMutability": "view",
      "type": "function"
    },
    {
      "inputs": [
        {
          "internalType": "bytes32",
          "name": "",
          "type": "bytes32"
        }
      ],
      "name": "messageDeleted",
      "outputs": [
        {
          "internalType": "bool",
          "name": "",
          "type": "bool"
        }
      ],
      "stateMutability": "view",
      "type": "function"
    },
    {
      "inputs": [
        {
          "internalType": "bytes32",
          "name": "",
          "type": "bytes32"
        }
      ],
      "name": "messages",
      "outputs": [
        {
          "internalType": "address",
          "name": "sender",
          "type": "address"
        },
        {
          "internalType": "address",
          "name": "recipient",
          "type": "address"
        },
        {
          "internalType": "bytes32",
          "name": "messageHash",
          "type": "bytes32"
        },
        {
          "internalType": "uint256",
          "name": "timestamp",
          "type": "uint256"
        },
        {
          "internalType": "bool",
          "name": "delivered",
          "type": "bool"
        },
        {
          "internalType": "bool",
          "name": "read",
          "type": "bool"
        },
        {
          "internalType": "uint256",
          "name": "paymentAmount",
          "type": "uint256"
        },
        {
          "internalType": "address",
          "name": "paymentToken",
          "type": "address"
        },
        {
          "internalType": "string",
          "name": "ipfsHash",
          "type": "string"
        },
        {
          "internalType": "enum WhisperChain.MediaType",
          "name": "mediaType",
          "type": "uint8"
        },
        {
          "internalType": "uint256",
          "name": "fileSize",
          "type": "uint256"
        },
        {
          "internalType": "string",
          "name": "textContent",
          "type": "string"
        }
      ],
      "stateMutability": "view",
      "type": "function"
    },
    {
      "inputs": [],
      "name": "owner",
      "outputs": [
        {
          "internalType": "address",
          "name": "",
          "type": "address"
        }
      ],
      "stateMutability": "view",
      "type": "function"
    },
    {
      "inputs": [],
      "name": "pause",
      "outputs": [],
      "stateMutability": "nonpayable",
      "type": "function"
    },
    {
      "inputs": [],
      "name": "paused",
      "outputs": [
        {
          "internalType": "bool",
          "name": "",
          "type": "bool"
        }
      ],
      "stateMutability": "view",
      "type": "function"
    },
    {
      "inputs": [
        {
          "internalType": "bytes32",
          "name": "",
          "type": "bytes32"
        }
      ],
      "name": "paymentSettled",
      "outputs": [
        {
          "internalType": "bool",
          "name": "",
          "type": "bool"
        }
      ],
      "stateMutability": "view",
      "type": "function"
    },
    {
      "inputs": [
        {
          "internalType": "bytes32",
          "name": "publicKey",
          "type": "bytes32"
        },
        {
          "internalType": "string",
          "name": "username",
          "type": "string"
        }
      ],
      "name": "registerUser",
      "outputs": [],
      "stateMutability": "nonpayable",
      "type": "function"
    },
    {
      "inputs": [],
      "name": "renounceOwnership",
      "outputs": [],
      "stateMutability": "nonpayable",
      "type": "function"
    },
    {
      "inputs": [
        {
          "internalType": "address[]",
          "name": "recipients",
          "type": "address[]"
        },
        {
          "internalType": "bytes32[]",
          "name": "messageHashes",
          "type": "bytes32[]"
        },
        {
          "internalType": "address[]",
          "name": "paymentTokens",
          "type": "address[]"
        },
        {
          "internalType": "uint256[]",
          "name": "paymentAmounts",
          "type": "uint256[]"
        },
        {
          "internalType": "string[]",
          "name": "ipfsHashes",
          "type": "string[]"
        },
        {
          "internalType": "enum WhisperChain.MediaType[]",
          "name": "mediaTypes",
          "type": "uint8[]"
        },
        {
          "internalType": "uint256[]",
          "name": "fileSizes",
          "type": "uint256[]"
        },
        {
          "internalType": "string[]",
          "name": "textContents",
          "type": "string[]"
        }
      ],
      "name": "sendBatchMessages",
      "outputs": [],
      "stateMutability": "payable",
      "type": "function"
    },
    {
      "inputs": [
        {
          "internalType": "address",
          "name": "recipient",
          "type": "address"
        },
        {
          "internalType": "bytes32",
          "name": "messageHash",
          "type": "bytes32"
        },
        {
          "internalType": "address",
          "name": "paymentToken",
          "type": "address"
        },
        {
          "internalType": "uint256",
          "name": "paymentAmount",
          "type": "uint256"
        },
        {
          "internalType": "string",
          "name": "ipfsHash",
          "type": "string"
        },
        {
          "internalType": "enum WhisperChain.MediaType",
          "name": "mediaType",
          "type": "uint8"
        },
        {
          "internalType": "uint256",
          "name": "fileSize",
          "type": "uint256"
        },
        {
          "internalType": "string",
          "name": "textContent",
          "type": "string"
        }
      ],
      "name": "sendMessage",
      "outputs": [],
      "stateMutability": "payable",
      "type": "function"
    },
    {
      "inputs": [
        {
          "internalType": "address",
          "name": "newOwner",
          "type": "address"
        }
      ],
      "name": "transferOwnership",
      "outputs": [],
      "stateMutability": "nonpayable",
      "type": "function"
    },
    {
      "inputs": [],
      "name": "unpause",
      "outputs": [],
      "stateMutability": "nonpayable",
      "type": "function"
    },
    {
      "inputs": [],
      "name": "updateLastSeen",
      "outputs": [],
      "stateMutability": "nonpayable",
      "type": "function"
    },
    {
      "inputs": [
        {
          "internalType": "bytes32",
          "name": "newPublicKey",
          "type": "bytes32"
        }
      ],
      "name": "updatePublicKey",
      "outputs": [],
      "stateMutability": "nonpayable",
      "type": "function"
    },
    {
      "inputs": [
        {
          "internalType": "string",
          "name": "",
          "type": "string"
        }
      ],
      "name": "usedIPFSHashes",
      "outputs": [
        {
          "internalType": "bool",
          "name": "",
          "type": "bool"
        }
      ],
      "stateMutability": "view",
      "type": "function"
    },
    {
      "inputs": [
        {
          "internalType": "address",
          "name": "",
          "type": "address"
        }
      ],
      "name": "userBalances",
      "outputs": [
        {
          "internalType": "uint256",
          "name": "",
          "type": "uint256"
        }
      ],
      "stateMutability": "view",
      "type": "function"
    },
    {
      "inputs": [
        {
          "internalType": "address",
          "name": "",
          "type": "address"
        },
        {
          "internalType": "uint256",
          "name": "",
          "type": "uint256"
        }
      ],
      "name": "userConversations",
      "outputs": [
        {
          "internalType": "bytes32",
          "name": "",
          "type": "bytes32"
        }
      ],
      "stateMutability": "view",
      "type": "function"
    },
    {
      "inputs": [
        {
          "internalType": "address",
          "name": "",
          "type": "address"
        }
      ],
      "name": "userMessageCount",
      "outputs": [
        {
          "internalType": "uint256",
          "name": "",
          "type": "uint256"
        }
      ],
      "stateMutability": "view",
      "type": "function"
    },
    {
      "inputs": [
        {
          "internalType": "address",
          "name": "",
          "type": "address"
        },
        {
          "internalType": "uint256",
          "name": "",
          "type": "uint256"
        }
      ],
      "name": "userMessages",
      "outputs": [
        {
          "internalType": "bytes32",
          "name": "",
          "type": "bytes32"
        }
      ],
      "stateMutability": "view",
      "type": "function"
    },
    {
      "inputs": [
        {
          "internalType": "address",
          "name": "",
          "type": "address"
        }
      ],
      "name": "userProfiles",
      "outputs": [
        {
          "internalType": "bytes32",
          "name": "publicKey",
          "type": "bytes32"
        },
        {
          "internalType": "bool",
          "name": "isActive",
          "type": "bool"
        },
        {
          "internalType": "uint256",
          "name": "lastSeen",
          "type": "uint256"
        },
        {
          "internalType": "string",
          "name": "username",
          "type": "string"
        }
      ],
      "stateMutability": "view",
      "type": "function"
    },
    {
      "inputs": [
        {
          "internalType": "address",
          "name": "",
          "type": "address"
        }
      ],
      "name": "userStorageUsed",
      "outputs": [
        {
          "internalType": "uint256",
          "name": "",
          "type": "uint256"
        }
      ],
      "stateMutability": "view",
      "type": "function"
    },
    {
      "inputs": [],
      "name": "withdrawBalance",
      "outputs": [],
      "stateMutability": "nonpayable",
      "type": "function"
    },
    {
      "stateMutability": "payable",
      "type": "receive"
    }
  ],
  "bytecode": "0x608060405234801561001057600080fd5b50600160005561001f3361004a565b6001805460ff60a01b19169055604080516020810190915260008082526100459161009c565b61029d565b600180546001600160a01b038381166001600160a01b0319831681179093556040519116919082907f8be0079c531659141344cd1fd0a4f28419497f9722a3daafe3b4186f6b6457e090600090a35050565b6040805160808101825283815260016020808301828152428486019081526060850187815233600090815260029485905296909620855181559151938201805460ff1916941515949094179093559151908201559151909190600382019061010490826101df565b50506040518381523391507f4c5d15f5779ae1ecd7d55bd3283d898e29c35743d172bd7b83a16e17bc0afe2a9060200160405180910390a25050565b634e487b7160e01b600052604160045260246000fd5b600181811c9082168061016a57607f821691505b60208210810361018a57634e487b7160e01b600052602260045260246000fd5b50919050565b601f8211156101da57806000526020600020601f840160051c810160208510156101b75750805b601f840160051c820191505b818110156101d757600081556001016101c3565b50505b505050565b81516001600160401b038111156101f8576101f8610140565b61020c816102068454610156565b84610190565b6020601f82116001811461024057600083156102285750848201515b600019600385901b1c1916600184901b1784556101d7565b600084815260208120601f198516915b828110156102705787850151825560209485019460019092019101610250565b508482101561028e5786840151600019600387901b60f8161c191681555b50505050600190811b01905550565b6141b3806102ac6000396000f3fe6080604052600436106102765760003560e01c80636eca16651161014f578063c3b68fba116100c1578063db2e21bc1161007a578063db2e21bc14610878578063dfe6b5d61461088d578063e968e83d146108b8578063f2fde38b146108d8578063fcaadf56146108f8578063fe1e3eca1461096857600080fd5b8063c3b68fba14610778578063c462a5121461078b578063ccfd55e7146107cb578063d3bb8b96146107eb578063d91dd84f1461081b578063d92fa3141461084857600080fd5b80638da5cb5b116101135780638da5cb5b1461069b5780639428cda3146106c3578063964db8f5146106e357806398d63d3d146106fb57806399b0645414610728578063b206c4461461074857600080fd5b80636eca166514610608578063715018a61461061b5780637f635fa6146106305780638456cb591461066657806388f12d271461067b57600080fd5b8063332d56d7116101e85780635a506ebc116101ac5780635a506ebc1461054d5780635a9baf371461057a5780635c975abb146105925780635fd8c710146105b157806369bd38a0146105c65780636c90d39f146105db57600080fd5b8063332d56d7146104975780633f4ba83a146104c7578063462f4a3e146104dc5780634a54315c14610517578063541d5f031461053757600080fd5b806326224c641161023a57806326224c641461038f57806328b5238d146103bc5780632b659bfb146103dc5780632bbd59ca146104125780632ed5ef141461044a578063332346301461047757600080fd5b80630139a221146102825780630f2cb69d146102b857806311231fe0146102f8578063163f75221461033c5780631ddd58f11461037857600080fd5b3661027d57005b600080fd5b34801561028e57600080fd5b506102a261029d3660046134e5565b610988565b6040516102af9190613586565b60405180910390f35b3480156102c457600080fd5b506102e86102d33660046134e5565b60076020526000908152604090205460ff1681565b60405190151581526020016102af565b34801561030457600080fd5b5061032e61031336600461369b565b6001600160a01b031660009081526002602052604090205490565b6040519081526020016102af565b34801561034857600080fd5b506102e861035736600461369b565b6001600160a01b031660009081526002602052604090206001015460ff1690565b34801561038457600080fd5b5061038d610bdc565b005b34801561039b57600080fd5b5061032e6103aa36600461369b565b60086020526000908152604090205481565b3480156103c857600080fd5b5061038d6103d736600461379a565b610c2f565b3480156103e857600080fd5b5061032e6103f736600461369b565b6001600160a01b03166000908152600a602052604090205490565b34801561041e57600080fd5b5061043261042d3660046134e5565b610ef0565b6040516102af9c9b9a999897969594939291906137de565b34801561045657600080fd5b5061046a6104653660046134e5565b61107c565b6040516102af919061387f565b34801561048357600080fd5b5061046a6104923660046134e5565b611121565b3480156104a357600080fd5b506104b76104b236600461369b565b611141565b6040516102af9493929190613892565b3480156104d357600080fd5b5061038d6111f7565b3480156104e857600080fd5b506102e86104f7366004613932565b8051602081830181018051600b8252928201919093012091525460ff1681565b34801561052357600080fd5b5061038d61053236600461396e565b611209565b34801561054357600080fd5b5061032e61271081565b34801561055957600080fd5b5061032e61056836600461369b565b600a6020526000908152604090205481565b34801561058657600080fd5b5061032e6302faf08081565b34801561059e57600080fd5b50600154600160a01b900460ff166102e8565b3480156105bd57600080fd5b5061038d6112bc565b3480156105d257600080fd5b5061038d6113f3565b3480156105e757600080fd5b506105fb6105f63660046134e5565b611437565b6040516102af91906139f9565b61038d610616366004613b9f565b611509565b34801561062757600080fd5b5061038d6123b1565b34801561063c57600080fd5b5061032e61064b36600461369b565b6001600160a01b03166000908152600c602052604090205490565b34801561067257600080fd5b5061038d6123c3565b34801561068757600080fd5b5061032e61069636600461369b565b6123d3565b3480156106a757600080fd5b506001546040516001600160a01b0390911681526020016102af565b3480156106cf57600080fd5b5061032e6106de366004613d06565b612400565b3480156106ef57600080fd5b5061032e633b9aca0081565b34801561070757600080fd5b5061071b61071636600461369b565b612431565b6040516102af9190613d30565b34801561073457600080fd5b5061038d6107433660046134e5565b61249c565b34801561075457600080fd5b506102e86107633660046134e5565b60009081526009602052604090205460ff1690565b61038d610786366004613d73565b61252b565b34801561079757600080fd5b506107be6107a63660046134e5565b60009081526003602052604090206008015460ff1690565b6040516102af9190613e19565b3480156107d757600080fd5b5061032e6107e6366004613d06565b612e51565b3480156107f757600080fd5b5061032e6108063660046134e5565b60009081526003602052604090206009015490565b34801561082757600080fd5b5061032e61083636600461369b565b600c6020526000908152604090205481565b34801561085457600080fd5b506102e86108633660046134e5565b60096020526000908152604090205460ff1681565b34801561088457600080fd5b5061038d612e6d565b34801561089957600080fd5b50604080516000808252602082015247918101919091526060016102af565b3480156108c457600080fd5b506102e86108d3366004613932565b612f70565b3480156108e457600080fd5b5061038d6108f336600461369b565b612f9b565b34801561090457600080fd5b506109426109133660046134e5565b6004602081905260009182526040909120600181015460028201546003830154929093015490929160ff169084565b6040805194855260208501939093529015159183019190915260608201526080016102af565b34801561097457600080fd5b5061038d6109833660046134e5565b613014565b6109ed604080516101808101825260008082526020820181905291810182905260608082018390526080820183905260a0820183905260c0820183905260e0820183905261010082015290610120820190815260200160008152602001606081525090565b60008281526003602081815260409283902083516101808101855281546001600160a01b0390811682526001830154811693820193909352600282015494810194909452918201546060840152600482015460ff808216151560808601526101009182900416151560a0850152600583015460c0850152600683015490911660e084015260078201805491840191610a8490613e27565b80601f0160208091040260200160405190810160405280929190818152602001828054610ab090613e27565b8015610afd5780601f10610ad257610100808354040283529160200191610afd565b820191906000526020600020905b815481529060010190602001808311610ae057829003601f168201915b5050509183525050600882015460209091019060ff166004811115610b2457610b2461354e565b6004811115610b3557610b3561354e565b815260200160098201548152602001600a82018054610b5390613e27565b80601f0160208091040260200160405190810160405280929190818152602001828054610b7f90613e27565b8015610bcc5780601f10610ba157610100808354040283529160200191610bcc565b820191906000526020600020905b815481529060010190602001808311610baf57829003601f168201915b5050505050815250509050919050565b3360009081526002602052604090206001015460ff16610c175760405162461bcd60e51b8152600401610c0e90613e61565b60405180910390fd5b33600090815260026020819052604090912042910155565b3360009081526002602052604090206001015460ff16610c615760405162461bcd60e51b8152600401610c0e90613e61565b600282511015610cb35760405162461bcd60e51b815260206004820152601c60248201527f4e656564206174206c656173742032207061727469636970616e7473000000006044820152606401610c0e565b80610d005760405162461bcd60e51b815260206004820152601860248201527f496e76616c696420636f6e766572736174696f6e206b657900000000000000006044820152606401610c0e565b60005b8251811015610da05760026000848381518110610d2257610d22613e8e565b6020908102919091018101516001600160a01b031682528101919091526040016000206001015460ff16610d985760405162461bcd60e51b815260206004820152601a60248201527f5061727469636970616e74206e6f7420726567697374657265640000000000006044820152606401610c0e565b600101610d03565b506000828242604051602001610db893929190613ea4565b60408051601f19818403018152828252805160209182012060a0840183528684528382018690524284840152600160608501526000608085018190528181526004835292909220835180519395509092610e15928492019061346b565b506020820151600182015560408201516002820155606082015160038201805460ff191691151591909117905560809091015160049091015560005b8351811015610eb25760066000858381518110610e7057610e70613e8e565b6020908102919091018101516001600160a01b031682528181019290925260400160009081208054600181810183559183529290912090910183905501610e51565b50807f77521a8f8fdd167d0f112b1336664ec6b6887c6fbc4240968083377f473694d284604051610ee39190613eed565b60405180910390a2505050565b6003602081905260009182526040909120805460018201546002830154938301546004840154600585015460068601546007870180546001600160a01b0397881699968816989697959660ff808716976101009097041695909316929190610f5790613e27565b80601f0160208091040260200160405190810160405280929190818152602001828054610f8390613e27565b8015610fd05780601f10610fa557610100808354040283529160200191610fd0565b820191906000526020600020905b815481529060010190602001808311610fb357829003601f168201915b5050505060088301546009840154600a85018054949560ff9093169491935090610ff990613e27565b80601f016020809104026020016040519081016040528092919081815260200182805461102590613e27565b80156110725780601f1061104757610100808354040283529160200191611072565b820191906000526020600020905b81548152906001019060200180831161105557829003601f168201915b505050505090508c565b600081815260036020526040902060070180546060919061109c90613e27565b80601f01602080910402602001604051908101604052809291908181526020018280546110c890613e27565b80156111155780601f106110ea57610100808354040283529160200191611115565b820191906000526020600020905b8154815290600101906020018083116110f857829003601f168201915b50505050509050919050565b6000818152600360205260409020600a0180546060919061109c90613e27565b60026020819052600091825260409091208054600182015492820154600383018054929460ff1693919261117490613e27565b80601f01602080910402602001604051908101604052809291908181526020018280546111a090613e27565b80156111ed5780601f106111c2576101008083540402835291602001916111ed565b820191906000526020600020905b8154815290600101906020018083116111d057829003601f168201915b5050505050905084565b6111ff61318d565b6112076131e7565b565b3360009081526002602052604090206001015460ff161561126c5760405162461bcd60e51b815260206004820152601760248201527f5573657220616c726561647920726567697374657265640000000000000000006044820152606401610c0e565b816112ae5760405162461bcd60e51b8152602060048201526012602482015271496e76616c6964207075626c6963206b657960701b6044820152606401610c0e565b6112b8828261323c565b5050565b3360009081526002602052604090206001015460ff166112ee5760405162461bcd60e51b8152600401610c0e90613e61565b6112f66132e0565b336000908152600860205260409020548061134c5760405162461bcd60e51b81526020600482015260166024820152754e6f2062616c616e636520746f20776974686472617760501b6044820152606401610c0e565b336000818152600860205260408082208290555190919083908381818185875af1925050503d806000811461139d576040519150601f19603f3d011682016040523d82523d6000602084013e6113a2565b606091505b50509050806113e75760405162461bcd60e51b815260206004820152601160248201527015da5d1a191c985dd85b0819985a5b1959607a1b6044820152606401610c0e565b50506112076001600055565b3360009081526002602052604090206001015460ff166114255760405162461bcd60e51b8152600401610c0e90613e61565b336000908152600c6020526040812055565b6040805160a0810182526060808252600060208301819052928201839052810182905260808101919091526000828152600460209081526040918290208251815460c09381028201840190945260a0810184815290939192849284918401828280156114cc57602002820191906000526020600020905b81546001600160a01b031681526001909101906020018083116114ae575b50505091835250506001820154602082015260028201546040820152600382015460ff161515606082015260049091015460809091015292915050565b3360009081526002602052604090206001015460ff1661153b5760405162461bcd60e51b8152600401610c0e90613e61565b6115436132e0565b61154b613339565b865188511461156c5760405162461bcd60e51b8152600401610c0e90613f00565b855188511461158d5760405162461bcd60e51b8152600401610c0e90613f00565b84518851146115ae5760405162461bcd60e51b8152600401610c0e90613f00565b83518851146115cf5760405162461bcd60e51b8152600401610c0e90613f00565b82518851146115f05760405162461bcd60e51b8152600401610c0e90613f00565b81518851146116115760405162461bcd60e51b8152600401610c0e90613f00565b80518851146116325760405162461bcd60e51b8152600401610c0e90613f00565b600a885111156116845760405162461bcd60e51b815260206004820152601a60248201527f546f6f206d616e79206d6573736167657320696e2062617463680000000000006044820152606401610c0e565b600088516001600160401b0381111561169f5761169f6136bd565b6040519080825280602002602001820160405280156116c8578160200160208202803683370190505b50905060005b895181101561233b5760006001600160a01b03168a82815181106116f4576116f4613e8e565b60200260200101516001600160a01b0316036117465760405162461bcd60e51b8152602060048201526011602482015270125b9d985b1a59081c9958da5c1a595b9d607a1b6044820152606401610c0e565b336001600160a01b03168a828151811061176257611762613e8e565b60200260200101516001600160a01b0316036117b65760405162461bcd60e51b815260206004820152601360248201527221b0b73737ba1039b2b732103a379039b2b63360691b6044820152606401610c0e565b600260008b83815181106117cc576117cc613e8e565b6020908102919091018101516001600160a01b031682528101919091526040016000206001015460ff1661183d5760405162461bcd60e51b8152602060048201526018602482015277149958da5c1a595b9d081b9bdd081c9959da5cdd195c995960421b6044820152606401610c0e565b6000801b89828151811061185357611853613e8e565b60200260200101510361189f5760405162461bcd60e51b8152602060048201526014602482015273092dcecc2d8d2c840dacae6e6c2ceca40d0c2e6d60631b6044820152606401610c0e565b60008582815181106118b3576118b3613e8e565b602002602001015160048111156118cc576118cc61354e565b036119c45760008382815181106118e5576118e5613e8e565b6020026020010151511161190b5760405162461bcd60e51b8152600401610c0e90613f2f565b600086828151811061191f5761191f613e8e565b60200260200101515111801561196e5750600b86828151811061194457611944613e8e565b60200260200101516040516119599190613f76565b9081526040519081900360200190205460ff16155b156119bf576001600b87838151811061198957611989613e8e565b602002602001015160405161199e9190613f76565b908152604051908190036020019020805491151560ff199092169190911790555b611b74565b60008682815181106119d8576119d8613e8e565b602002602001015151116119fe5760405162461bcd60e51b8152600401610c0e90613f92565b600b868281518110611a1257611a12613e8e565b6020026020010151604051611a279190613f76565b9081526040519081900360200190205460ff1615611a805760405162461bcd60e51b815260206004820152601660248201527512541194c81a185cda08185b1c9958591e481d5cd95960521b6044820152606401610c0e565b6302faf080848281518110611a9757611a97613e8e565b60200260200101511115611ade5760405162461bcd60e51b815260206004820152600e60248201526d46696c6520746f6f206c6172676560901b6044820152606401610c0e565b633b9aca00848281518110611af557611af5613e8e565b6020026020010151600c6000336001600160a01b03166001600160a01b0316815260200190815260200160002054611b2d9190613fed565b1115611b745760405162461bcd60e51b815260206004820152601660248201527514dd1bdc9859d9481b1a5b5a5d08195e18d95959195960521b6044820152606401610c0e565b6000338b8381518110611b8957611b89613e8e565b60200260200101518b8481518110611ba357611ba3613e8e565b6020908102919091018101516040516bffffffffffffffffffffffff19606095861b8116938201939093529290931b166034820152604881019190915242606882015243608882015260a8810183905260c8016040516020818303038152906040528051906020012090506000888381518110611c2257611c22613e8e565b60200260200101511115611f0f5760006001600160a01b0316898381518110611c4d57611c4d613e8e565b60200260200101516001600160a01b031603611d9857878281518110611c7557611c75613e8e565b6020026020010151341015611cc75760405162461bcd60e51b8152602060048201526018602482015277125b9cdd59999a58da595b9d08115512081c185e5b595b9d60421b6044820152606401610c0e565b60008b8381518110611cdb57611cdb613e8e565b60200260200101516001600160a01b0316898481518110611cfe57611cfe613e8e565b602002602001015160405160006040518083038185875af1925050503d8060008114611d46576040519150601f19603f3d011682016040523d82523d6000602084013e611d4b565b606091505b5050905080611d925760405162461bcd60e51b8152602060048201526013602482015272115512081d1c985b9cd9995c8819985a5b1959606a1b6044820152606401610c0e565b50611ebb565b6000898381518110611dac57611dac613e8e565b60200260200101519050806001600160a01b03166323b872dd338e8681518110611dd857611dd8613e8e565b60200260200101518c8781518110611df257611df2613e8e565b60209081029190910101516040516001600160e01b031960e086901b1681526001600160a01b03938416600482015292909116602483015260448201526064016020604051808303816000875af1158015611e51573d6000803e3d6000fd5b505050506040513d601f19601f82011682018060405250810190611e759190614000565b611eb95760405162461bcd60e51b8152602060048201526015602482015274151bdad95b881d1c985b9cd9995c8819985a5b1959605a1b6044820152606401610c0e565b505b807f59dcd7f7740501f043c7fdd2559d35e50b1c6d9cfa1c72352bbcccfc45467554898481518110611eef57611eef613e8e565b6020026020010151604051611f0691815260200190565b60405180910390a25b604051806101800160405280336001600160a01b031681526020018c8481518110611f3c57611f3c613e8e565b60200260200101516001600160a01b031681526020018b8481518110611f6457611f64613e8e565b60200260200101518152602001428152602001600015158152602001600015158152602001898481518110611f9b57611f9b613e8e565b602002602001015181526020018a8481518110611fba57611fba613e8e565b60200260200101516001600160a01b03168152602001888481518110611fe257611fe2613e8e565b6020026020010151815260200187848151811061200157612001613e8e565b6020026020010151600481111561201a5761201a61354e565b815260200186848151811061203157612031613e8e565b6020026020010151815260200185848151811061205057612050613e8e565b60209081029190910181015190915260008381526003808352604091829020845181546001600160a01b03199081166001600160a01b03928316178355948601516001830180548716918316919091179055928501516002820155606085015191810191909155608084015160048201805460a087015161ffff1990911692151561ff00191692909217610100921515830217905560c0850151600583015560e085015160068301805490951693169290921790925582015160078201906121189082614071565b5061012082015160088201805460ff1916600183600481111561213d5761213d61354e565b02179055506101408201516009820155610160820151600a8201906121629082614071565b505033600090815260056020818152604083208054600181018255908452908320018490558d519092508d908590811061219e5761219e613e8e565b6020908102919091018101516001600160a01b03168252818101929092526040016000908120805460018101825590825291902001819055825181908490849081106121ec576121ec613e8e565b602002602001018181525050600087838151811061220c5761220c613e8e565b60200260200101515111801561225b5750600b87838151811061223157612231613e8e565b60200260200101516040516122469190613f76565b9081526040519081900360200190205460ff16155b156122ac576001600b88848151811061227657612276613e8e565b602002602001015160405161228b9190613f76565b908152604051908190036020019020805491151560ff199092169190911790555b60008683815181106122c0576122c0613e8e565b602002602001015160048111156122d9576122d961354e565b14612332578482815181106122f0576122f0613e8e565b6020026020010151600c6000336001600160a01b03166001600160a01b03168152602001908152602001600020600082825461232c9190613fed565b90915550505b506001016116ce565b508851336000908152600a60205260408120805490919061235d908490613fed565b909155505060405133907fb86ae99ed5193dc66280d13677675bd13564a983809d971c92de3bf5049bbe1990612394908490613d30565b60405180910390a2506123a76001600055565b5050505050505050565b6123b961318d565b6112076000613386565b6123cb61318d565b6112076133d8565b6001600160a01b0381166000908152600c60205260408120546123fa90633b9aca0061412f565b92915050565b6005602052816000526040600020818154811061241c57600080fd5b90600052602060002001600091509150505481565b6001600160a01b03811660009081526005602090815260409182902080548351818402810184019094528084526060939283018282801561111557602002820191906000526020600020905b81548152602001906001019080831161247d5750505050509050919050565b3360009081526002602052604090206001015460ff166124ce5760405162461bcd60e51b8152600401610c0e90613e61565b806125105760405162461bcd60e51b8152602060048201526012602482015271496e76616c6964207075626c6963206b657960701b6044820152606401610c0e565b33600090815260026020819052604090912091825542910155565b3360009081526002602052604090206001015460ff1661255d5760405162461bcd60e51b8152600401610c0e90613e61565b6125656132e0565b61256d613339565b6001600160a01b0388166125b75760405162461bcd60e51b8152602060048201526011602482015270125b9d985b1a59081c9958da5c1a595b9d607a1b6044820152606401610c0e565b336001600160a01b038916036126055760405162461bcd60e51b815260206004820152601360248201527221b0b73737ba1039b2b732103a379039b2b63360691b6044820152606401610c0e565b6001600160a01b03881660009081526002602052604090206001015460ff1661266b5760405162461bcd60e51b8152602060048201526018602482015277149958da5c1a595b9d081b9bdd081c9959da5cdd195c995960421b6044820152606401610c0e565b866126af5760405162461bcd60e51b8152602060048201526014602482015273092dcecc2d8d2c840dacae6e6c2ceca40d0c2e6d60631b6044820152606401610c0e565b336000908152600a60205260409020546127101161270f5760405162461bcd60e51b815260206004820152601b60248201527f55736572206d657373616765206c696d697420657863656564656400000000006044820152606401610c0e565b60008360048111156127235761272361354e565b036127b75760008151116127495760405162461bcd60e51b8152600401610c0e90613f2f565b6000845111801561277a5750600b846040516127659190613f76565b9081526040519081900360200190205460ff16155b156127b2576001600b856040516127919190613f76565b908152604051908190036020019020805491151560ff199092169190911790555b6128ee565b60008451116127d85760405162461bcd60e51b8152600401610c0e90613f92565b600b846040516127e89190613f76565b9081526040519081900360200190205460ff16156128415760405162461bcd60e51b815260206004820152601660248201527512541194c81a185cda08185b1c9958591e481d5cd95960521b6044820152606401610c0e565b6302faf0808211156128865760405162461bcd60e51b815260206004820152600e60248201526d46696c6520746f6f206c6172676560901b6044820152606401610c0e565b336000908152600c6020526040902054633b9aca00906128a7908490613fed565b11156128ee5760405162461bcd60e51b815260206004820152601660248201527514dd1bdc9859d9481b1a5b5a5d08195e18d95959195960521b6044820152606401610c0e565b6040516bffffffffffffffffffffffff1933606090811b821660208401528a901b1660348201526048810188905242606882015243608882015260009060a8016040516020818303038152906040528051906020012090506000861115612b44576001600160a01b038716612a4757853410156129a85760405162461bcd60e51b8152602060048201526018602482015277125b9cdd59999a58da595b9d08115512081c185e5b595b9d60421b6044820152606401610c0e565b6000896001600160a01b03168760405160006040518083038185875af1925050503d80600081146129f5576040519150601f19603f3d011682016040523d82523d6000602084013e6129fa565b606091505b5050905080612a415760405162461bcd60e51b8152602060048201526013602482015272115512081d1c985b9cd9995c8819985a5b1959606a1b6044820152606401610c0e565b50612b09565b6040516323b872dd60e01b81523360048201526001600160a01b038a81166024830152604482018890528891908216906323b872dd906064016020604051808303816000875af1158015612a9f573d6000803e3d6000fd5b505050506040513d601f19601f82011682018060405250810190612ac39190614000565b612b075760405162461bcd60e51b8152602060048201526015602482015274151bdad95b881d1c985b9cd9995c8819985a5b1959605a1b6044820152606401610c0e565b505b807f59dcd7f7740501f043c7fdd2559d35e50b1c6d9cfa1c72352bbcccfc4546755487604051612b3b91815260200190565b60405180910390a25b604051806101800160405280336001600160a01b031681526020018a6001600160a01b03168152602001898152602001428152602001600015158152602001600015158152602001878152602001886001600160a01b03168152602001868152602001856004811115612bb957612bb961354e565b8152602080820186905260409182018590526000848152600380835290839020845181546001600160a01b03199081166001600160a01b03928316178355938601516001830180548616918316919091179055938501516002820155606085015191810191909155608084015160048201805460a087015161ffff1990911692151561ff00191692909217610100921515830217905560c0850151600583015560e0850151600683018054909416941693909317909155908201516007820190612c839082614071565b5061012082015160088201805460ff19166001836004811115612ca857612ca861354e565b02179055506101408201516009820155610160820151600a820190612ccd9082614071565b5050336000818152600560209081526040808320805460018181018355918552838520018790556001600160a01b038f16845281842080549182018155845282842001869055928252600a90529081208054925090612d2b83614142565b919050555060008551118015612d615750600b85604051612d4c9190613f76565b9081526040519081900360200190205460ff16155b15612d99576001600b86604051612d789190613f76565b908152604051908190036020019020805491151560ff199092169190911790555b6000846004811115612dad57612dad61354e565b14612dd757336000908152600c602052604081208054859290612dd1908490613fed565b90915550505b60408051428152602081018890526001600160a01b038b1691339184917f3f25921f9859dd3aa049d420d41e16cc17afef0f1bc7994033679dd72865cda2910160405180910390a4807f5d21d37bf37daf68715464be18dd14c0fc968d8693d617680606c709fe106d23868660405161239492919061415b565b6006602052816000526040600020818154811061241c57600080fd5b612e7561318d565b4780612ebc5760405162461bcd60e51b81526020600482015260166024820152754e6f2062616c616e636520746f20776974686472617760501b6044820152606401610c0e565b6000612ed06001546001600160a01b031690565b6001600160a01b03168260405160006040518083038185875af1925050503d8060008114612f1a576040519150601f19603f3d011682016040523d82523d6000602084013e612f1f565b606091505b50509050806112b85760405162461bcd60e51b815260206004820152601b60248201527f456d657267656e6379207769746864726177616c206661696c656400000000006044820152606401610c0e565b6000600b82604051612f829190613f76565b9081526040519081900360200190205460ff1692915050565b612fa361318d565b6001600160a01b0381166130085760405162461bcd60e51b815260206004820152602660248201527f4f776e61626c653a206e6577206f776e657220697320746865207a65726f206160448201526564647265737360d01b6064820152608401610c0e565b61301181613386565b50565b60008181526003602052604090205481906001600160a01b03166130735760405162461bcd60e51b815260206004820152601660248201527513595cdcd859d948191bd95cc81b9bdd08195e1a5cdd60521b6044820152606401610c0e565b600082815260096020526040902054829060ff16156130c65760405162461bcd60e51b815260206004820152600f60248201526e13595cdcd859d94819195b195d1959608a1b6044820152606401610c0e565b600083815260036020526040902080546001600160a01b03163314806130f8575060018101546001600160a01b031633145b6131445760405162461bcd60e51b815260206004820152601860248201527f4e6f7420617574686f72697a656420746f2064656c65746500000000000000006044820152606401610c0e565b600084815260096020526040808220805460ff1916600117905551339186917fdb5031387d41bf5edf2cc7c9f161d7cfc8095d67ad6eec15cd99149dcdafc0939190a350505050565b6001546001600160a01b031633146112075760405162461bcd60e51b815260206004820181905260248201527f4f776e61626c653a2063616c6c6572206973206e6f7420746865206f776e65726044820152606401610c0e565b6131ef61341b565b6001805460ff60a01b191690557f5db9ee0a495bf2e6ff9c91a7834c1ba4fdd244a5e8aa4e537bd38aeae4b073aa335b6040516001600160a01b03909116815260200160405180910390a1565b6040805160808101825283815260016020808301828152428486019081526060850187815233600090815260029485905296909620855181559151938201805460ff191694151594909417909355915190820155915190919060038201906132a49082614071565b50506040518381523391507f4c5d15f5779ae1ecd7d55bd3283d898e29c35743d172bd7b83a16e17bc0afe2a9060200160405180910390a25050565b6002600054036133325760405162461bcd60e51b815260206004820152601f60248201527f5265656e7472616e637947756172643a207265656e7472616e742063616c6c006044820152606401610c0e565b6002600055565b600154600160a01b900460ff16156112075760405162461bcd60e51b815260206004820152601060248201526f14185d5cd8589b194e881c185d5cd95960821b6044820152606401610c0e565b600180546001600160a01b038381166001600160a01b0319831681179093556040519116919082907f8be0079c531659141344cd1fd0a4f28419497f9722a3daafe3b4186f6b6457e090600090a35050565b6133e0613339565b6001805460ff60a01b1916600160a01b1790557f62e78cea01bee320cd4e420270b5ea74000d11b0c9f74754ebdbfc544b05a25861321f3390565b600154600160a01b900460ff166112075760405162461bcd60e51b815260206004820152601460248201527314185d5cd8589b194e881b9bdd081c185d5cd95960621b6044820152606401610c0e565b8280548282559060005260206000209081019282156134c0579160200282015b828111156134c057825182546001600160a01b0319166001600160a01b0390911617825560209092019160019091019061348b565b506134cc9291506134d0565b5090565b5b808211156134cc57600081556001016134d1565b6000602082840312156134f757600080fd5b5035919050565b60005b83811015613519578181015183820152602001613501565b50506000910152565b6000815180845261353a8160208601602086016134fe565b601f01601f19169290920160200192915050565b634e487b7160e01b600052602160045260246000fd5b6005811061358257634e487b7160e01b600052602160045260246000fd5b9052565b602081526135a06020820183516001600160a01b03169052565b600060208301516135bc60408401826001600160a01b03169052565b50604083015160608301526060830151608083015260808301516135e460a084018215159052565b5060a083015180151560c08401525060c083015160e083015260e08301516136186101008401826001600160a01b03169052565b506101008301516101806101208401526136366101a0840182613522565b905061012084015161364c610140850182613564565b50610140840151610160840152610160840151601f19848303016101808501526136768282613522565b95945050505050565b80356001600160a01b038116811461369657600080fd5b919050565b6000602082840312156136ad57600080fd5b6136b68261367f565b9392505050565b634e487b7160e01b600052604160045260246000fd5b604051601f8201601f191681016001600160401b03811182821017156136fb576136fb6136bd565b604052919050565b60006001600160401b0382111561371c5761371c6136bd565b5060051b60200190565b600082601f83011261373757600080fd5b813561374a61374582613703565b6136d3565b8082825260208201915060208360051b86010192508583111561376c57600080fd5b602085015b83811015613790576137828161367f565b835260209283019201613771565b5095945050505050565b600080604083850312156137ad57600080fd5b82356001600160401b038111156137c357600080fd5b6137cf85828601613726565b95602094909401359450505050565b6001600160a01b038d811682528c166020820152604081018b9052606081018a9052881515608082015287151560a08201528660c082015261382b60e08201876001600160a01b03169052565b6101806101008201526000613844610180830187613522565b613852610120840187613564565b8461014084015282810361016084015261386c8185613522565b9f9e505050505050505050505050505050565b6020815260006136b66020830184613522565b84815283151560208201528260408201526080606082015260006138b96080830184613522565b9695505050505050565b600082601f8301126138d457600080fd5b81356001600160401b038111156138ed576138ed6136bd565b613900601f8201601f19166020016136d3565b81815284602083860101111561391557600080fd5b816020850160208301376000918101602001919091529392505050565b60006020828403121561394457600080fd5b81356001600160401b0381111561395a57600080fd5b613966848285016138c3565b949350505050565b6000806040838503121561398157600080fd5b8235915060208301356001600160401b0381111561399e57600080fd5b6139aa858286016138c3565b9150509250929050565b600081518084526020840193506020830160005b828110156139ef5781516001600160a01b03168652602095860195909101906001016139c8565b5093949350505050565b602081526000825160a06020840152613a1560c08401826139b4565b90506020840151604084015260408401516060840152606084015115156080840152608084015160a08401528091505092915050565b600082601f830112613a5c57600080fd5b8135613a6a61374582613703565b8082825260208201915060208360051b860101925085831115613a8c57600080fd5b602085015b83811015613790578035835260209283019201613a91565b600082601f830112613aba57600080fd5b8135613ac861374582613703565b8082825260208201915060208360051b860101925085831115613aea57600080fd5b602085015b838110156137905780356001600160401b03811115613b0d57600080fd5b613b1c886020838a01016138c3565b84525060209283019201613aef565b80356005811061369657600080fd5b600082601f830112613b4b57600080fd5b8135613b5961374582613703565b8082825260208201915060208360051b860101925085831115613b7b57600080fd5b602085015b8381101561379057613b9181613b2b565b835260209283019201613b80565b600080600080600080600080610100898b031215613bbc57600080fd5b88356001600160401b03811115613bd257600080fd5b613bde8b828c01613726565b98505060208901356001600160401b03811115613bfa57600080fd5b613c068b828c01613a4b565b97505060408901356001600160401b03811115613c2257600080fd5b613c2e8b828c01613726565b96505060608901356001600160401b03811115613c4a57600080fd5b613c568b828c01613a4b565b95505060808901356001600160401b03811115613c7257600080fd5b613c7e8b828c01613aa9565b94505060a08901356001600160401b03811115613c9a57600080fd5b613ca68b828c01613b3a565b93505060c08901356001600160401b03811115613cc257600080fd5b613cce8b828c01613a4b565b92505060e08901356001600160401b03811115613cea57600080fd5b613cf68b828c01613aa9565b9150509295985092959890939650565b60008060408385031215613d1957600080fd5b613d228361367f565b946020939093013593505050565b602080825282518282018190526000918401906040840190835b81811015613d68578351835260209384019390920191600101613d4a565b509095945050505050565b600080600080600080600080610100898b031215613d9057600080fd5b613d998961367f565b975060208901359650613dae60408a0161367f565b95506060890135945060808901356001600160401b03811115613dd057600080fd5b613ddc8b828c016138c3565b945050613deb60a08a01613b2b565b925060c0890135915060e08901356001600160401b03811115613e0d57600080fd5b613cf68b828c016138c3565b602081016123fa8284613564565b600181811c90821680613e3b57607f821691505b602082108103613e5b57634e487b7160e01b600052602260045260246000fd5b50919050565b602080825260139082015272155cd95c881b9bdd081c9959da5cdd195c9959606a1b604082015260600190565b634e487b7160e01b600052603260045260246000fd5b8351600090829060208701835b82811015613ed85781516001600160a01b0316845260209384019390910190600101613eb1565b50505093845250506020820152604001919050565b6020815260006136b660208301846139b4565b602080825260159082015274082e4e4c2f240d8cadccee8d040dad2e6dac2e8c6d605b1b604082015260600190565b60208082526027908201527f5465787420636f6e74656e7420726571756972656420666f722054455854206d6040820152666573736167657360c81b606082015260800190565b60008251613f888184602087016134fe565b9190910192915050565b60208082526025908201527f49504653206861736820726571756972656420666f72206d65646961206d6573604082015264736167657360d81b606082015260800190565b634e487b7160e01b600052601160045260246000fd5b808201808211156123fa576123fa613fd7565b60006020828403121561401257600080fd5b815180151581146136b657600080fd5b601f82111561406c57806000526020600020601f840160051c810160208510156140495750805b601f840160051c820191505b818110156140695760008155600101614055565b50505b505050565b81516001600160401b0381111561408a5761408a6136bd565b61409e816140988454613e27565b84614022565b6020601f8211600181146140d257600083156140ba5750848201515b600019600385901b1c1916600184901b178455614069565b600084815260208120601f198516915b8281101561410257878501518255602094850194600190920191016140e2565b50848210156141205786840151600019600387901b60f8161c191681555b50505050600190811b01905550565b818103818111156123fa576123fa613fd7565b60006001820161415457614154613fd7565b5060010190565b60408152600061416e6040830185613522565b90506136b6602083018461356456fea264697066735822122081deca0d08b113cc678ef60c7b32f6e69cdbeaf0c1a3eb7d83525fcc1489ed8364736f6c634300081c0033",
  "linkReferences": {},
  "deployedLinkReferences": {}
}