{
  "contracts/whisperChain.sol": {
    "WhisperChain": {
      "abi": [
        {
          "inputs": [],
          "stateMutability": "nonpayable",
          "type": "constructor"
        },
        {
          "anonymous": false,
          "inputs": [
            {
              "indexed": false,
              "internalType": "bytes32[]",
              "name": "messageIds",
              "type": "bytes32[]"
            },
            {
              "indexed": true,
              "internalType": "address",
              "name": "sender",
              "type": "address"
            }
          ],
          "name": "BatchMessageSent",
          "type": "event"
        },
        {
          "anonymous": false,
          "inputs": [
            {
              "indexed": true,
              "internalType": "bytes32",
              "name": "conversationId",
              "type": "bytes32"
            },
            {
              "indexed": false,
              "internalType": "address[]",
              "name": "participants",
              "type": "address[]"
            }
          ],
          "name": "ConversationCreated",
          "type": "event"
        },
        {
          "anonymous": false,
          "inputs": [
            {
              "indexed": true,
              "internalType": "bytes32",
              "name": "messageId",
              "type": "bytes32"
            },
            {
              "indexed": false,
              "internalType": "string",
              "name": "ipfsHash",
              "type": "string"
            },
            {
              "indexed": false,
              "internalType": "enum WhisperChain.MediaType",
              "name": "mediaType",
              "type": "uint8"
            }
          ],
          "name": "MediaUploaded",
          "type": "event"
        },
        {
          "anonymous": false,
          "inputs": [
            {
              "indexed": true,
              "internalType": "bytes32",
              "name": "messageId",
              "type": "bytes32"
            },
            {
              "indexed": true,
              "internalType": "address",
              "name": "deleter",
              "type": "address"
            }
          ],
          "name": "MessageDeleted",
          "type": "event"
        },
        {
          "anonymous": false,
          "inputs": [
            {
              "indexed": true,
              "internalType": "bytes32",
              "name": "messageId",
              "type": "bytes32"
            },
            {
              "indexed": true,
              "internalType": "address",
              "name": "sender",
              "type": "address"
            },
            {
              "indexed": true,
              "internalType": "address",
              "name": "recipient",
              "type": "address"
            },
            {
              "indexed": false,
              "internalType": "uint256",
              "name": "timestamp",
              "type": "uint256"
            },
            {
              "indexed": false,
              "internalType": "uint256",
              "name": "paymentAmount",
              "type": "uint256"
            }
          ],
          "name": "MessageSent",
          "type": "event"
        },
        {
          "anonymous": false,
          "inputs": [
            {
              "indexed": true,
              "internalType": "address",
              "name": "previousOwner",
              "type": "address"
            },
            {
              "indexed": true,
              "internalType": "address",
              "name": "newOwner",
              "type": "address"
            }
          ],
          "name": "OwnershipTransferred",
          "type": "event"
        },
        {
          "anonymous": false,
          "inputs": [
            {
              "indexed": false,
              "internalType": "address",
              "name": "account",
              "type": "address"
            }
          ],
          "name": "Paused",
          "type": "event"
        },
        {
          "anonymous": false,
          "inputs": [
            {
              "indexed": true,
              "internalType": "bytes32",
              "name": "messageId",
              "type": "bytes32"
            },
            {
              "indexed": false,
              "internalType": "uint256",
              "name": "amount",
              "type": "uint256"
            }
          ],
          "name": "PaymentSettled",
          "type": "event"
        },
        {
          "anonymous": false,
          "inputs": [
            {
              "indexed": true,
              "internalType": "address",
              "name": "user",
              "type": "address"
            },
            {
              "indexed": false,
              "internalType": "uint256",
              "name": "used",
              "type": "uint256"
            },
            {
              "indexed": false,
              "internalType": "uint256",
              "name": "limit",
              "type": "uint256"
            }
          ],
          "name": "StorageLimitExceeded",
          "type": "event"
        },
        {
          "anonymous": false,
          "inputs": [
            {
              "indexed": false,
              "internalType": "address",
              "name": "account",
              "type": "address"
            }
          ],
          "name": "Unpaused",
          "type": "event"
        },
        {
          "anonymous": false,
          "inputs": [
            {
              "indexed": true,
              "internalType": "address",
              "name": "user",
              "type": "address"
            },
            {
              "indexed": false,
              "internalType": "bytes32",
              "name": "publicKey",
              "type": "bytes32"
            }
          ],
          "name": "UserRegistered",
          "type": "event"
        },
        {
          "inputs": [],
          "name": "MAX_FILE_SIZE",
          "outputs": [
            {
              "internalType": "uint256",
              "name": "",
              "type": "uint256"
            }
          ],
          "stateMutability": "view",
          "type": "function"
        },
        {
          "inputs": [],
          "name": "MAX_MESSAGES_PER_USER",
          "outputs": [
            {
              "internalType": "uint256",
              "name": "",
              "type": "uint256"
            }
          ],
          "stateMutability": "view",
          "type": "function"
        },
        {
          "inputs": [],
          "name": "MAX_STORAGE_PER_USER",
          "outputs": [
            {
              "internalType": "uint256",
              "name": "",
              "type": "uint256"
            }
          ],
          "stateMutability": "view",
          "type": "function"
        },
        {
          "inputs": [],
          "name": "clearStorage",
          "outputs": [],
          "stateMutability": "nonpayable",
          "type": "function"
        },
        {
          "inputs": [
            {
              "internalType": "bytes32",
              "name": "",
              "type": "bytes32"
            }
          ],
          "name": "conversations",
          "outputs": [
            {
              "internalType": "bytes32",
              "name": "conversationKey",
              "type": "bytes32"
            },
            {
              "internalType": "uint256",
              "name": "createdAt",
              "type": "uint256"
            },
            {
              "internalType": "bool",
              "name": "isActive",
              "type": "bool"
            },
            {
              "internalType": "uint256",
              "name": "messageCount",
              "type": "uint256"
            }
          ],
          "stateMutability": "view",
          "type": "function"
        },
        {
          "inputs": [
            {
              "internalType": "address[]",
              "name": "participants",
              "type": "address[]"
            },
            {
              "internalType": "bytes32",
              "name": "conversationKeyHash",
              "type": "bytes32"
            }
          ],
          "name": "createConversation",
          "outputs": [],
          "stateMutability": "nonpayable",
          "type": "function"
        },
        {
          "inputs": [
            {
              "internalType": "bytes32",
              "name": "messageId",
              "type": "bytes32"
            }
          ],
          "name": "deleteMessage",
          "outputs": [],
          "stateMutability": "nonpayable",
          "type": "function"
        },
        {
          "inputs": [],
          "name": "emergencyWithdraw",
          "outputs": [],
          "stateMutability": "nonpayable",
          "type": "function"
        },
        {
          "inputs": [],
          "name": "getContractStats",
          "outputs": [
            {
              "internalType": "uint256",
              "name": "",
              "type": "uint256"
            },
            {
              "internalType": "uint256",
              "name": "",
              "type": "uint256"
            },
            {
              "internalType": "uint256",
              "name": "",
              "type": "uint256"
            }
          ],
          "stateMutability": "view",
          "type": "function"
        },
        {
          "inputs": [
            {
              "internalType": "bytes32",
              "name": "conversationId",
              "type": "bytes32"
            }
          ],
          "name": "getConversation",
          "outputs": [
            {
              "components": [
                {
                  "internalType": "address[]",
                  "name": "participants",
                  "type": "address[]"
                },
                {
                  "internalType": "bytes32",
                  "name": "conversationKey",
                  "type": "bytes32"
                },
                {
                  "internalType": "uint256",
                  "name": "createdAt",
                  "type": "uint256"
                },
                {
                  "internalType": "bool",
                  "name": "isActive",
                  "type": "bool"
                },
                {
                  "internalType": "uint256",
                  "name": "messageCount",
                  "type": "uint256"
                }
              ],
              "internalType": "struct WhisperChain.Conversation",
              "name": "",
              "type": "tuple"
            }
          ],
          "stateMutability": "view",
          "type": "function"
        },
        {
          "inputs": [
            {
              "internalType": "bytes32",
              "name": "messageId",
              "type": "bytes32"
            }
          ],
          "name": "getFileSize",
          "outputs": [
            {
              "internalType": "uint256",
              "name": "",
              "type": "uint256"
            }
          ],
          "stateMutability": "view",
          "type": "function"
        },
        {
          "inputs": [
            {
              "internalType": "bytes32",
              "name": "messageId",
              "type": "bytes32"
            }
          ],
          "name": "getIPFSHash",
          "outputs": [
            {
              "internalType": "string",
              "name": "",
              "type": "string"
            }
          ],
          "stateMutability": "view",
          "type": "function"
        },
        {
          "inputs": [
            {
              "internalType": "bytes32",
              "name": "messageId",
              "type": "bytes32"
            }
          ],
          "name": "getMediaType",
          "outputs": [
            {
              "internalType": "enum WhisperChain.MediaType",
              "name": "",
              "type": "uint8"
            }
          ],
          "stateMutability": "view",
          "type": "function"
        },
        {
          "inputs": [
            {
              "internalType": "bytes32",
              "name": "messageId",
              "type": "bytes32"
            }
          ],
          "name": "getMessage",
          "outputs": [
            {
              "components": [
                {
                  "internalType": "address",
                  "name": "sender",
                  "type": "address"
                },
                {
                  "internalType": "address",
                  "name": "recipient",
                  "type": "address"
                },
                {
                  "internalType": "bytes32",
                  "name": "messageHash",
                  "type": "bytes32"
                },
                {
                  "internalType": "uint256",
                  "name": "timestamp",
                  "type": "uint256"
                },
                {
                  "internalType": "bool",
                  "name": "delivered",
                  "type": "bool"
                },
                {
                  "internalType": "bool",
                  "name": "read",
                  "type": "bool"
                },
                {
                  "internalType": "uint256",
                  "name": "paymentAmount",
                  "type": "uint256"
                },
                {
                  "internalType": "address",
                  "name": "paymentToken",
                  "type": "address"
                },
                {
                  "internalType": "string",
                  "name": "ipfsHash",
                  "type": "string"
                },
                {
                  "internalType": "enum WhisperChain.MediaType",
                  "name": "mediaType",
                  "type": "uint8"
                },
                {
                  "internalType": "uint256",
                  "name": "fileSize",
                  "type": "uint256"
                },
                {
                  "internalType": "string",
                  "name": "textContent",
                  "type": "string"
                }
              ],
              "internalType": "struct WhisperChain.Message",
              "name": "",
              "type": "tuple"
            }
          ],
          "stateMutability": "view",
          "type": "function"
        },
        {
          "inputs": [
            {
              "internalType": "address",
              "name": "user",
              "type": "address"
            }
          ],
          "name": "getRemainingStorage",
          "outputs": [
            {
              "internalType": "uint256",
              "name": "",
              "type": "uint256"
            }
          ],
          "stateMutability": "view",
          "type": "function"
        },
        {
          "inputs": [
            {
              "internalType": "bytes32",
              "name": "messageId",
              "type": "bytes32"
            }
          ],
          "name": "getTextContent",
          "outputs": [
            {
              "internalType": "string",
              "name": "",
              "type": "string"
            }
          ],
          "stateMutability": "view",
          "type": "function"
        },
        {
          "inputs": [
            {
              "internalType": "address",
              "name": "user",
              "type": "address"
            }
          ],
          "name": "getUserMessageCount",
          "outputs": [
            {
              "internalType": "uint256",
              "name": "",
              "type": "uint256"
            }
          ],
          "stateMutability": "view",
          "type": "function"
        },
        {
          "inputs": [
            {
              "internalType": "address",
              "name": "user",
              "type": "address"
            }
          ],
          "name": "getUserMessages",
          "outputs": [
            {
              "internalType": "bytes32[]",
              "name": "",
              "type": "bytes32[]"
            }
          ],
          "stateMutability": "view",
          "type": "function"
        },
        {
          "inputs": [
            {
              "internalType": "address",
              "name": "user",
              "type": "address"
            }
          ],
          "name": "getUserPublicKey",
          "outputs": [
            {
              "internalType": "bytes32",
              "name": "",
              "type": "bytes32"
            }
          ],
          "stateMutability": "view",
          "type": "function"
        },
        {
          "inputs": [
            {
              "internalType": "address",
              "name": "user",
              "type": "address"
            }
          ],
          "name": "getUserStorageUsed",
          "outputs": [
            {
              "internalType": "uint256",
              "name": "",
              "type": "uint256"
            }
          ],
          "stateMutability": "view",
          "type": "function"
        },
        {
          "inputs": [
            {
              "internalType": "string",
              "name": "ipfsHash",
              "type": "string"
            }
          ],
          "name": "isIPFSHashUsed",
          "outputs": [
            {
              "internalType": "bool",
              "name": "",
              "type": "bool"
            }
          ],
          "stateMutability": "view",
          "type": "function"
        },
        {
          "inputs": [
            {
              "internalType": "bytes32",
              "name": "messageId",
              "type": "bytes32"
            }
          ],
          "name": "isMessageDeleted",
          "outputs": [
            {
              "internalType": "bool",
              "name": "",
              "type": "bool"
            }
          ],
          "stateMutability": "view",
          "type": "function"
        },
        {
          "inputs": [
            {
              "internalType": "address",
              "name": "user",
              "type": "address"
            }
          ],
          "name": "isUserRegistered",
          "outputs": [
            {
              "internalType": "bool",
              "name": "",
              "type": "bool"
            }
          ],
          "stateMutability": "view",
          "type": "function"
        },
        {
          "inputs": [
            {
              "internalType": "bytes32",
              "name": "",
              "type": "bytes32"
            }
          ],
          "name": "messageDeleted",
          "outputs": [
            {
              "internalType": "bool",
              "name": "",
              "type": "bool"
            }
          ],
          "stateMutability": "view",
          "type": "function"
        },
        {
          "inputs": [
            {
              "internalType": "bytes32",
              "name": "",
              "type": "bytes32"
            }
          ],
          "name": "messages",
          "outputs": [
            {
              "internalType": "address",
              "name": "sender",
              "type": "address"
            },
            {
              "internalType": "address",
              "name": "recipient",
              "type": "address"
            },
            {
              "internalType": "bytes32",
              "name": "messageHash",
              "type": "bytes32"
            },
            {
              "internalType": "uint256",
              "name": "timestamp",
              "type": "uint256"
            },
            {
              "internalType": "bool",
              "name": "delivered",
              "type": "bool"
            },
            {
              "internalType": "bool",
              "name": "read",
              "type": "bool"
            },
            {
              "internalType": "uint256",
              "name": "paymentAmount",
              "type": "uint256"
            },
            {
              "internalType": "address",
              "name": "paymentToken",
              "type": "address"
            },
            {
              "internalType": "string",
              "name": "ipfsHash",
              "type": "string"
            },
            {
              "internalType": "enum WhisperChain.MediaType",
              "name": "mediaType",
              "type": "uint8"
            },
            {
              "internalType": "uint256",
              "name": "fileSize",
              "type": "uint256"
            },
            {
              "internalType": "string",
              "name": "textContent",
              "type": "string"
            }
          ],
          "stateMutability": "view",
          "type": "function"
        },
        {
          "inputs": [],
          "name": "owner",
          "outputs": [
            {
              "internalType": "address",
              "name": "",
              "type": "address"
            }
          ],
          "stateMutability": "view",
          "type": "function"
        },
        {
          "inputs": [],
          "name": "pause",
          "outputs": [],
          "stateMutability": "nonpayable",
          "type": "function"
        },
        {
          "inputs": [],
          "name": "paused",
          "outputs": [
            {
              "internalType": "bool",
              "name": "",
              "type": "bool"
            }
          ],
          "stateMutability": "view",
          "type": "function"
        },
        {
          "inputs": [
            {
              "internalType": "bytes32",
              "name": "",
              "type": "bytes32"
            }
          ],
          "name": "paymentSettled",
          "outputs": [
            {
              "internalType": "bool",
              "name": "",
              "type": "bool"
            }
          ],
          "stateMutability": "view",
          "type": "function"
        },
        {
          "inputs": [
            {
              "internalType": "bytes32",
              "name": "publicKey",
              "type": "bytes32"
            },
            {
              "internalType": "string",
              "name": "username",
              "type": "string"
            }
          ],
          "name": "registerUser",
          "outputs": [],
          "stateMutability": "nonpayable",
          "type": "function"
        },
        {
          "inputs": [],
          "name": "renounceOwnership",
          "outputs": [],
          "stateMutability": "nonpayable",
          "type": "function"
        },
        {
          "inputs": [
            {
              "internalType": "address[]",
              "name": "recipients",
              "type": "address[]"
            },
            {
              "internalType": "bytes32[]",
              "name": "messageHashes",
              "type": "bytes32[]"
            },
            {
              "internalType": "address[]",
              "name": "paymentTokens",
              "type": "address[]"
            },
            {
              "internalType": "uint256[]",
              "name": "paymentAmounts",
              "type": "uint256[]"
            },
            {
              "internalType": "string[]",
              "name": "ipfsHashes",
              "type": "string[]"
            },
            {
              "internalType": "enum WhisperChain.MediaType[]",
              "name": "mediaTypes",
              "type": "uint8[]"
            },
            {
              "internalType": "uint256[]",
              "name": "fileSizes",
              "type": "uint256[]"
            },
            {
              "internalType": "string[]",
              "name": "textContents",
              "type": "string[]"
            }
          ],
          "name": "sendBatchMessages",
          "outputs": [],
          "stateMutability": "payable",
          "type": "function"
        },
        {
          "inputs": [
            {
              "internalType": "address",
              "name": "recipient",
              "type": "address"
            },
            {
              "internalType": "bytes32",
              "name": "messageHash",
              "type": "bytes32"
            },
            {
              "internalType": "address",
              "name": "paymentToken",
              "type": "address"
            },
            {
              "internalType": "uint256",
              "name": "paymentAmount",
              "type": "uint256"
            },
            {
              "internalType": "string",
              "name": "ipfsHash",
              "type": "string"
            },
            {
              "internalType": "enum WhisperChain.MediaType",
              "name": "mediaType",
              "type": "uint8"
            },
            {
              "internalType": "uint256",
              "name": "fileSize",
              "type": "uint256"
            },
            {
              "internalType": "string",
              "name": "textContent",
              "type": "string"
            }
          ],
          "name": "sendMessage",
          "outputs": [],
          "stateMutability": "payable",
          "type": "function"
        },
        {
          "inputs": [
            {
              "internalType": "address",
              "name": "newOwner",
              "type": "address"
            }
          ],
          "name": "transferOwnership",
          "outputs": [],
          "stateMutability": "nonpayable",
          "type": "function"
        },
        {
          "inputs": [],
          "name": "unpause",
          "outputs": [],
          "stateMutability": "nonpayable",
          "type": "function"
        },
        {
          "inputs": [],
          "name": "updateLastSeen",
          "outputs": [],
          "stateMutability": "nonpayable",
          "type": "function"
        },
        {
          "inputs": [
            {
              "internalType": "bytes32",
              "name": "newPublicKey",
              "type": "bytes32"
            }
          ],
          "name": "updatePublicKey",
          "outputs": [],
          "stateMutability": "nonpayable",
          "type": "function"
        },
        {
          "inputs": [
            {
              "internalType": "string",
              "name": "",
              "type": "string"
            }
          ],
          "name": "usedIPFSHashes",
          "outputs": [
            {
              "internalType": "bool",
              "name": "",
              "type": "bool"
            }
          ],
          "stateMutability": "view",
          "type": "function"
        },
        {
          "inputs": [
            {
              "internalType": "address",
              "name": "",
              "type": "address"
            }
          ],
          "name": "userBalances",
          "outputs": [
            {
              "internalType": "uint256",
              "name": "",
              "type": "uint256"
            }
          ],
          "stateMutability": "view",
          "type": "function"
        },
        {
          "inputs": [
            {
              "internalType": "address",
              "name": "",
              "type": "address"
            },
            {
              "internalType": "uint256",
              "name": "",
              "type": "uint256"
            }
          ],
          "name": "userConversations",
          "outputs": [
            {
              "internalType": "bytes32",
              "name": "",
              "type": "bytes32"
            }
          ],
          "stateMutability": "view",
          "type": "function"
        },
        {
          "inputs": [
            {
              "internalType": "address",
              "name": "",
              "type": "address"
            }
          ],
          "name": "userMessageCount",
          "outputs": [
            {
              "internalType": "uint256",
              "name": "",
              "type": "uint256"
            }
          ],
          "stateMutability": "view",
          "type": "function"
        },
        {
          "inputs": [
            {
              "internalType": "address",
              "name": "",
              "type": "address"
            },
            {
              "internalType": "uint256",
              "name": "",
              "type": "uint256"
            }
          ],
          "name": "userMessages",
          "outputs": [
            {
              "internalType": "bytes32",
              "name": "",
              "type": "bytes32"
            }
          ],
          "stateMutability": "view",
          "type": "function"
        },
        {
          "inputs": [
            {
              "internalType": "address",
              "name": "",
              "type": "address"
            }
          ],
          "name": "userProfiles",
          "outputs": [
            {
              "internalType": "bytes32",
              "name": "publicKey",
              "type": "bytes32"
            },
            {
              "internalType": "bool",
              "name": "isActive",
              "type": "bool"
            },
            {
              "internalType": "uint256",
              "name": "lastSeen",
              "type": "uint256"
            },
            {
              "internalType": "string",
              "name": "username",
              "type": "string"
            }
          ],
          "stateMutability": "view",
          "type": "function"
        },
        {
          "inputs": [
            {
              "internalType": "address",
              "name": "",
              "type": "address"
            }
          ],
          "name": "userStorageUsed",
          "outputs": [
            {
              "internalType": "uint256",
              "name": "",
              "type": "uint256"
            }
          ],
          "stateMutability": "view",
          "type": "function"
        },
        {
          "inputs": [],
          "name": "withdrawBalance",
          "outputs": [],
          "stateMutability": "nonpayable",
          "type": "function"
        },
        {
          "stateMutability": "payable",
          "type": "receive"
        }
      ],
      "evm": {
        "bytecode": {
          "linkReferences": {},
          "object": "608060405234801561001057600080fd5b50600160005561001f3361004a565b6001805460ff60a01b19169055604080516020810190915260008082526100459161009c565b61029d565b600180546001600160a01b038381166001600160a01b0319831681179093556040519116919082907f8be0079c531659141344cd1fd0a4f28419497f9722a3daafe3b4186f6b6457e090600090a35050565b6040805160808101825283815260016020808301828152428486019081526060850187815233600090815260029485905296909620855181559151938201805460ff1916941515949094179093559151908201559151909190600382019061010490826101df565b50506040518381523391507f4c5d15f5779ae1ecd7d55bd3283d898e29c35743d172bd7b83a16e17bc0afe2a9060200160405180910390a25050565b634e487b7160e01b600052604160045260246000fd5b600181811c9082168061016a57607f821691505b60208210810361018a57634e487b7160e01b600052602260045260246000fd5b50919050565b601f8211156101da57806000526020600020601f840160051c810160208510156101b75750805b601f840160051c820191505b818110156101d757600081556001016101c3565b50505b505050565b81516001600160401b038111156101f8576101f8610140565b61020c816102068454610156565b84610190565b6020601f82116001811461024057600083156102285750848201515b600019600385901b1c1916600184901b1784556101d7565b600084815260208120601f198516915b828110156102705787850151825560209485019460019092019101610250565b508482101561028e5786840151600019600387901b60f8161c191681555b50505050600190811b01905550565b6141b3806102ac6000396000f3fe6080604052600436106102765760003560e01c80636eca16651161014f578063c3b68fba116100c1578063db2e21bc1161007a578063db2e21bc14610878578063dfe6b5d61461088d578063e968e83d146108b8578063f2fde38b146108d8578063fcaadf56146108f8578063fe1e3eca1461096857600080fd5b8063c3b68fba14610778578063c462a5121461078b578063ccfd55e7146107cb578063d3bb8b96146107eb578063d91dd84f1461081b578063d92fa3141461084857600080fd5b80638da5cb5b116101135780638da5cb5b1461069b5780639428cda3146106c3578063964db8f5146106e357806398d63d3d146106fb57806399b0645414610728578063b206c4461461074857600080fd5b80636eca166514610608578063715018a61461061b5780637f635fa6146106305780638456cb591461066657806388f12d271461067b57600080fd5b8063332d56d7116101e85780635a506ebc116101ac5780635a506ebc1461054d5780635a9baf371461057a5780635c975abb146105925780635fd8c710146105b157806369bd38a0146105c65780636c90d39f146105db57600080fd5b8063332d56d7146104975780633f4ba83a146104c7578063462f4a3e146104dc5780634a54315c14610517578063541d5f031461053757600080fd5b806326224c641161023a57806326224c641461038f57806328b5238d146103bc5780632b659bfb146103dc5780632bbd59ca146104125780632ed5ef141461044a578063332346301461047757600080fd5b80630139a221146102825780630f2cb69d146102b857806311231fe0146102f8578063163f75221461033c5780631ddd58f11461037857600080fd5b3661027d57005b600080fd5b34801561028e57600080fd5b506102a261029d3660046134e5565b610988565b6040516102af9190613586565b60405180910390f35b3480156102c457600080fd5b506102e86102d33660046134e5565b60076020526000908152604090205460ff1681565b60405190151581526020016102af565b34801561030457600080fd5b5061032e61031336600461369b565b6001600160a01b031660009081526002602052604090205490565b6040519081526020016102af565b34801561034857600080fd5b506102e861035736600461369b565b6001600160a01b031660009081526002602052604090206001015460ff1690565b34801561038457600080fd5b5061038d610bdc565b005b34801561039b57600080fd5b5061032e6103aa36600461369b565b60086020526000908152604090205481565b3480156103c857600080fd5b5061038d6103d736600461379a565b610c2f565b3480156103e857600080fd5b5061032e6103f736600461369b565b6001600160a01b03166000908152600a602052604090205490565b34801561041e57600080fd5b5061043261042d3660046134e5565b610ef0565b6040516102af9c9b9a999897969594939291906137de565b34801561045657600080fd5b5061046a6104653660046134e5565b61107c565b6040516102af919061387f565b34801561048357600080fd5b5061046a6104923660046134e5565b611121565b3480156104a357600080fd5b506104b76104b236600461369b565b611141565b6040516102af9493929190613892565b3480156104d357600080fd5b5061038d6111f7565b3480156104e857600080fd5b506102e86104f7366004613932565b8051602081830181018051600b8252928201919093012091525460ff1681565b34801561052357600080fd5b5061038d61053236600461396e565b611209565b34801561054357600080fd5b5061032e61271081565b34801561055957600080fd5b5061032e61056836600461369b565b600a6020526000908152604090205481565b34801561058657600080fd5b5061032e6302faf08081565b34801561059e57600080fd5b50600154600160a01b900460ff166102e8565b3480156105bd57600080fd5b5061038d6112bc565b3480156105d257600080fd5b5061038d6113f3565b3480156105e757600080fd5b506105fb6105f63660046134e5565b611437565b6040516102af91906139f9565b61038d610616366004613b9f565b611509565b34801561062757600080fd5b5061038d6123b1565b34801561063c57600080fd5b5061032e61064b36600461369b565b6001600160a01b03166000908152600c602052604090205490565b34801561067257600080fd5b5061038d6123c3565b34801561068757600080fd5b5061032e61069636600461369b565b6123d3565b3480156106a757600080fd5b506001546040516001600160a01b0390911681526020016102af565b3480156106cf57600080fd5b5061032e6106de366004613d06565b612400565b3480156106ef57600080fd5b5061032e633b9aca0081565b34801561070757600080fd5b5061071b61071636600461369b565b612431565b6040516102af9190613d30565b34801561073457600080fd5b5061038d6107433660046134e5565b61249c565b34801561075457600080fd5b506102e86107633660046134e5565b60009081526009602052604090205460ff1690565b61038d610786366004613d73565b61252b565b34801561079757600080fd5b506107be6107a63660046134e5565b60009081526003602052604090206008015460ff1690565b6040516102af9190613e19565b3480156107d757600080fd5b5061032e6107e6366004613d06565b612e51565b3480156107f757600080fd5b5061032e6108063660046134e5565b60009081526003602052604090206009015490565b34801561082757600080fd5b5061032e61083636600461369b565b600c6020526000908152604090205481565b34801561085457600080fd5b506102e86108633660046134e5565b60096020526000908152604090205460ff1681565b34801561088457600080fd5b5061038d612e6d565b34801561089957600080fd5b50604080516000808252602082015247918101919091526060016102af565b3480156108c457600080fd5b506102e86108d3366004613932565b612f70565b3480156108e457600080fd5b5061038d6108f336600461369b565b612f9b565b34801561090457600080fd5b506109426109133660046134e5565b6004602081905260009182526040909120600181015460028201546003830154929093015490929160ff169084565b6040805194855260208501939093529015159183019190915260608201526080016102af565b34801561097457600080fd5b5061038d6109833660046134e5565b613014565b6109ed604080516101808101825260008082526020820181905291810182905260608082018390526080820183905260a0820183905260c0820183905260e0820183905261010082015290610120820190815260200160008152602001606081525090565b60008281526003602081815260409283902083516101808101855281546001600160a01b0390811682526001830154811693820193909352600282015494810194909452918201546060840152600482015460ff808216151560808601526101009182900416151560a0850152600583015460c0850152600683015490911660e084015260078201805491840191610a8490613e27565b80601f0160208091040260200160405190810160405280929190818152602001828054610ab090613e27565b8015610afd5780601f10610ad257610100808354040283529160200191610afd565b820191906000526020600020905b815481529060010190602001808311610ae057829003601f168201915b5050509183525050600882015460209091019060ff166004811115610b2457610b2461354e565b6004811115610b3557610b3561354e565b815260200160098201548152602001600a82018054610b5390613e27565b80601f0160208091040260200160405190810160405280929190818152602001828054610b7f90613e27565b8015610bcc5780601f10610ba157610100808354040283529160200191610bcc565b820191906000526020600020905b815481529060010190602001808311610baf57829003601f168201915b5050505050815250509050919050565b3360009081526002602052604090206001015460ff16610c175760405162461bcd60e51b8152600401610c0e90613e61565b60405180910390fd5b33600090815260026020819052604090912042910155565b3360009081526002602052604090206001015460ff16610c615760405162461bcd60e51b8152600401610c0e90613e61565b600282511015610cb35760405162461bcd60e51b815260206004820152601c60248201527f4e656564206174206c656173742032207061727469636970616e7473000000006044820152606401610c0e565b80610d005760405162461bcd60e51b815260206004820152601860248201527f496e76616c696420636f6e766572736174696f6e206b657900000000000000006044820152606401610c0e565b60005b8251811015610da05760026000848381518110610d2257610d22613e8e565b6020908102919091018101516001600160a01b031682528101919091526040016000206001015460ff16610d985760405162461bcd60e51b815260206004820152601a60248201527f5061727469636970616e74206e6f7420726567697374657265640000000000006044820152606401610c0e565b600101610d03565b506000828242604051602001610db893929190613ea4565b60408051601f19818403018152828252805160209182012060a0840183528684528382018690524284840152600160608501526000608085018190528181526004835292909220835180519395509092610e15928492019061346b565b506020820151600182015560408201516002820155606082015160038201805460ff191691151591909117905560809091015160049091015560005b8351811015610eb25760066000858381518110610e7057610e70613e8e565b6020908102919091018101516001600160a01b031682528181019290925260400160009081208054600181810183559183529290912090910183905501610e51565b50807f77521a8f8fdd167d0f112b1336664ec6b6887c6fbc4240968083377f473694d284604051610ee39190613eed565b60405180910390a2505050565b6003602081905260009182526040909120805460018201546002830154938301546004840154600585015460068601546007870180546001600160a01b0397881699968816989697959660ff808716976101009097041695909316929190610f5790613e27565b80601f0160208091040260200160405190810160405280929190818152602001828054610f8390613e27565b8015610fd05780601f10610fa557610100808354040283529160200191610fd0565b820191906000526020600020905b815481529060010190602001808311610fb357829003601f168201915b5050505060088301546009840154600a85018054949560ff9093169491935090610ff990613e27565b80601f016020809104026020016040519081016040528092919081815260200182805461102590613e27565b80156110725780601f1061104757610100808354040283529160200191611072565b820191906000526020600020905b81548152906001019060200180831161105557829003601f168201915b505050505090508c565b600081815260036020526040902060070180546060919061109c90613e27565b80601f01602080910402602001604051908101604052809291908181526020018280546110c890613e27565b80156111155780601f106110ea57610100808354040283529160200191611115565b820191906000526020600020905b8154815290600101906020018083116110f857829003601f168201915b50505050509050919050565b6000818152600360205260409020600a0180546060919061109c90613e27565b60026020819052600091825260409091208054600182015492820154600383018054929460ff1693919261117490613e27565b80601f01602080910402602001604051908101604052809291908181526020018280546111a090613e27565b80156111ed5780601f106111c2576101008083540402835291602001916111ed565b820191906000526020600020905b8154815290600101906020018083116111d057829003601f168201915b5050505050905084565b6111ff61318d565b6112076131e7565b565b3360009081526002602052604090206001015460ff161561126c5760405162461bcd60e51b815260206004820152601760248201527f5573657220616c726561647920726567697374657265640000000000000000006044820152606401610c0e565b816112ae5760405162461bcd60e51b8152602060048201526012602482015271496e76616c6964207075626c6963206b657960701b6044820152606401610c0e565b6112b8828261323c565b5050565b3360009081526002602052604090206001015460ff166112ee5760405162461bcd60e51b8152600401610c0e90613e61565b6112f66132e0565b336000908152600860205260409020548061134c5760405162461bcd60e51b81526020600482015260166024820152754e6f2062616c616e636520746f20776974686472617760501b6044820152606401610c0e565b336000818152600860205260408082208290555190919083908381818185875af1925050503d806000811461139d576040519150601f19603f3d011682016040523d82523d6000602084013e6113a2565b606091505b50509050806113e75760405162461bcd60e51b815260206004820152601160248201527015da5d1a191c985dd85b0819985a5b1959607a1b6044820152606401610c0e565b50506112076001600055565b3360009081526002602052604090206001015460ff166114255760405162461bcd60e51b8152600401610c0e90613e61565b336000908152600c6020526040812055565b6040805160a0810182526060808252600060208301819052928201839052810182905260808101919091526000828152600460209081526040918290208251815460c09381028201840190945260a0810184815290939192849284918401828280156114cc57602002820191906000526020600020905b81546001600160a01b031681526001909101906020018083116114ae575b50505091835250506001820154602082015260028201546040820152600382015460ff161515606082015260049091015460809091015292915050565b3360009081526002602052604090206001015460ff1661153b5760405162461bcd60e51b8152600401610c0e90613e61565b6115436132e0565b61154b613339565b865188511461156c5760405162461bcd60e51b8152600401610c0e90613f00565b855188511461158d5760405162461bcd60e51b8152600401610c0e90613f00565b84518851146115ae5760405162461bcd60e51b8152600401610c0e90613f00565b83518851146115cf5760405162461bcd60e51b8152600401610c0e90613f00565b82518851146115f05760405162461bcd60e51b8152600401610c0e90613f00565b81518851146116115760405162461bcd60e51b8152600401610c0e90613f00565b80518851146116325760405162461bcd60e51b8152600401610c0e90613f00565b600a885111156116845760405162461bcd60e51b815260206004820152601a60248201527f546f6f206d616e79206d6573736167657320696e2062617463680000000000006044820152606401610c0e565b600088516001600160401b0381111561169f5761169f6136bd565b6040519080825280602002602001820160405280156116c8578160200160208202803683370190505b50905060005b895181101561233b5760006001600160a01b03168a82815181106116f4576116f4613e8e565b60200260200101516001600160a01b0316036117465760405162461bcd60e51b8152602060048201526011602482015270125b9d985b1a59081c9958da5c1a595b9d607a1b6044820152606401610c0e565b336001600160a01b03168a828151811061176257611762613e8e565b60200260200101516001600160a01b0316036117b65760405162461bcd60e51b815260206004820152601360248201527221b0b73737ba1039b2b732103a379039b2b63360691b6044820152606401610c0e565b600260008b83815181106117cc576117cc613e8e565b6020908102919091018101516001600160a01b031682528101919091526040016000206001015460ff1661183d5760405162461bcd60e51b8152602060048201526018602482015277149958da5c1a595b9d081b9bdd081c9959da5cdd195c995960421b6044820152606401610c0e565b6000801b89828151811061185357611853613e8e565b60200260200101510361189f5760405162461bcd60e51b8152602060048201526014602482015273092dcecc2d8d2c840dacae6e6c2ceca40d0c2e6d60631b6044820152606401610c0e565b60008582815181106118b3576118b3613e8e565b602002602001015160048111156118cc576118cc61354e565b036119c45760008382815181106118e5576118e5613e8e565b6020026020010151511161190b5760405162461bcd60e51b8152600401610c0e90613f2f565b600086828151811061191f5761191f613e8e565b60200260200101515111801561196e5750600b86828151811061194457611944613e8e565b60200260200101516040516119599190613f76565b9081526040519081900360200190205460ff16155b156119bf576001600b87838151811061198957611989613e8e565b602002602001015160405161199e9190613f76565b908152604051908190036020019020805491151560ff199092169190911790555b611b74565b60008682815181106119d8576119d8613e8e565b602002602001015151116119fe5760405162461bcd60e51b8152600401610c0e90613f92565b600b868281518110611a1257611a12613e8e565b6020026020010151604051611a279190613f76565b9081526040519081900360200190205460ff1615611a805760405162461bcd60e51b815260206004820152601660248201527512541194c81a185cda08185b1c9958591e481d5cd95960521b6044820152606401610c0e565b6302faf080848281518110611a9757611a97613e8e565b60200260200101511115611ade5760405162461bcd60e51b815260206004820152600e60248201526d46696c6520746f6f206c6172676560901b6044820152606401610c0e565b633b9aca00848281518110611af557611af5613e8e565b6020026020010151600c6000336001600160a01b03166001600160a01b0316815260200190815260200160002054611b2d9190613fed565b1115611b745760405162461bcd60e51b815260206004820152601660248201527514dd1bdc9859d9481b1a5b5a5d08195e18d95959195960521b6044820152606401610c0e565b6000338b8381518110611b8957611b89613e8e565b60200260200101518b8481518110611ba357611ba3613e8e565b6020908102919091018101516040516bffffffffffffffffffffffff19606095861b8116938201939093529290931b166034820152604881019190915242606882015243608882015260a8810183905260c8016040516020818303038152906040528051906020012090506000888381518110611c2257611c22613e8e565b60200260200101511115611f0f5760006001600160a01b0316898381518110611c4d57611c4d613e8e565b60200260200101516001600160a01b031603611d9857878281518110611c7557611c75613e8e565b6020026020010151341015611cc75760405162461bcd60e51b8152602060048201526018602482015277125b9cdd59999a58da595b9d08115512081c185e5b595b9d60421b6044820152606401610c0e565b60008b8381518110611cdb57611cdb613e8e565b60200260200101516001600160a01b0316898481518110611cfe57611cfe613e8e565b602002602001015160405160006040518083038185875af1925050503d8060008114611d46576040519150601f19603f3d011682016040523d82523d6000602084013e611d4b565b606091505b5050905080611d925760405162461bcd60e51b8152602060048201526013602482015272115512081d1c985b9cd9995c8819985a5b1959606a1b6044820152606401610c0e565b50611ebb565b6000898381518110611dac57611dac613e8e565b60200260200101519050806001600160a01b03166323b872dd338e8681518110611dd857611dd8613e8e565b60200260200101518c8781518110611df257611df2613e8e565b60209081029190910101516040516001600160e01b031960e086901b1681526001600160a01b03938416600482015292909116602483015260448201526064016020604051808303816000875af1158015611e51573d6000803e3d6000fd5b505050506040513d601f19601f82011682018060405250810190611e759190614000565b611eb95760405162461bcd60e51b8152602060048201526015602482015274151bdad95b881d1c985b9cd9995c8819985a5b1959605a1b6044820152606401610c0e565b505b807f59dcd7f7740501f043c7fdd2559d35e50b1c6d9cfa1c72352bbcccfc45467554898481518110611eef57611eef613e8e565b6020026020010151604051611f0691815260200190565b60405180910390a25b604051806101800160405280336001600160a01b031681526020018c8481518110611f3c57611f3c613e8e565b60200260200101516001600160a01b031681526020018b8481518110611f6457611f64613e8e565b60200260200101518152602001428152602001600015158152602001600015158152602001898481518110611f9b57611f9b613e8e565b602002602001015181526020018a8481518110611fba57611fba613e8e565b60200260200101516001600160a01b03168152602001888481518110611fe257611fe2613e8e565b6020026020010151815260200187848151811061200157612001613e8e565b6020026020010151600481111561201a5761201a61354e565b815260200186848151811061203157612031613e8e565b6020026020010151815260200185848151811061205057612050613e8e565b60209081029190910181015190915260008381526003808352604091829020845181546001600160a01b03199081166001600160a01b03928316178355948601516001830180548716918316919091179055928501516002820155606085015191810191909155608084015160048201805460a087015161ffff1990911692151561ff00191692909217610100921515830217905560c0850151600583015560e085015160068301805490951693169290921790925582015160078201906121189082614071565b5061012082015160088201805460ff1916600183600481111561213d5761213d61354e565b02179055506101408201516009820155610160820151600a8201906121629082614071565b505033600090815260056020818152604083208054600181018255908452908320018490558d519092508d908590811061219e5761219e613e8e565b6020908102919091018101516001600160a01b03168252818101929092526040016000908120805460018101825590825291902001819055825181908490849081106121ec576121ec613e8e565b602002602001018181525050600087838151811061220c5761220c613e8e565b60200260200101515111801561225b5750600b87838151811061223157612231613e8e565b60200260200101516040516122469190613f76565b9081526040519081900360200190205460ff16155b156122ac576001600b88848151811061227657612276613e8e565b602002602001015160405161228b9190613f76565b908152604051908190036020019020805491151560ff199092169190911790555b60008683815181106122c0576122c0613e8e565b602002602001015160048111156122d9576122d961354e565b14612332578482815181106122f0576122f0613e8e565b6020026020010151600c6000336001600160a01b03166001600160a01b03168152602001908152602001600020600082825461232c9190613fed565b90915550505b506001016116ce565b508851336000908152600a60205260408120805490919061235d908490613fed565b909155505060405133907fb86ae99ed5193dc66280d13677675bd13564a983809d971c92de3bf5049bbe1990612394908490613d30565b60405180910390a2506123a76001600055565b5050505050505050565b6123b961318d565b6112076000613386565b6123cb61318d565b6112076133d8565b6001600160a01b0381166000908152600c60205260408120546123fa90633b9aca0061412f565b92915050565b6005602052816000526040600020818154811061241c57600080fd5b90600052602060002001600091509150505481565b6001600160a01b03811660009081526005602090815260409182902080548351818402810184019094528084526060939283018282801561111557602002820191906000526020600020905b81548152602001906001019080831161247d5750505050509050919050565b3360009081526002602052604090206001015460ff166124ce5760405162461bcd60e51b8152600401610c0e90613e61565b806125105760405162461bcd60e51b8152602060048201526012602482015271496e76616c6964207075626c6963206b657960701b6044820152606401610c0e565b33600090815260026020819052604090912091825542910155565b3360009081526002602052604090206001015460ff1661255d5760405162461bcd60e51b8152600401610c0e90613e61565b6125656132e0565b61256d613339565b6001600160a01b0388166125b75760405162461bcd60e51b8152602060048201526011602482015270125b9d985b1a59081c9958da5c1a595b9d607a1b6044820152606401610c0e565b336001600160a01b038916036126055760405162461bcd60e51b815260206004820152601360248201527221b0b73737ba1039b2b732103a379039b2b63360691b6044820152606401610c0e565b6001600160a01b03881660009081526002602052604090206001015460ff1661266b5760405162461bcd60e51b8152602060048201526018602482015277149958da5c1a595b9d081b9bdd081c9959da5cdd195c995960421b6044820152606401610c0e565b866126af5760405162461bcd60e51b8152602060048201526014602482015273092dcecc2d8d2c840dacae6e6c2ceca40d0c2e6d60631b6044820152606401610c0e565b336000908152600a60205260409020546127101161270f5760405162461bcd60e51b815260206004820152601b60248201527f55736572206d657373616765206c696d697420657863656564656400000000006044820152606401610c0e565b60008360048111156127235761272361354e565b036127b75760008151116127495760405162461bcd60e51b8152600401610c0e90613f2f565b6000845111801561277a5750600b846040516127659190613f76565b9081526040519081900360200190205460ff16155b156127b2576001600b856040516127919190613f76565b908152604051908190036020019020805491151560ff199092169190911790555b6128ee565b60008451116127d85760405162461bcd60e51b8152600401610c0e90613f92565b600b846040516127e89190613f76565b9081526040519081900360200190205460ff16156128415760405162461bcd60e51b815260206004820152601660248201527512541194c81a185cda08185b1c9958591e481d5cd95960521b6044820152606401610c0e565b6302faf0808211156128865760405162461bcd60e51b815260206004820152600e60248201526d46696c6520746f6f206c6172676560901b6044820152606401610c0e565b336000908152600c6020526040902054633b9aca00906128a7908490613fed565b11156128ee5760405162461bcd60e51b815260206004820152601660248201527514dd1bdc9859d9481b1a5b5a5d08195e18d95959195960521b6044820152606401610c0e565b6040516bffffffffffffffffffffffff1933606090811b821660208401528a901b1660348201526048810188905242606882015243608882015260009060a8016040516020818303038152906040528051906020012090506000861115612b44576001600160a01b038716612a4757853410156129a85760405162461bcd60e51b8152602060048201526018602482015277125b9cdd59999a58da595b9d08115512081c185e5b595b9d60421b6044820152606401610c0e565b6000896001600160a01b03168760405160006040518083038185875af1925050503d80600081146129f5576040519150601f19603f3d011682016040523d82523d6000602084013e6129fa565b606091505b5050905080612a415760405162461bcd60e51b8152602060048201526013602482015272115512081d1c985b9cd9995c8819985a5b1959606a1b6044820152606401610c0e565b50612b09565b6040516323b872dd60e01b81523360048201526001600160a01b038a81166024830152604482018890528891908216906323b872dd906064016020604051808303816000875af1158015612a9f573d6000803e3d6000fd5b505050506040513d601f19601f82011682018060405250810190612ac39190614000565b612b075760405162461bcd60e51b8152602060048201526015602482015274151bdad95b881d1c985b9cd9995c8819985a5b1959605a1b6044820152606401610c0e565b505b807f59dcd7f7740501f043c7fdd2559d35e50b1c6d9cfa1c72352bbcccfc4546755487604051612b3b91815260200190565b60405180910390a25b604051806101800160405280336001600160a01b031681526020018a6001600160a01b03168152602001898152602001428152602001600015158152602001600015158152602001878152602001886001600160a01b03168152602001868152602001856004811115612bb957612bb961354e565b8152602080820186905260409182018590526000848152600380835290839020845181546001600160a01b03199081166001600160a01b03928316178355938601516001830180548616918316919091179055938501516002820155606085015191810191909155608084015160048201805460a087015161ffff1990911692151561ff00191692909217610100921515830217905560c0850151600583015560e0850151600683018054909416941693909317909155908201516007820190612c839082614071565b5061012082015160088201805460ff19166001836004811115612ca857612ca861354e565b02179055506101408201516009820155610160820151600a820190612ccd9082614071565b5050336000818152600560209081526040808320805460018181018355918552838520018790556001600160a01b038f16845281842080549182018155845282842001869055928252600a90529081208054925090612d2b83614142565b919050555060008551118015612d615750600b85604051612d4c9190613f76565b9081526040519081900360200190205460ff16155b15612d99576001600b86604051612d789190613f76565b908152604051908190036020019020805491151560ff199092169190911790555b6000846004811115612dad57612dad61354e565b14612dd757336000908152600c602052604081208054859290612dd1908490613fed565b90915550505b60408051428152602081018890526001600160a01b038b1691339184917f3f25921f9859dd3aa049d420d41e16cc17afef0f1bc7994033679dd72865cda2910160405180910390a4807f5d21d37bf37daf68715464be18dd14c0fc968d8693d617680606c709fe106d23868660405161239492919061415b565b6006602052816000526040600020818154811061241c57600080fd5b612e7561318d565b4780612ebc5760405162461bcd60e51b81526020600482015260166024820152754e6f2062616c616e636520746f20776974686472617760501b6044820152606401610c0e565b6000612ed06001546001600160a01b031690565b6001600160a01b03168260405160006040518083038185875af1925050503d8060008114612f1a576040519150601f19603f3d011682016040523d82523d6000602084013e612f1f565b606091505b50509050806112b85760405162461bcd60e51b815260206004820152601b60248201527f456d657267656e6379207769746864726177616c206661696c656400000000006044820152606401610c0e565b6000600b82604051612f829190613f76565b9081526040519081900360200190205460ff1692915050565b612fa361318d565b6001600160a01b0381166130085760405162461bcd60e51b815260206004820152602660248201527f4f776e61626c653a206e6577206f776e657220697320746865207a65726f206160448201526564647265737360d01b6064820152608401610c0e565b61301181613386565b50565b60008181526003602052604090205481906001600160a01b03166130735760405162461bcd60e51b815260206004820152601660248201527513595cdcd859d948191bd95cc81b9bdd08195e1a5cdd60521b6044820152606401610c0e565b600082815260096020526040902054829060ff16156130c65760405162461bcd60e51b815260206004820152600f60248201526e13595cdcd859d94819195b195d1959608a1b6044820152606401610c0e565b600083815260036020526040902080546001600160a01b03163314806130f8575060018101546001600160a01b031633145b6131445760405162461bcd60e51b815260206004820152601860248201527f4e6f7420617574686f72697a656420746f2064656c65746500000000000000006044820152606401610c0e565b600084815260096020526040808220805460ff1916600117905551339186917fdb5031387d41bf5edf2cc7c9f161d7cfc8095d67ad6eec15cd99149dcdafc0939190a350505050565b6001546001600160a01b031633146112075760405162461bcd60e51b815260206004820181905260248201527f4f776e61626c653a2063616c6c6572206973206e6f7420746865206f776e65726044820152606401610c0e565b6131ef61341b565b6001805460ff60a01b191690557f5db9ee0a495bf2e6ff9c91a7834c1ba4fdd244a5e8aa4e537bd38aeae4b073aa335b6040516001600160a01b03909116815260200160405180910390a1565b6040805160808101825283815260016020808301828152428486019081526060850187815233600090815260029485905296909620855181559151938201805460ff191694151594909417909355915190820155915190919060038201906132a49082614071565b50506040518381523391507f4c5d15f5779ae1ecd7d55bd3283d898e29c35743d172bd7b83a16e17bc0afe2a9060200160405180910390a25050565b6002600054036133325760405162461bcd60e51b815260206004820152601f60248201527f5265656e7472616e637947756172643a207265656e7472616e742063616c6c006044820152606401610c0e565b6002600055565b600154600160a01b900460ff16156112075760405162461bcd60e51b815260206004820152601060248201526f14185d5cd8589b194e881c185d5cd95960821b6044820152606401610c0e565b600180546001600160a01b038381166001600160a01b0319831681179093556040519116919082907f8be0079c531659141344cd1fd0a4f28419497f9722a3daafe3b4186f6b6457e090600090a35050565b6133e0613339565b6001805460ff60a01b1916600160a01b1790557f62e78cea01bee320cd4e420270b5ea74000d11b0c9f74754ebdbfc544b05a25861321f3390565b600154600160a01b900460ff166112075760405162461bcd60e51b815260206004820152601460248201527314185d5cd8589b194e881b9bdd081c185d5cd95960621b6044820152606401610c0e565b8280548282559060005260206000209081019282156134c0579160200282015b828111156134c057825182546001600160a01b0319166001600160a01b0390911617825560209092019160019091019061348b565b506134cc9291506134d0565b5090565b5b808211156134cc57600081556001016134d1565b6000602082840312156134f757600080fd5b5035919050565b60005b83811015613519578181015183820152602001613501565b50506000910152565b6000815180845261353a8160208601602086016134fe565b601f01601f19169290920160200192915050565b634e487b7160e01b600052602160045260246000fd5b6005811061358257634e487b7160e01b600052602160045260246000fd5b9052565b602081526135a06020820183516001600160a01b03169052565b600060208301516135bc60408401826001600160a01b03169052565b50604083015160608301526060830151608083015260808301516135e460a084018215159052565b5060a083015180151560c08401525060c083015160e083015260e08301516136186101008401826001600160a01b03169052565b506101008301516101806101208401526136366101a0840182613522565b905061012084015161364c610140850182613564565b50610140840151610160840152610160840151601f19848303016101808501526136768282613522565b95945050505050565b80356001600160a01b038116811461369657600080fd5b919050565b6000602082840312156136ad57600080fd5b6136b68261367f565b9392505050565b634e487b7160e01b600052604160045260246000fd5b604051601f8201601f191681016001600160401b03811182821017156136fb576136fb6136bd565b604052919050565b60006001600160401b0382111561371c5761371c6136bd565b5060051b60200190565b600082601f83011261373757600080fd5b813561374a61374582613703565b6136d3565b8082825260208201915060208360051b86010192508583111561376c57600080fd5b602085015b83811015613790576137828161367f565b835260209283019201613771565b5095945050505050565b600080604083850312156137ad57600080fd5b82356001600160401b038111156137c357600080fd5b6137cf85828601613726565b95602094909401359450505050565b6001600160a01b038d811682528c166020820152604081018b9052606081018a9052881515608082015287151560a08201528660c082015261382b60e08201876001600160a01b03169052565b6101806101008201526000613844610180830187613522565b613852610120840187613564565b8461014084015282810361016084015261386c8185613522565b9f9e505050505050505050505050505050565b6020815260006136b66020830184613522565b84815283151560208201528260408201526080606082015260006138b96080830184613522565b9695505050505050565b600082601f8301126138d457600080fd5b81356001600160401b038111156138ed576138ed6136bd565b613900601f8201601f19166020016136d3565b81815284602083860101111561391557600080fd5b816020850160208301376000918101602001919091529392505050565b60006020828403121561394457600080fd5b81356001600160401b0381111561395a57600080fd5b613966848285016138c3565b949350505050565b6000806040838503121561398157600080fd5b8235915060208301356001600160401b0381111561399e57600080fd5b6139aa858286016138c3565b9150509250929050565b600081518084526020840193506020830160005b828110156139ef5781516001600160a01b03168652602095860195909101906001016139c8565b5093949350505050565b602081526000825160a06020840152613a1560c08401826139b4565b90506020840151604084015260408401516060840152606084015115156080840152608084015160a08401528091505092915050565b600082601f830112613a5c57600080fd5b8135613a6a61374582613703565b8082825260208201915060208360051b860101925085831115613a8c57600080fd5b602085015b83811015613790578035835260209283019201613a91565b600082601f830112613aba57600080fd5b8135613ac861374582613703565b8082825260208201915060208360051b860101925085831115613aea57600080fd5b602085015b838110156137905780356001600160401b03811115613b0d57600080fd5b613b1c886020838a01016138c3565b84525060209283019201613aef565b80356005811061369657600080fd5b600082601f830112613b4b57600080fd5b8135613b5961374582613703565b8082825260208201915060208360051b860101925085831115613b7b57600080fd5b602085015b8381101561379057613b9181613b2b565b835260209283019201613b80565b600080600080600080600080610100898b031215613bbc57600080fd5b88356001600160401b03811115613bd257600080fd5b613bde8b828c01613726565b98505060208901356001600160401b03811115613bfa57600080fd5b613c068b828c01613a4b565b97505060408901356001600160401b03811115613c2257600080fd5b613c2e8b828c01613726565b96505060608901356001600160401b03811115613c4a57600080fd5b613c568b828c01613a4b565b95505060808901356001600160401b03811115613c7257600080fd5b613c7e8b828c01613aa9565b94505060a08901356001600160401b03811115613c9a57600080fd5b613ca68b828c01613b3a565b93505060c08901356001600160401b03811115613cc257600080fd5b613cce8b828c01613a4b565b92505060e08901356001600160401b03811115613cea57600080fd5b613cf68b828c01613aa9565b9150509295985092959890939650565b60008060408385031215613d1957600080fd5b613d228361367f565b946020939093013593505050565b602080825282518282018190526000918401906040840190835b81811015613d68578351835260209384019390920191600101613d4a565b509095945050505050565b600080600080600080600080610100898b031215613d9057600080fd5b613d998961367f565b975060208901359650613dae60408a0161367f565b95506060890135945060808901356001600160401b03811115613dd057600080fd5b613ddc8b828c016138c3565b945050613deb60a08a01613b2b565b925060c0890135915060e08901356001600160401b03811115613e0d57600080fd5b613cf68b828c016138c3565b602081016123fa8284613564565b600181811c90821680613e3b57607f821691505b602082108103613e5b57634e487b7160e01b600052602260045260246000fd5b50919050565b602080825260139082015272155cd95c881b9bdd081c9959da5cdd195c9959606a1b604082015260600190565b634e487b7160e01b600052603260045260246000fd5b8351600090829060208701835b82811015613ed85781516001600160a01b0316845260209384019390910190600101613eb1565b50505093845250506020820152604001919050565b6020815260006136b660208301846139b4565b602080825260159082015274082e4e4c2f240d8cadccee8d040dad2e6dac2e8c6d605b1b604082015260600190565b60208082526027908201527f5465787420636f6e74656e7420726571756972656420666f722054455854206d6040820152666573736167657360c81b606082015260800190565b60008251613f888184602087016134fe565b9190910192915050565b60208082526025908201527f49504653206861736820726571756972656420666f72206d65646961206d6573604082015264736167657360d81b606082015260800190565b634e487b7160e01b600052601160045260246000fd5b808201808211156123fa576123fa613fd7565b60006020828403121561401257600080fd5b815180151581146136b657600080fd5b601f82111561406c57806000526020600020601f840160051c810160208510156140495750805b601f840160051c820191505b818110156140695760008155600101614055565b50505b505050565b81516001600160401b0381111561408a5761408a6136bd565b61409e816140988454613e27565b84614022565b6020601f8211600181146140d257600083156140ba5750848201515b600019600385901b1c1916600184901b178455614069565b600084815260208120601f198516915b8281101561410257878501518255602094850194600190920191016140e2565b50848210156141205786840151600019600387901b60f8161c191681555b50505050600190811b01905550565b818103818111156123fa576123fa613fd7565b60006001820161415457614154613fd7565b5060010190565b60408152600061416e6040830185613522565b90506136b6602083018461356456fea264697066735822122081deca0d08b113cc678ef60c7b32f6e69cdbeaf0c1a3eb7d83525fcc1489ed8364736f6c634300081c0033",
          "opcodes": "PUSH1 0x80 PUSH1 0x40 MSTORE CALLVALUE DUP1 ISZERO PUSH2 0x10 JUMPI PUSH1 0x0 DUP1 REVERT JUMPDEST POP PUSH1 0x1 PUSH1 0x0 SSTORE PUSH2 0x1F CALLER PUSH2 0x4A JUMP JUMPDEST PUSH1 0x1 DUP1 SLOAD PUSH1 0xFF PUSH1 0xA0 SHL NOT AND SWAP1 SSTORE PUSH1 0x40 DUP1 MLOAD PUSH1 0x20 DUP2 ADD SWAP1 SWAP2 MSTORE PUSH1 0x0 DUP1 DUP3 MSTORE PUSH2 0x45 SWAP2 PUSH2 0x9C JUMP JUMPDEST PUSH2 0x29D JUMP JUMPDEST PUSH1 0x1 DUP1 SLOAD PUSH1 0x1 PUSH1 0x1 PUSH1 0xA0 SHL SUB DUP4 DUP2 AND PUSH1 0x1 PUSH1 0x1 PUSH1 0xA0 SHL SUB NOT DUP4 AND DUP2 OR SWAP1 SWAP4 SSTORE PUSH1 0x40 MLOAD SWAP2 AND SWAP2 SWAP1 DUP3 SWAP1 PUSH32 0x8BE0079C531659141344CD1FD0A4F28419497F9722A3DAAFE3B4186F6B6457E0 SWAP1 PUSH1 0x0 SWAP1 LOG3 POP POP JUMP JUMPDEST PUSH1 0x40 DUP1 MLOAD PUSH1 0x80 DUP2 ADD DUP3 MSTORE DUP4 DUP2 MSTORE PUSH1 0x1 PUSH1 0x20 DUP1 DUP4 ADD DUP3 DUP2 MSTORE TIMESTAMP DUP5 DUP7 ADD SWAP1 DUP2 MSTORE PUSH1 0x60 DUP6 ADD DUP8 DUP2 MSTORE CALLER PUSH1 0x0 SWAP1 DUP2 MSTORE PUSH1 0x2 SWAP5 DUP6 SWAP1 MSTORE SWAP7 SWAP1 SWAP7 KECCAK256 DUP6 MLOAD DUP2 SSTORE SWAP2 MLOAD SWAP4 DUP3 ADD DUP1 SLOAD PUSH1 0xFF NOT AND SWAP5 ISZERO ISZERO SWAP5 SWAP1 SWAP5 OR SWAP1 SWAP4 SSTORE SWAP2 MLOAD SWAP1 DUP3 ADD SSTORE SWAP2 MLOAD SWAP1 SWAP2 SWAP1 PUSH1 0x3 DUP3 ADD SWAP1 PUSH2 0x104 SWAP1 DUP3 PUSH2 0x1DF JUMP JUMPDEST POP POP PUSH1 0x40 MLOAD DUP4 DUP2 MSTORE CALLER SWAP2 POP PUSH32 0x4C5D15F5779AE1ECD7D55BD3283D898E29C35743D172BD7B83A16E17BC0AFE2A SWAP1 PUSH1 0x20 ADD PUSH1 0x40 MLOAD DUP1 SWAP2 SUB SWAP1 LOG2 POP POP JUMP JUMPDEST PUSH4 0x4E487B71 PUSH1 0xE0 SHL PUSH1 0x0 MSTORE PUSH1 0x41 PUSH1 0x4 MSTORE PUSH1 0x24 PUSH1 0x0 REVERT JUMPDEST PUSH1 0x1 DUP2 DUP2 SHR SWAP1 DUP3 AND DUP1 PUSH2 0x16A JUMPI PUSH1 0x7F DUP3 AND SWAP2 POP JUMPDEST PUSH1 0x20 DUP3 LT DUP2 SUB PUSH2 0x18A JUMPI PUSH4 0x4E487B71 PUSH1 0xE0 SHL PUSH1 0x0 MSTORE PUSH1 0x22 PUSH1 0x4 MSTORE PUSH1 0x24 PUSH1 0x0 REVERT JUMPDEST POP SWAP2 SWAP1 POP JUMP JUMPDEST PUSH1 0x1F DUP3 GT ISZERO PUSH2 0x1DA JUMPI DUP1 PUSH1 0x0 MSTORE PUSH1 0x20 PUSH1 0x0 KECCAK256 PUSH1 0x1F DUP5 ADD PUSH1 0x5 SHR DUP2 ADD PUSH1 0x20 DUP6 LT ISZERO PUSH2 0x1B7 JUMPI POP DUP1 JUMPDEST PUSH1 0x1F DUP5 ADD PUSH1 0x5 SHR DUP3 ADD SWAP2 POP JUMPDEST DUP2 DUP2 LT ISZERO PUSH2 0x1D7 JUMPI PUSH1 0x0 DUP2 SSTORE PUSH1 0x1 ADD PUSH2 0x1C3 JUMP JUMPDEST POP POP JUMPDEST POP POP POP JUMP JUMPDEST DUP2 MLOAD PUSH1 0x1 PUSH1 0x1 PUSH1 0x40 SHL SUB DUP2 GT ISZERO PUSH2 0x1F8 JUMPI PUSH2 0x1F8 PUSH2 0x140 JUMP JUMPDEST PUSH2 0x20C DUP2 PUSH2 0x206 DUP5 SLOAD PUSH2 0x156 JUMP JUMPDEST DUP5 PUSH2 0x190 JUMP JUMPDEST PUSH1 0x20 PUSH1 0x1F DUP3 GT PUSH1 0x1 DUP2 EQ PUSH2 0x240 JUMPI PUSH1 0x0 DUP4 ISZERO PUSH2 0x228 JUMPI POP DUP5 DUP3 ADD MLOAD JUMPDEST PUSH1 0x0 NOT PUSH1 0x3 DUP6 SWAP1 SHL SHR NOT AND PUSH1 0x1 DUP5 SWAP1 SHL OR DUP5 SSTORE PUSH2 0x1D7 JUMP JUMPDEST PUSH1 0x0 DUP5 DUP2 MSTORE PUSH1 0x20 DUP2 KECCAK256 PUSH1 0x1F NOT DUP6 AND SWAP2 JUMPDEST DUP3 DUP2 LT ISZERO PUSH2 0x270 JUMPI DUP8 DUP6 ADD MLOAD DUP3 SSTORE PUSH1 0x20 SWAP5 DUP6 ADD SWAP5 PUSH1 0x1 SWAP1 SWAP3 ADD SWAP2 ADD PUSH2 0x250 JUMP JUMPDEST POP DUP5 DUP3 LT ISZERO PUSH2 0x28E JUMPI DUP7 DUP5 ADD MLOAD PUSH1 0x0 NOT PUSH1 0x3 DUP8 SWAP1 SHL PUSH1 0xF8 AND SHR NOT AND DUP2 SSTORE JUMPDEST POP POP POP POP PUSH1 0x1 SWAP1 DUP2 SHL ADD SWAP1 SSTORE POP JUMP JUMPDEST PUSH2 0x41B3 DUP1 PUSH2 0x2AC PUSH1 0x0 CODECOPY PUSH1 0x0 RETURN INVALID PUSH1 0x80 PUSH1 0x40 MSTORE PUSH1 0x4 CALLDATASIZE LT PUSH2 0x276 JUMPI PUSH1 0x0 CALLDATALOAD PUSH1 0xE0 SHR DUP1 PUSH4 0x6ECA1665 GT PUSH2 0x14F JUMPI DUP1 PUSH4 0xC3B68FBA GT PUSH2 0xC1 JUMPI DUP1 PUSH4 0xDB2E21BC GT PUSH2 0x7A JUMPI DUP1 PUSH4 0xDB2E21BC EQ PUSH2 0x878 JUMPI DUP1 PUSH4 0xDFE6B5D6 EQ PUSH2 0x88D JUMPI DUP1 PUSH4 0xE968E83D EQ PUSH2 0x8B8 JUMPI DUP1 PUSH4 0xF2FDE38B EQ PUSH2 0x8D8 JUMPI DUP1 PUSH4 0xFCAADF56 EQ PUSH2 0x8F8 JUMPI DUP1 PUSH4 0xFE1E3ECA EQ PUSH2 0x968 JUMPI PUSH1 0x0 DUP1 REVERT JUMPDEST DUP1 PUSH4 0xC3B68FBA EQ PUSH2 0x778 JUMPI DUP1 PUSH4 0xC462A512 EQ PUSH2 0x78B JUMPI DUP1 PUSH4 0xCCFD55E7 EQ PUSH2 0x7CB JUMPI DUP1 PUSH4 0xD3BB8B96 EQ PUSH2 0x7EB JUMPI DUP1 PUSH4 0xD91DD84F EQ PUSH2 0x81B JUMPI DUP1 PUSH4 0xD92FA314 EQ PUSH2 0x848 JUMPI PUSH1 0x0 DUP1 REVERT JUMPDEST DUP1 PUSH4 0x8DA5CB5B GT PUSH2 0x113 JUMPI DUP1 PUSH4 0x8DA5CB5B EQ PUSH2 0x69B JUMPI DUP1 PUSH4 0x9428CDA3 EQ PUSH2 0x6C3 JUMPI DUP1 PUSH4 0x964DB8F5 EQ PUSH2 0x6E3 JUMPI DUP1 PUSH4 0x98D63D3D EQ PUSH2 0x6FB JUMPI DUP1 PUSH4 0x99B06454 EQ PUSH2 0x728 JUMPI DUP1 PUSH4 0xB206C446 EQ PUSH2 0x748 JUMPI PUSH1 0x0 DUP1 REVERT JUMPDEST DUP1 PUSH4 0x6ECA1665 EQ PUSH2 0x608 JUMPI DUP1 PUSH4 0x715018A6 EQ PUSH2 0x61B JUMPI DUP1 PUSH4 0x7F635FA6 EQ PUSH2 0x630 JUMPI DUP1 PUSH4 0x8456CB59 EQ PUSH2 0x666 JUMPI DUP1 PUSH4 0x88F12D27 EQ PUSH2 0x67B JUMPI PUSH1 0x0 DUP1 REVERT JUMPDEST DUP1 PUSH4 0x332D56D7 GT PUSH2 0x1E8 JUMPI DUP1 PUSH4 0x5A506EBC GT PUSH2 0x1AC JUMPI DUP1 PUSH4 0x5A506EBC EQ PUSH2 0x54D JUMPI DUP1 PUSH4 0x5A9BAF37 EQ PUSH2 0x57A JUMPI DUP1 PUSH4 0x5C975ABB EQ PUSH2 0x592 JUMPI DUP1 PUSH4 0x5FD8C710 EQ PUSH2 0x5B1 JUMPI DUP1 PUSH4 0x69BD38A0 EQ PUSH2 0x5C6 JUMPI DUP1 PUSH4 0x6C90D39F EQ PUSH2 0x5DB JUMPI PUSH1 0x0 DUP1 REVERT JUMPDEST DUP1 PUSH4 0x332D56D7 EQ PUSH2 0x497 JUMPI DUP1 PUSH4 0x3F4BA83A EQ PUSH2 0x4C7 JUMPI DUP1 PUSH4 0x462F4A3E EQ PUSH2 0x4DC JUMPI DUP1 PUSH4 0x4A54315C EQ PUSH2 0x517 JUMPI DUP1 PUSH4 0x541D5F03 EQ PUSH2 0x537 JUMPI PUSH1 0x0 DUP1 REVERT JUMPDEST DUP1 PUSH4 0x26224C64 GT PUSH2 0x23A JUMPI DUP1 PUSH4 0x26224C64 EQ PUSH2 0x38F JUMPI DUP1 PUSH4 0x28B5238D EQ PUSH2 0x3BC JUMPI DUP1 PUSH4 0x2B659BFB EQ PUSH2 0x3DC JUMPI DUP1 PUSH4 0x2BBD59CA EQ PUSH2 0x412 JUMPI DUP1 PUSH4 0x2ED5EF14 EQ PUSH2 0x44A JUMPI DUP1 PUSH4 0x33234630 EQ PUSH2 0x477 JUMPI PUSH1 0x0 DUP1 REVERT JUMPDEST DUP1 PUSH4 0x139A221 EQ PUSH2 0x282 JUMPI DUP1 PUSH4 0xF2CB69D EQ PUSH2 0x2B8 JUMPI DUP1 PUSH4 0x11231FE0 EQ PUSH2 0x2F8 JUMPI DUP1 PUSH4 0x163F7522 EQ PUSH2 0x33C JUMPI DUP1 PUSH4 0x1DDD58F1 EQ PUSH2 0x378 JUMPI PUSH1 0x0 DUP1 REVERT JUMPDEST CALLDATASIZE PUSH2 0x27D JUMPI STOP JUMPDEST PUSH1 0x0 DUP1 REVERT JUMPDEST CALLVALUE DUP1 ISZERO PUSH2 0x28E JUMPI PUSH1 0x0 DUP1 REVERT JUMPDEST POP PUSH2 0x2A2 PUSH2 0x29D CALLDATASIZE PUSH1 0x4 PUSH2 0x34E5 JUMP JUMPDEST PUSH2 0x988 JUMP JUMPDEST PUSH1 0x40 MLOAD PUSH2 0x2AF SWAP2 SWAP1 PUSH2 0x3586 JUMP JUMPDEST PUSH1 0x40 MLOAD DUP1 SWAP2 SUB SWAP1 RETURN JUMPDEST CALLVALUE DUP1 ISZERO PUSH2 0x2C4 JUMPI PUSH1 0x0 DUP1 REVERT JUMPDEST POP PUSH2 0x2E8 PUSH2 0x2D3 CALLDATASIZE PUSH1 0x4 PUSH2 0x34E5 JUMP JUMPDEST PUSH1 0x7 PUSH1 0x20 MSTORE PUSH1 0x0 SWAP1 DUP2 MSTORE PUSH1 0x40 SWAP1 KECCAK256 SLOAD PUSH1 0xFF AND DUP2 JUMP JUMPDEST PUSH1 0x40 MLOAD SWAP1 ISZERO ISZERO DUP2 MSTORE PUSH1 0x20 ADD PUSH2 0x2AF JUMP JUMPDEST CALLVALUE DUP1 ISZERO PUSH2 0x304 JUMPI PUSH1 0x0 DUP1 REVERT JUMPDEST POP PUSH2 0x32E PUSH2 0x313 CALLDATASIZE PUSH1 0x4 PUSH2 0x369B JUMP JUMPDEST PUSH1 0x1 PUSH1 0x1 PUSH1 0xA0 SHL SUB AND PUSH1 0x0 SWAP1 DUP2 MSTORE PUSH1 0x2 PUSH1 0x20 MSTORE PUSH1 0x40 SWAP1 KECCAK256 SLOAD SWAP1 JUMP JUMPDEST PUSH1 0x40 MLOAD SWAP1 DUP2 MSTORE PUSH1 0x20 ADD PUSH2 0x2AF JUMP JUMPDEST CALLVALUE DUP1 ISZERO PUSH2 0x348 JUMPI PUSH1 0x0 DUP1 REVERT JUMPDEST POP PUSH2 0x2E8 PUSH2 0x357 CALLDATASIZE PUSH1 0x4 PUSH2 0x369B JUMP JUMPDEST PUSH1 0x1 PUSH1 0x1 PUSH1 0xA0 SHL SUB AND PUSH1 0x0 SWAP1 DUP2 MSTORE PUSH1 0x2 PUSH1 0x20 MSTORE PUSH1 0x40 SWAP1 KECCAK256 PUSH1 0x1 ADD SLOAD PUSH1 0xFF AND SWAP1 JUMP JUMPDEST CALLVALUE DUP1 ISZERO PUSH2 0x384 JUMPI PUSH1 0x0 DUP1 REVERT JUMPDEST POP PUSH2 0x38D PUSH2 0xBDC JUMP JUMPDEST STOP JUMPDEST CALLVALUE DUP1 ISZERO PUSH2 0x39B JUMPI PUSH1 0x0 DUP1 REVERT JUMPDEST POP PUSH2 0x32E PUSH2 0x3AA CALLDATASIZE PUSH1 0x4 PUSH2 0x369B JUMP JUMPDEST PUSH1 0x8 PUSH1 0x20 MSTORE PUSH1 0x0 SWAP1 DUP2 MSTORE PUSH1 0x40 SWAP1 KECCAK256 SLOAD DUP2 JUMP JUMPDEST CALLVALUE DUP1 ISZERO PUSH2 0x3C8 JUMPI PUSH1 0x0 DUP1 REVERT JUMPDEST POP PUSH2 0x38D PUSH2 0x3D7 CALLDATASIZE PUSH1 0x4 PUSH2 0x379A JUMP JUMPDEST PUSH2 0xC2F JUMP JUMPDEST CALLVALUE DUP1 ISZERO PUSH2 0x3E8 JUMPI PUSH1 0x0 DUP1 REVERT JUMPDEST POP PUSH2 0x32E PUSH2 0x3F7 CALLDATASIZE PUSH1 0x4 PUSH2 0x369B JUMP JUMPDEST PUSH1 0x1 PUSH1 0x1 PUSH1 0xA0 SHL SUB AND PUSH1 0x0 SWAP1 DUP2 MSTORE PUSH1 0xA PUSH1 0x20 MSTORE PUSH1 0x40 SWAP1 KECCAK256 SLOAD SWAP1 JUMP JUMPDEST CALLVALUE DUP1 ISZERO PUSH2 0x41E JUMPI PUSH1 0x0 DUP1 REVERT JUMPDEST POP PUSH2 0x432 PUSH2 0x42D CALLDATASIZE PUSH1 0x4 PUSH2 0x34E5 JUMP JUMPDEST PUSH2 0xEF0 JUMP JUMPDEST PUSH1 0x40 MLOAD PUSH2 0x2AF SWAP13 SWAP12 SWAP11 SWAP10 SWAP9 SWAP8 SWAP7 SWAP6 SWAP5 SWAP4 SWAP3 SWAP2 SWAP1 PUSH2 0x37DE JUMP JUMPDEST CALLVALUE DUP1 ISZERO PUSH2 0x456 JUMPI PUSH1 0x0 DUP1 REVERT JUMPDEST POP PUSH2 0x46A PUSH2 0x465 CALLDATASIZE PUSH1 0x4 PUSH2 0x34E5 JUMP JUMPDEST PUSH2 0x107C JUMP JUMPDEST PUSH1 0x40 MLOAD PUSH2 0x2AF SWAP2 SWAP1 PUSH2 0x387F JUMP JUMPDEST CALLVALUE DUP1 ISZERO PUSH2 0x483 JUMPI PUSH1 0x0 DUP1 REVERT JUMPDEST POP PUSH2 0x46A PUSH2 0x492 CALLDATASIZE PUSH1 0x4 PUSH2 0x34E5 JUMP JUMPDEST PUSH2 0x1121 JUMP JUMPDEST CALLVALUE DUP1 ISZERO PUSH2 0x4A3 JUMPI PUSH1 0x0 DUP1 REVERT JUMPDEST POP PUSH2 0x4B7 PUSH2 0x4B2 CALLDATASIZE PUSH1 0x4 PUSH2 0x369B JUMP JUMPDEST PUSH2 0x1141 JUMP JUMPDEST PUSH1 0x40 MLOAD PUSH2 0x2AF SWAP5 SWAP4 SWAP3 SWAP2 SWAP1 PUSH2 0x3892 JUMP JUMPDEST CALLVALUE DUP1 ISZERO PUSH2 0x4D3 JUMPI PUSH1 0x0 DUP1 REVERT JUMPDEST POP PUSH2 0x38D PUSH2 0x11F7 JUMP JUMPDEST CALLVALUE DUP1 ISZERO PUSH2 0x4E8 JUMPI PUSH1 0x0 DUP1 REVERT JUMPDEST POP PUSH2 0x2E8 PUSH2 0x4F7 CALLDATASIZE PUSH1 0x4 PUSH2 0x3932 JUMP JUMPDEST DUP1 MLOAD PUSH1 0x20 DUP2 DUP4 ADD DUP2 ADD DUP1 MLOAD PUSH1 0xB DUP3 MSTORE SWAP3 DUP3 ADD SWAP2 SWAP1 SWAP4 ADD KECCAK256 SWAP2 MSTORE SLOAD PUSH1 0xFF AND DUP2 JUMP JUMPDEST CALLVALUE DUP1 ISZERO PUSH2 0x523 JUMPI PUSH1 0x0 DUP1 REVERT JUMPDEST POP PUSH2 0x38D PUSH2 0x532 CALLDATASIZE PUSH1 0x4 PUSH2 0x396E JUMP JUMPDEST PUSH2 0x1209 JUMP JUMPDEST CALLVALUE DUP1 ISZERO PUSH2 0x543 JUMPI PUSH1 0x0 DUP1 REVERT JUMPDEST POP PUSH2 0x32E PUSH2 0x2710 DUP2 JUMP JUMPDEST CALLVALUE DUP1 ISZERO PUSH2 0x559 JUMPI PUSH1 0x0 DUP1 REVERT JUMPDEST POP PUSH2 0x32E PUSH2 0x568 CALLDATASIZE PUSH1 0x4 PUSH2 0x369B JUMP JUMPDEST PUSH1 0xA PUSH1 0x20 MSTORE PUSH1 0x0 SWAP1 DUP2 MSTORE PUSH1 0x40 SWAP1 KECCAK256 SLOAD DUP2 JUMP JUMPDEST CALLVALUE DUP1 ISZERO PUSH2 0x586 JUMPI PUSH1 0x0 DUP1 REVERT JUMPDEST POP PUSH2 0x32E PUSH4 0x2FAF080 DUP2 JUMP JUMPDEST CALLVALUE DUP1 ISZERO PUSH2 0x59E JUMPI PUSH1 0x0 DUP1 REVERT JUMPDEST POP PUSH1 0x1 SLOAD PUSH1 0x1 PUSH1 0xA0 SHL SWAP1 DIV PUSH1 0xFF AND PUSH2 0x2E8 JUMP JUMPDEST CALLVALUE DUP1 ISZERO PUSH2 0x5BD JUMPI PUSH1 0x0 DUP1 REVERT JUMPDEST POP PUSH2 0x38D PUSH2 0x12BC JUMP JUMPDEST CALLVALUE DUP1 ISZERO PUSH2 0x5D2 JUMPI PUSH1 0x0 DUP1 REVERT JUMPDEST POP PUSH2 0x38D PUSH2 0x13F3 JUMP JUMPDEST CALLVALUE DUP1 ISZERO PUSH2 0x5E7 JUMPI PUSH1 0x0 DUP1 REVERT JUMPDEST POP PUSH2 0x5FB PUSH2 0x5F6 CALLDATASIZE PUSH1 0x4 PUSH2 0x34E5 JUMP JUMPDEST PUSH2 0x1437 JUMP JUMPDEST PUSH1 0x40 MLOAD PUSH2 0x2AF SWAP2 SWAP1 PUSH2 0x39F9 JUMP JUMPDEST PUSH2 0x38D PUSH2 0x616 CALLDATASIZE PUSH1 0x4 PUSH2 0x3B9F JUMP JUMPDEST PUSH2 0x1509 JUMP JUMPDEST CALLVALUE DUP1 ISZERO PUSH2 0x627 JUMPI PUSH1 0x0 DUP1 REVERT JUMPDEST POP PUSH2 0x38D PUSH2 0x23B1 JUMP JUMPDEST CALLVALUE DUP1 ISZERO PUSH2 0x63C JUMPI PUSH1 0x0 DUP1 REVERT JUMPDEST POP PUSH2 0x32E PUSH2 0x64B CALLDATASIZE PUSH1 0x4 PUSH2 0x369B JUMP JUMPDEST PUSH1 0x1 PUSH1 0x1 PUSH1 0xA0 SHL SUB AND PUSH1 0x0 SWAP1 DUP2 MSTORE PUSH1 0xC PUSH1 0x20 MSTORE PUSH1 0x40 SWAP1 KECCAK256 SLOAD SWAP1 JUMP JUMPDEST CALLVALUE DUP1 ISZERO PUSH2 0x672 JUMPI PUSH1 0x0 DUP1 REVERT JUMPDEST POP PUSH2 0x38D PUSH2 0x23C3 JUMP JUMPDEST CALLVALUE DUP1 ISZERO PUSH2 0x687 JUMPI PUSH1 0x0 DUP1 REVERT JUMPDEST POP PUSH2 0x32E PUSH2 0x696 CALLDATASIZE PUSH1 0x4 PUSH2 0x369B JUMP JUMPDEST PUSH2 0x23D3 JUMP JUMPDEST CALLVALUE DUP1 ISZERO PUSH2 0x6A7 JUMPI PUSH1 0x0 DUP1 REVERT JUMPDEST POP PUSH1 0x1 SLOAD PUSH1 0x40 MLOAD PUSH1 0x1 PUSH1 0x1 PUSH1 0xA0 SHL SUB SWAP1 SWAP2 AND DUP2 MSTORE PUSH1 0x20 ADD PUSH2 0x2AF JUMP JUMPDEST CALLVALUE DUP1 ISZERO PUSH2 0x6CF JUMPI PUSH1 0x0 DUP1 REVERT JUMPDEST POP PUSH2 0x32E PUSH2 0x6DE CALLDATASIZE PUSH1 0x4 PUSH2 0x3D06 JUMP JUMPDEST PUSH2 0x2400 JUMP JUMPDEST CALLVALUE DUP1 ISZERO PUSH2 0x6EF JUMPI PUSH1 0x0 DUP1 REVERT JUMPDEST POP PUSH2 0x32E PUSH4 0x3B9ACA00 DUP2 JUMP JUMPDEST CALLVALUE DUP1 ISZERO PUSH2 0x707 JUMPI PUSH1 0x0 DUP1 REVERT JUMPDEST POP PUSH2 0x71B PUSH2 0x716 CALLDATASIZE PUSH1 0x4 PUSH2 0x369B JUMP JUMPDEST PUSH2 0x2431 JUMP JUMPDEST PUSH1 0x40 MLOAD PUSH2 0x2AF SWAP2 SWAP1 PUSH2 0x3D30 JUMP JUMPDEST CALLVALUE DUP1 ISZERO PUSH2 0x734 JUMPI PUSH1 0x0 DUP1 REVERT JUMPDEST POP PUSH2 0x38D PUSH2 0x743 CALLDATASIZE PUSH1 0x4 PUSH2 0x34E5 JUMP JUMPDEST PUSH2 0x249C JUMP JUMPDEST CALLVALUE DUP1 ISZERO PUSH2 0x754 JUMPI PUSH1 0x0 DUP1 REVERT JUMPDEST POP PUSH2 0x2E8 PUSH2 0x763 CALLDATASIZE PUSH1 0x4 PUSH2 0x34E5 JUMP JUMPDEST PUSH1 0x0 SWAP1 DUP2 MSTORE PUSH1 0x9 PUSH1 0x20 MSTORE PUSH1 0x40 SWAP1 KECCAK256 SLOAD PUSH1 0xFF AND SWAP1 JUMP JUMPDEST PUSH2 0x38D PUSH2 0x786 CALLDATASIZE PUSH1 0x4 PUSH2 0x3D73 JUMP JUMPDEST PUSH2 0x252B JUMP JUMPDEST CALLVALUE DUP1 ISZERO PUSH2 0x797 JUMPI PUSH1 0x0 DUP1 REVERT JUMPDEST POP PUSH2 0x7BE PUSH2 0x7A6 CALLDATASIZE PUSH1 0x4 PUSH2 0x34E5 JUMP JUMPDEST PUSH1 0x0 SWAP1 DUP2 MSTORE PUSH1 0x3 PUSH1 0x20 MSTORE PUSH1 0x40 SWAP1 KECCAK256 PUSH1 0x8 ADD SLOAD PUSH1 0xFF AND SWAP1 JUMP JUMPDEST PUSH1 0x40 MLOAD PUSH2 0x2AF SWAP2 SWAP1 PUSH2 0x3E19 JUMP JUMPDEST CALLVALUE DUP1 ISZERO PUSH2 0x7D7 JUMPI PUSH1 0x0 DUP1 REVERT JUMPDEST POP PUSH2 0x32E PUSH2 0x7E6 CALLDATASIZE PUSH1 0x4 PUSH2 0x3D06 JUMP JUMPDEST PUSH2 0x2E51 JUMP JUMPDEST CALLVALUE DUP1 ISZERO PUSH2 0x7F7 JUMPI PUSH1 0x0 DUP1 REVERT JUMPDEST POP PUSH2 0x32E PUSH2 0x806 CALLDATASIZE PUSH1 0x4 PUSH2 0x34E5 JUMP JUMPDEST PUSH1 0x0 SWAP1 DUP2 MSTORE PUSH1 0x3 PUSH1 0x20 MSTORE PUSH1 0x40 SWAP1 KECCAK256 PUSH1 0x9 ADD SLOAD SWAP1 JUMP JUMPDEST CALLVALUE DUP1 ISZERO PUSH2 0x827 JUMPI PUSH1 0x0 DUP1 REVERT JUMPDEST POP PUSH2 0x32E PUSH2 0x836 CALLDATASIZE PUSH1 0x4 PUSH2 0x369B JUMP JUMPDEST PUSH1 0xC PUSH1 0x20 MSTORE PUSH1 0x0 SWAP1 DUP2 MSTORE PUSH1 0x40 SWAP1 KECCAK256 SLOAD DUP2 JUMP JUMPDEST CALLVALUE DUP1 ISZERO PUSH2 0x854 JUMPI PUSH1 0x0 DUP1 REVERT JUMPDEST POP PUSH2 0x2E8 PUSH2 0x863 CALLDATASIZE PUSH1 0x4 PUSH2 0x34E5 JUMP JUMPDEST PUSH1 0x9 PUSH1 0x20 MSTORE PUSH1 0x0 SWAP1 DUP2 MSTORE PUSH1 0x40 SWAP1 KECCAK256 SLOAD PUSH1 0xFF AND DUP2 JUMP JUMPDEST CALLVALUE DUP1 ISZERO PUSH2 0x884 JUMPI PUSH1 0x0 DUP1 REVERT JUMPDEST POP PUSH2 0x38D PUSH2 0x2E6D JUMP JUMPDEST CALLVALUE DUP1 ISZERO PUSH2 0x899 JUMPI PUSH1 0x0 DUP1 REVERT JUMPDEST POP PUSH1 0x40 DUP1 MLOAD PUSH1 0x0 DUP1 DUP3 MSTORE PUSH1 0x20 DUP3 ADD MSTORE SELFBALANCE SWAP2 DUP2 ADD SWAP2 SWAP1 SWAP2 MSTORE PUSH1 0x60 ADD PUSH2 0x2AF JUMP JUMPDEST CALLVALUE DUP1 ISZERO PUSH2 0x8C4 JUMPI PUSH1 0x0 DUP1 REVERT JUMPDEST POP PUSH2 0x2E8 PUSH2 0x8D3 CALLDATASIZE PUSH1 0x4 PUSH2 0x3932 JUMP JUMPDEST PUSH2 0x2F70 JUMP JUMPDEST CALLVALUE DUP1 ISZERO PUSH2 0x8E4 JUMPI PUSH1 0x0 DUP1 REVERT JUMPDEST POP PUSH2 0x38D PUSH2 0x8F3 CALLDATASIZE PUSH1 0x4 PUSH2 0x369B JUMP JUMPDEST PUSH2 0x2F9B JUMP JUMPDEST CALLVALUE DUP1 ISZERO PUSH2 0x904 JUMPI PUSH1 0x0 DUP1 REVERT JUMPDEST POP PUSH2 0x942 PUSH2 0x913 CALLDATASIZE PUSH1 0x4 PUSH2 0x34E5 JUMP JUMPDEST PUSH1 0x4 PUSH1 0x20 DUP2 SWAP1 MSTORE PUSH1 0x0 SWAP2 DUP3 MSTORE PUSH1 0x40 SWAP1 SWAP2 KECCAK256 PUSH1 0x1 DUP2 ADD SLOAD PUSH1 0x2 DUP3 ADD SLOAD PUSH1 0x3 DUP4 ADD SLOAD SWAP3 SWAP1 SWAP4 ADD SLOAD SWAP1 SWAP3 SWAP2 PUSH1 0xFF AND SWAP1 DUP5 JUMP JUMPDEST PUSH1 0x40 DUP1 MLOAD SWAP5 DUP6 MSTORE PUSH1 0x20 DUP6 ADD SWAP4 SWAP1 SWAP4 MSTORE SWAP1 ISZERO ISZERO SWAP2 DUP4 ADD SWAP2 SWAP1 SWAP2 MSTORE PUSH1 0x60 DUP3 ADD MSTORE PUSH1 0x80 ADD PUSH2 0x2AF JUMP JUMPDEST CALLVALUE DUP1 ISZERO PUSH2 0x974 JUMPI PUSH1 0x0 DUP1 REVERT JUMPDEST POP PUSH2 0x38D PUSH2 0x983 CALLDATASIZE PUSH1 0x4 PUSH2 0x34E5 JUMP JUMPDEST PUSH2 0x3014 JUMP JUMPDEST PUSH2 0x9ED PUSH1 0x40 DUP1 MLOAD PUSH2 0x180 DUP2 ADD DUP3 MSTORE PUSH1 0x0 DUP1 DUP3 MSTORE PUSH1 0x20 DUP3 ADD DUP2 SWAP1 MSTORE SWAP2 DUP2 ADD DUP3 SWAP1 MSTORE PUSH1 0x60 DUP1 DUP3 ADD DUP4 SWAP1 MSTORE PUSH1 0x80 DUP3 ADD DUP4 SWAP1 MSTORE PUSH1 0xA0 DUP3 ADD DUP4 SWAP1 MSTORE PUSH1 0xC0 DUP3 ADD DUP4 SWAP1 MSTORE PUSH1 0xE0 DUP3 ADD DUP4 SWAP1 MSTORE PUSH2 0x100 DUP3 ADD MSTORE SWAP1 PUSH2 0x120 DUP3 ADD SWAP1 DUP2 MSTORE PUSH1 0x20 ADD PUSH1 0x0 DUP2 MSTORE PUSH1 0x20 ADD PUSH1 0x60 DUP2 MSTORE POP SWAP1 JUMP JUMPDEST PUSH1 0x0 DUP3 DUP2 MSTORE PUSH1 0x3 PUSH1 0x20 DUP2 DUP2 MSTORE PUSH1 0x40 SWAP3 DUP4 SWAP1 KECCAK256 DUP4 MLOAD PUSH2 0x180 DUP2 ADD DUP6 MSTORE DUP2 SLOAD PUSH1 0x1 PUSH1 0x1 PUSH1 0xA0 SHL SUB SWAP1 DUP2 AND DUP3 MSTORE PUSH1 0x1 DUP4 ADD SLOAD DUP2 AND SWAP4 DUP3 ADD SWAP4 SWAP1 SWAP4 MSTORE PUSH1 0x2 DUP3 ADD SLOAD SWAP5 DUP2 ADD SWAP5 SWAP1 SWAP5 MSTORE SWAP2 DUP3 ADD SLOAD PUSH1 0x60 DUP5 ADD MSTORE PUSH1 0x4 DUP3 ADD SLOAD PUSH1 0xFF DUP1 DUP3 AND ISZERO ISZERO PUSH1 0x80 DUP7 ADD MSTORE PUSH2 0x100 SWAP2 DUP3 SWAP1 DIV AND ISZERO ISZERO PUSH1 0xA0 DUP6 ADD MSTORE PUSH1 0x5 DUP4 ADD SLOAD PUSH1 0xC0 DUP6 ADD MSTORE PUSH1 0x6 DUP4 ADD SLOAD SWAP1 SWAP2 AND PUSH1 0xE0 DUP5 ADD MSTORE PUSH1 0x7 DUP3 ADD DUP1 SLOAD SWAP2 DUP5 ADD SWAP2 PUSH2 0xA84 SWAP1 PUSH2 0x3E27 JUMP JUMPDEST DUP1 PUSH1 0x1F ADD PUSH1 0x20 DUP1 SWAP2 DIV MUL PUSH1 0x20 ADD PUSH1 0x40 MLOAD SWAP1 DUP2 ADD PUSH1 0x40 MSTORE DUP1 SWAP3 SWAP2 SWAP1 DUP2 DUP2 MSTORE PUSH1 0x20 ADD DUP3 DUP1 SLOAD PUSH2 0xAB0 SWAP1 PUSH2 0x3E27 JUMP JUMPDEST DUP1 ISZERO PUSH2 0xAFD JUMPI DUP1 PUSH1 0x1F LT PUSH2 0xAD2 JUMPI PUSH2 0x100 DUP1 DUP4 SLOAD DIV MUL DUP4 MSTORE SWAP2 PUSH1 0x20 ADD SWAP2 PUSH2 0xAFD JUMP JUMPDEST DUP3 ADD SWAP2 SWAP1 PUSH1 0x0 MSTORE PUSH1 0x20 PUSH1 0x0 KECCAK256 SWAP1 JUMPDEST DUP2 SLOAD DUP2 MSTORE SWAP1 PUSH1 0x1 ADD SWAP1 PUSH1 0x20 ADD DUP1 DUP4 GT PUSH2 0xAE0 JUMPI DUP3 SWAP1 SUB PUSH1 0x1F AND DUP3 ADD SWAP2 JUMPDEST POP POP POP SWAP2 DUP4 MSTORE POP POP PUSH1 0x8 DUP3 ADD SLOAD PUSH1 0x20 SWAP1 SWAP2 ADD SWAP1 PUSH1 0xFF AND PUSH1 0x4 DUP2 GT ISZERO PUSH2 0xB24 JUMPI PUSH2 0xB24 PUSH2 0x354E JUMP JUMPDEST PUSH1 0x4 DUP2 GT ISZERO PUSH2 0xB35 JUMPI PUSH2 0xB35 PUSH2 0x354E JUMP JUMPDEST DUP2 MSTORE PUSH1 0x20 ADD PUSH1 0x9 DUP3 ADD SLOAD DUP2 MSTORE PUSH1 0x20 ADD PUSH1 0xA DUP3 ADD DUP1 SLOAD PUSH2 0xB53 SWAP1 PUSH2 0x3E27 JUMP JUMPDEST DUP1 PUSH1 0x1F ADD PUSH1 0x20 DUP1 SWAP2 DIV MUL PUSH1 0x20 ADD PUSH1 0x40 MLOAD SWAP1 DUP2 ADD PUSH1 0x40 MSTORE DUP1 SWAP3 SWAP2 SWAP1 DUP2 DUP2 MSTORE PUSH1 0x20 ADD DUP3 DUP1 SLOAD PUSH2 0xB7F SWAP1 PUSH2 0x3E27 JUMP JUMPDEST DUP1 ISZERO PUSH2 0xBCC JUMPI DUP1 PUSH1 0x1F LT PUSH2 0xBA1 JUMPI PUSH2 0x100 DUP1 DUP4 SLOAD DIV MUL DUP4 MSTORE SWAP2 PUSH1 0x20 ADD SWAP2 PUSH2 0xBCC JUMP JUMPDEST DUP3 ADD SWAP2 SWAP1 PUSH1 0x0 MSTORE PUSH1 0x20 PUSH1 0x0 KECCAK256 SWAP1 JUMPDEST DUP2 SLOAD DUP2 MSTORE SWAP1 PUSH1 0x1 ADD SWAP1 PUSH1 0x20 ADD DUP1 DUP4 GT PUSH2 0xBAF JUMPI DUP3 SWAP1 SUB PUSH1 0x1F AND DUP3 ADD SWAP2 JUMPDEST POP POP POP POP POP DUP2 MSTORE POP POP SWAP1 POP SWAP2 SWAP1 POP JUMP JUMPDEST CALLER PUSH1 0x0 SWAP1 DUP2 MSTORE PUSH1 0x2 PUSH1 0x20 MSTORE PUSH1 0x40 SWAP1 KECCAK256 PUSH1 0x1 ADD SLOAD PUSH1 0xFF AND PUSH2 0xC17 JUMPI PUSH1 0x40 MLOAD PUSH3 0x461BCD PUSH1 0xE5 SHL DUP2 MSTORE PUSH1 0x4 ADD PUSH2 0xC0E SWAP1 PUSH2 0x3E61 JUMP JUMPDEST PUSH1 0x40 MLOAD DUP1 SWAP2 SUB SWAP1 REVERT JUMPDEST CALLER PUSH1 0x0 SWAP1 DUP2 MSTORE PUSH1 0x2 PUSH1 0x20 DUP2 SWAP1 MSTORE PUSH1 0x40 SWAP1 SWAP2 KECCAK256 TIMESTAMP SWAP2 ADD SSTORE JUMP JUMPDEST CALLER PUSH1 0x0 SWAP1 DUP2 MSTORE PUSH1 0x2 PUSH1 0x20 MSTORE PUSH1 0x40 SWAP1 KECCAK256 PUSH1 0x1 ADD SLOAD PUSH1 0xFF AND PUSH2 0xC61 JUMPI PUSH1 0x40 MLOAD PUSH3 0x461BCD PUSH1 0xE5 SHL DUP2 MSTORE PUSH1 0x4 ADD PUSH2 0xC0E SWAP1 PUSH2 0x3E61 JUMP JUMPDEST PUSH1 0x2 DUP3 MLOAD LT ISZERO PUSH2 0xCB3 JUMPI PUSH1 0x40 MLOAD PUSH3 0x461BCD PUSH1 0xE5 SHL DUP2 MSTORE PUSH1 0x20 PUSH1 0x4 DUP3 ADD MSTORE PUSH1 0x1C PUSH1 0x24 DUP3 ADD MSTORE PUSH32 0x4E656564206174206C656173742032207061727469636970616E747300000000 PUSH1 0x44 DUP3 ADD MSTORE PUSH1 0x64 ADD PUSH2 0xC0E JUMP JUMPDEST DUP1 PUSH2 0xD00 JUMPI PUSH1 0x40 MLOAD PUSH3 0x461BCD PUSH1 0xE5 SHL DUP2 MSTORE PUSH1 0x20 PUSH1 0x4 DUP3 ADD MSTORE PUSH1 0x18 PUSH1 0x24 DUP3 ADD MSTORE PUSH32 0x496E76616C696420636F6E766572736174696F6E206B65790000000000000000 PUSH1 0x44 DUP3 ADD MSTORE PUSH1 0x64 ADD PUSH2 0xC0E JUMP JUMPDEST PUSH1 0x0 JUMPDEST DUP3 MLOAD DUP2 LT ISZERO PUSH2 0xDA0 JUMPI PUSH1 0x2 PUSH1 0x0 DUP5 DUP4 DUP2 MLOAD DUP2 LT PUSH2 0xD22 JUMPI PUSH2 0xD22 PUSH2 0x3E8E JUMP JUMPDEST PUSH1 0x20 SWAP1 DUP2 MUL SWAP2 SWAP1 SWAP2 ADD DUP2 ADD MLOAD PUSH1 0x1 PUSH1 0x1 PUSH1 0xA0 SHL SUB AND DUP3 MSTORE DUP2 ADD SWAP2 SWAP1 SWAP2 MSTORE PUSH1 0x40 ADD PUSH1 0x0 KECCAK256 PUSH1 0x1 ADD SLOAD PUSH1 0xFF AND PUSH2 0xD98 JUMPI PUSH1 0x40 MLOAD PUSH3 0x461BCD PUSH1 0xE5 SHL DUP2 MSTORE PUSH1 0x20 PUSH1 0x4 DUP3 ADD MSTORE PUSH1 0x1A PUSH1 0x24 DUP3 ADD MSTORE PUSH32 0x5061727469636970616E74206E6F742072656769737465726564000000000000 PUSH1 0x44 DUP3 ADD MSTORE PUSH1 0x64 ADD PUSH2 0xC0E JUMP JUMPDEST PUSH1 0x1 ADD PUSH2 0xD03 JUMP JUMPDEST POP PUSH1 0x0 DUP3 DUP3 TIMESTAMP PUSH1 0x40 MLOAD PUSH1 0x20 ADD PUSH2 0xDB8 SWAP4 SWAP3 SWAP2 SWAP1 PUSH2 0x3EA4 JUMP JUMPDEST PUSH1 0x40 DUP1 MLOAD PUSH1 0x1F NOT DUP2 DUP5 SUB ADD DUP2 MSTORE DUP3 DUP3 MSTORE DUP1 MLOAD PUSH1 0x20 SWAP2 DUP3 ADD KECCAK256 PUSH1 0xA0 DUP5 ADD DUP4 MSTORE DUP7 DUP5 MSTORE DUP4 DUP3 ADD DUP7 SWAP1 MSTORE TIMESTAMP DUP5 DUP5 ADD MSTORE PUSH1 0x1 PUSH1 0x60 DUP6 ADD MSTORE PUSH1 0x0 PUSH1 0x80 DUP6 ADD DUP2 SWAP1 MSTORE DUP2 DUP2 MSTORE PUSH1 0x4 DUP4 MSTORE SWAP3 SWAP1 SWAP3 KECCAK256 DUP4 MLOAD DUP1 MLOAD SWAP4 SWAP6 POP SWAP1 SWAP3 PUSH2 0xE15 SWAP3 DUP5 SWAP3 ADD SWAP1 PUSH2 0x346B JUMP JUMPDEST POP PUSH1 0x20 DUP3 ADD MLOAD PUSH1 0x1 DUP3 ADD SSTORE PUSH1 0x40 DUP3 ADD MLOAD PUSH1 0x2 DUP3 ADD SSTORE PUSH1 0x60 DUP3 ADD MLOAD PUSH1 0x3 DUP3 ADD DUP1 SLOAD PUSH1 0xFF NOT AND SWAP2 ISZERO ISZERO SWAP2 SWAP1 SWAP2 OR SWAP1 SSTORE PUSH1 0x80 SWAP1 SWAP2 ADD MLOAD PUSH1 0x4 SWAP1 SWAP2 ADD SSTORE PUSH1 0x0 JUMPDEST DUP4 MLOAD DUP2 LT ISZERO PUSH2 0xEB2 JUMPI PUSH1 0x6 PUSH1 0x0 DUP6 DUP4 DUP2 MLOAD DUP2 LT PUSH2 0xE70 JUMPI PUSH2 0xE70 PUSH2 0x3E8E JUMP JUMPDEST PUSH1 0x20 SWAP1 DUP2 MUL SWAP2 SWAP1 SWAP2 ADD DUP2 ADD MLOAD PUSH1 0x1 PUSH1 0x1 PUSH1 0xA0 SHL SUB AND DUP3 MSTORE DUP2 DUP2 ADD SWAP3 SWAP1 SWAP3 MSTORE PUSH1 0x40 ADD PUSH1 0x0 SWAP1 DUP2 KECCAK256 DUP1 SLOAD PUSH1 0x1 DUP2 DUP2 ADD DUP4 SSTORE SWAP2 DUP4 MSTORE SWAP3 SWAP1 SWAP2 KECCAK256 SWAP1 SWAP2 ADD DUP4 SWAP1 SSTORE ADD PUSH2 0xE51 JUMP JUMPDEST POP DUP1 PUSH32 0x77521A8F8FDD167D0F112B1336664EC6B6887C6FBC4240968083377F473694D2 DUP5 PUSH1 0x40 MLOAD PUSH2 0xEE3 SWAP2 SWAP1 PUSH2 0x3EED JUMP JUMPDEST PUSH1 0x40 MLOAD DUP1 SWAP2 SUB SWAP1 LOG2 POP POP POP JUMP JUMPDEST PUSH1 0x3 PUSH1 0x20 DUP2 SWAP1 MSTORE PUSH1 0x0 SWAP2 DUP3 MSTORE PUSH1 0x40 SWAP1 SWAP2 KECCAK256 DUP1 SLOAD PUSH1 0x1 DUP3 ADD SLOAD PUSH1 0x2 DUP4 ADD SLOAD SWAP4 DUP4 ADD SLOAD PUSH1 0x4 DUP5 ADD SLOAD PUSH1 0x5 DUP6 ADD SLOAD PUSH1 0x6 DUP7 ADD SLOAD PUSH1 0x7 DUP8 ADD DUP1 SLOAD PUSH1 0x1 PUSH1 0x1 PUSH1 0xA0 SHL SUB SWAP8 DUP9 AND SWAP10 SWAP7 DUP9 AND SWAP9 SWAP7 SWAP8 SWAP6 SWAP7 PUSH1 0xFF DUP1 DUP8 AND SWAP8 PUSH2 0x100 SWAP1 SWAP8 DIV AND SWAP6 SWAP1 SWAP4 AND SWAP3 SWAP2 SWAP1 PUSH2 0xF57 SWAP1 PUSH2 0x3E27 JUMP JUMPDEST DUP1 PUSH1 0x1F ADD PUSH1 0x20 DUP1 SWAP2 DIV MUL PUSH1 0x20 ADD PUSH1 0x40 MLOAD SWAP1 DUP2 ADD PUSH1 0x40 MSTORE DUP1 SWAP3 SWAP2 SWAP1 DUP2 DUP2 MSTORE PUSH1 0x20 ADD DUP3 DUP1 SLOAD PUSH2 0xF83 SWAP1 PUSH2 0x3E27 JUMP JUMPDEST DUP1 ISZERO PUSH2 0xFD0 JUMPI DUP1 PUSH1 0x1F LT PUSH2 0xFA5 JUMPI PUSH2 0x100 DUP1 DUP4 SLOAD DIV MUL DUP4 MSTORE SWAP2 PUSH1 0x20 ADD SWAP2 PUSH2 0xFD0 JUMP JUMPDEST DUP3 ADD SWAP2 SWAP1 PUSH1 0x0 MSTORE PUSH1 0x20 PUSH1 0x0 KECCAK256 SWAP1 JUMPDEST DUP2 SLOAD DUP2 MSTORE SWAP1 PUSH1 0x1 ADD SWAP1 PUSH1 0x20 ADD DUP1 DUP4 GT PUSH2 0xFB3 JUMPI DUP3 SWAP1 SUB PUSH1 0x1F AND DUP3 ADD SWAP2 JUMPDEST POP POP POP POP PUSH1 0x8 DUP4 ADD SLOAD PUSH1 0x9 DUP5 ADD SLOAD PUSH1 0xA DUP6 ADD DUP1 SLOAD SWAP5 SWAP6 PUSH1 0xFF SWAP1 SWAP4 AND SWAP5 SWAP2 SWAP4 POP SWAP1 PUSH2 0xFF9 SWAP1 PUSH2 0x3E27 JUMP JUMPDEST DUP1 PUSH1 0x1F ADD PUSH1 0x20 DUP1 SWAP2 DIV MUL PUSH1 0x20 ADD PUSH1 0x40 MLOAD SWAP1 DUP2 ADD PUSH1 0x40 MSTORE DUP1 SWAP3 SWAP2 SWAP1 DUP2 DUP2 MSTORE PUSH1 0x20 ADD DUP3 DUP1 SLOAD PUSH2 0x1025 SWAP1 PUSH2 0x3E27 JUMP JUMPDEST DUP1 ISZERO PUSH2 0x1072 JUMPI DUP1 PUSH1 0x1F LT PUSH2 0x1047 JUMPI PUSH2 0x100 DUP1 DUP4 SLOAD DIV MUL DUP4 MSTORE SWAP2 PUSH1 0x20 ADD SWAP2 PUSH2 0x1072 JUMP JUMPDEST DUP3 ADD SWAP2 SWAP1 PUSH1 0x0 MSTORE PUSH1 0x20 PUSH1 0x0 KECCAK256 SWAP1 JUMPDEST DUP2 SLOAD DUP2 MSTORE SWAP1 PUSH1 0x1 ADD SWAP1 PUSH1 0x20 ADD DUP1 DUP4 GT PUSH2 0x1055 JUMPI DUP3 SWAP1 SUB PUSH1 0x1F AND DUP3 ADD SWAP2 JUMPDEST POP POP POP POP POP SWAP1 POP DUP13 JUMP JUMPDEST PUSH1 0x0 DUP2 DUP2 MSTORE PUSH1 0x3 PUSH1 0x20 MSTORE PUSH1 0x40 SWAP1 KECCAK256 PUSH1 0x7 ADD DUP1 SLOAD PUSH1 0x60 SWAP2 SWAP1 PUSH2 0x109C SWAP1 PUSH2 0x3E27 JUMP JUMPDEST DUP1 PUSH1 0x1F ADD PUSH1 0x20 DUP1 SWAP2 DIV MUL PUSH1 0x20 ADD PUSH1 0x40 MLOAD SWAP1 DUP2 ADD PUSH1 0x40 MSTORE DUP1 SWAP3 SWAP2 SWAP1 DUP2 DUP2 MSTORE PUSH1 0x20 ADD DUP3 DUP1 SLOAD PUSH2 0x10C8 SWAP1 PUSH2 0x3E27 JUMP JUMPDEST DUP1 ISZERO PUSH2 0x1115 JUMPI DUP1 PUSH1 0x1F LT PUSH2 0x10EA JUMPI PUSH2 0x100 DUP1 DUP4 SLOAD DIV MUL DUP4 MSTORE SWAP2 PUSH1 0x20 ADD SWAP2 PUSH2 0x1115 JUMP JUMPDEST DUP3 ADD SWAP2 SWAP1 PUSH1 0x0 MSTORE PUSH1 0x20 PUSH1 0x0 KECCAK256 SWAP1 JUMPDEST DUP2 SLOAD DUP2 MSTORE SWAP1 PUSH1 0x1 ADD SWAP1 PUSH1 0x20 ADD DUP1 DUP4 GT PUSH2 0x10F8 JUMPI DUP3 SWAP1 SUB PUSH1 0x1F AND DUP3 ADD SWAP2 JUMPDEST POP POP POP POP POP SWAP1 POP SWAP2 SWAP1 POP JUMP JUMPDEST PUSH1 0x0 DUP2 DUP2 MSTORE PUSH1 0x3 PUSH1 0x20 MSTORE PUSH1 0x40 SWAP1 KECCAK256 PUSH1 0xA ADD DUP1 SLOAD PUSH1 0x60 SWAP2 SWAP1 PUSH2 0x109C SWAP1 PUSH2 0x3E27 JUMP JUMPDEST PUSH1 0x2 PUSH1 0x20 DUP2 SWAP1 MSTORE PUSH1 0x0 SWAP2 DUP3 MSTORE PUSH1 0x40 SWAP1 SWAP2 KECCAK256 DUP1 SLOAD PUSH1 0x1 DUP3 ADD SLOAD SWAP3 DUP3 ADD SLOAD PUSH1 0x3 DUP4 ADD DUP1 SLOAD SWAP3 SWAP5 PUSH1 0xFF AND SWAP4 SWAP2 SWAP3 PUSH2 0x1174 SWAP1 PUSH2 0x3E27 JUMP JUMPDEST DUP1 PUSH1 0x1F ADD PUSH1 0x20 DUP1 SWAP2 DIV MUL PUSH1 0x20 ADD PUSH1 0x40 MLOAD SWAP1 DUP2 ADD PUSH1 0x40 MSTORE DUP1 SWAP3 SWAP2 SWAP1 DUP2 DUP2 MSTORE PUSH1 0x20 ADD DUP3 DUP1 SLOAD PUSH2 0x11A0 SWAP1 PUSH2 0x3E27 JUMP JUMPDEST DUP1 ISZERO PUSH2 0x11ED JUMPI DUP1 PUSH1 0x1F LT PUSH2 0x11C2 JUMPI PUSH2 0x100 DUP1 DUP4 SLOAD DIV MUL DUP4 MSTORE SWAP2 PUSH1 0x20 ADD SWAP2 PUSH2 0x11ED JUMP JUMPDEST DUP3 ADD SWAP2 SWAP1 PUSH1 0x0 MSTORE PUSH1 0x20 PUSH1 0x0 KECCAK256 SWAP1 JUMPDEST DUP2 SLOAD DUP2 MSTORE SWAP1 PUSH1 0x1 ADD SWAP1 PUSH1 0x20 ADD DUP1 DUP4 GT PUSH2 0x11D0 JUMPI DUP3 SWAP1 SUB PUSH1 0x1F AND DUP3 ADD SWAP2 JUMPDEST POP POP POP POP POP SWAP1 POP DUP5 JUMP JUMPDEST PUSH2 0x11FF PUSH2 0x318D JUMP JUMPDEST PUSH2 0x1207 PUSH2 0x31E7 JUMP JUMPDEST JUMP JUMPDEST CALLER PUSH1 0x0 SWAP1 DUP2 MSTORE PUSH1 0x2 PUSH1 0x20 MSTORE PUSH1 0x40 SWAP1 KECCAK256 PUSH1 0x1 ADD SLOAD PUSH1 0xFF AND ISZERO PUSH2 0x126C JUMPI PUSH1 0x40 MLOAD PUSH3 0x461BCD PUSH1 0xE5 SHL DUP2 MSTORE PUSH1 0x20 PUSH1 0x4 DUP3 ADD MSTORE PUSH1 0x17 PUSH1 0x24 DUP3 ADD MSTORE PUSH32 0x5573657220616C72656164792072656769737465726564000000000000000000 PUSH1 0x44 DUP3 ADD MSTORE PUSH1 0x64 ADD PUSH2 0xC0E JUMP JUMPDEST DUP2 PUSH2 0x12AE JUMPI PUSH1 0x40 MLOAD PUSH3 0x461BCD PUSH1 0xE5 SHL DUP2 MSTORE PUSH1 0x20 PUSH1 0x4 DUP3 ADD MSTORE PUSH1 0x12 PUSH1 0x24 DUP3 ADD MSTORE PUSH18 0x496E76616C6964207075626C6963206B6579 PUSH1 0x70 SHL PUSH1 0x44 DUP3 ADD MSTORE PUSH1 0x64 ADD PUSH2 0xC0E JUMP JUMPDEST PUSH2 0x12B8 DUP3 DUP3 PUSH2 0x323C JUMP JUMPDEST POP POP JUMP JUMPDEST CALLER PUSH1 0x0 SWAP1 DUP2 MSTORE PUSH1 0x2 PUSH1 0x20 MSTORE PUSH1 0x40 SWAP1 KECCAK256 PUSH1 0x1 ADD SLOAD PUSH1 0xFF AND PUSH2 0x12EE JUMPI PUSH1 0x40 MLOAD PUSH3 0x461BCD PUSH1 0xE5 SHL DUP2 MSTORE PUSH1 0x4 ADD PUSH2 0xC0E SWAP1 PUSH2 0x3E61 JUMP JUMPDEST PUSH2 0x12F6 PUSH2 0x32E0 JUMP JUMPDEST CALLER PUSH1 0x0 SWAP1 DUP2 MSTORE PUSH1 0x8 PUSH1 0x20 MSTORE PUSH1 0x40 SWAP1 KECCAK256 SLOAD DUP1 PUSH2 0x134C JUMPI PUSH1 0x40 MLOAD PUSH3 0x461BCD PUSH1 0xE5 SHL DUP2 MSTORE PUSH1 0x20 PUSH1 0x4 DUP3 ADD MSTORE PUSH1 0x16 PUSH1 0x24 DUP3 ADD MSTORE PUSH22 0x4E6F2062616C616E636520746F207769746864726177 PUSH1 0x50 SHL PUSH1 0x44 DUP3 ADD MSTORE PUSH1 0x64 ADD PUSH2 0xC0E JUMP JUMPDEST CALLER PUSH1 0x0 DUP2 DUP2 MSTORE PUSH1 0x8 PUSH1 0x20 MSTORE PUSH1 0x40 DUP1 DUP3 KECCAK256 DUP3 SWAP1 SSTORE MLOAD SWAP1 SWAP2 SWAP1 DUP4 SWAP1 DUP4 DUP2 DUP2 DUP2 DUP6 DUP8 GAS CALL SWAP3 POP POP POP RETURNDATASIZE DUP1 PUSH1 0x0 DUP2 EQ PUSH2 0x139D JUMPI PUSH1 0x40 MLOAD SWAP2 POP PUSH1 0x1F NOT PUSH1 0x3F RETURNDATASIZE ADD AND DUP3 ADD PUSH1 0x40 MSTORE RETURNDATASIZE DUP3 MSTORE RETURNDATASIZE PUSH1 0x0 PUSH1 0x20 DUP5 ADD RETURNDATACOPY PUSH2 0x13A2 JUMP JUMPDEST PUSH1 0x60 SWAP2 POP JUMPDEST POP POP SWAP1 POP DUP1 PUSH2 0x13E7 JUMPI PUSH1 0x40 MLOAD PUSH3 0x461BCD PUSH1 0xE5 SHL DUP2 MSTORE PUSH1 0x20 PUSH1 0x4 DUP3 ADD MSTORE PUSH1 0x11 PUSH1 0x24 DUP3 ADD MSTORE PUSH17 0x15DA5D1A191C985DD85B0819985A5B1959 PUSH1 0x7A SHL PUSH1 0x44 DUP3 ADD MSTORE PUSH1 0x64 ADD PUSH2 0xC0E JUMP JUMPDEST POP POP PUSH2 0x1207 PUSH1 0x1 PUSH1 0x0 SSTORE JUMP JUMPDEST CALLER PUSH1 0x0 SWAP1 DUP2 MSTORE PUSH1 0x2 PUSH1 0x20 MSTORE PUSH1 0x40 SWAP1 KECCAK256 PUSH1 0x1 ADD SLOAD PUSH1 0xFF AND PUSH2 0x1425 JUMPI PUSH1 0x40 MLOAD PUSH3 0x461BCD PUSH1 0xE5 SHL DUP2 MSTORE PUSH1 0x4 ADD PUSH2 0xC0E SWAP1 PUSH2 0x3E61 JUMP JUMPDEST CALLER PUSH1 0x0 SWAP1 DUP2 MSTORE PUSH1 0xC PUSH1 0x20 MSTORE PUSH1 0x40 DUP2 KECCAK256 SSTORE JUMP JUMPDEST PUSH1 0x40 DUP1 MLOAD PUSH1 0xA0 DUP2 ADD DUP3 MSTORE PUSH1 0x60 DUP1 DUP3 MSTORE PUSH1 0x0 PUSH1 0x20 DUP4 ADD DUP2 SWAP1 MSTORE SWAP3 DUP3 ADD DUP4 SWAP1 MSTORE DUP2 ADD DUP3 SWAP1 MSTORE PUSH1 0x80 DUP2 ADD SWAP2 SWAP1 SWAP2 MSTORE PUSH1 0x0 DUP3 DUP2 MSTORE PUSH1 0x4 PUSH1 0x20 SWAP1 DUP2 MSTORE PUSH1 0x40 SWAP2 DUP3 SWAP1 KECCAK256 DUP3 MLOAD DUP2 SLOAD PUSH1 0xC0 SWAP4 DUP2 MUL DUP3 ADD DUP5 ADD SWAP1 SWAP5 MSTORE PUSH1 0xA0 DUP2 ADD DUP5 DUP2 MSTORE SWAP1 SWAP4 SWAP2 SWAP3 DUP5 SWAP3 DUP5 SWAP2 DUP5 ADD DUP3 DUP3 DUP1 ISZERO PUSH2 0x14CC JUMPI PUSH1 0x20 MUL DUP3 ADD SWAP2 SWAP1 PUSH1 0x0 MSTORE PUSH1 0x20 PUSH1 0x0 KECCAK256 SWAP1 JUMPDEST DUP2 SLOAD PUSH1 0x1 PUSH1 0x1 PUSH1 0xA0 SHL SUB AND DUP2 MSTORE PUSH1 0x1 SWAP1 SWAP2 ADD SWAP1 PUSH1 0x20 ADD DUP1 DUP4 GT PUSH2 0x14AE JUMPI JUMPDEST POP POP POP SWAP2 DUP4 MSTORE POP POP PUSH1 0x1 DUP3 ADD SLOAD PUSH1 0x20 DUP3 ADD MSTORE PUSH1 0x2 DUP3 ADD SLOAD PUSH1 0x40 DUP3 ADD MSTORE PUSH1 0x3 DUP3 ADD SLOAD PUSH1 0xFF AND ISZERO ISZERO PUSH1 0x60 DUP3 ADD MSTORE PUSH1 0x4 SWAP1 SWAP2 ADD SLOAD PUSH1 0x80 SWAP1 SWAP2 ADD MSTORE SWAP3 SWAP2 POP POP JUMP JUMPDEST CALLER PUSH1 0x0 SWAP1 DUP2 MSTORE PUSH1 0x2 PUSH1 0x20 MSTORE PUSH1 0x40 SWAP1 KECCAK256 PUSH1 0x1 ADD SLOAD PUSH1 0xFF AND PUSH2 0x153B JUMPI PUSH1 0x40 MLOAD PUSH3 0x461BCD PUSH1 0xE5 SHL DUP2 MSTORE PUSH1 0x4 ADD PUSH2 0xC0E SWAP1 PUSH2 0x3E61 JUMP JUMPDEST PUSH2 0x1543 PUSH2 0x32E0 JUMP JUMPDEST PUSH2 0x154B PUSH2 0x3339 JUMP JUMPDEST DUP7 MLOAD DUP9 MLOAD EQ PUSH2 0x156C JUMPI PUSH1 0x40 MLOAD PUSH3 0x461BCD PUSH1 0xE5 SHL DUP2 MSTORE PUSH1 0x4 ADD PUSH2 0xC0E SWAP1 PUSH2 0x3F00 JUMP JUMPDEST DUP6 MLOAD DUP9 MLOAD EQ PUSH2 0x158D JUMPI PUSH1 0x40 MLOAD PUSH3 0x461BCD PUSH1 0xE5 SHL DUP2 MSTORE PUSH1 0x4 ADD PUSH2 0xC0E SWAP1 PUSH2 0x3F00 JUMP JUMPDEST DUP5 MLOAD DUP9 MLOAD EQ PUSH2 0x15AE JUMPI PUSH1 0x40 MLOAD PUSH3 0x461BCD PUSH1 0xE5 SHL DUP2 MSTORE PUSH1 0x4 ADD PUSH2 0xC0E SWAP1 PUSH2 0x3F00 JUMP JUMPDEST DUP4 MLOAD DUP9 MLOAD EQ PUSH2 0x15CF JUMPI PUSH1 0x40 MLOAD PUSH3 0x461BCD PUSH1 0xE5 SHL DUP2 MSTORE PUSH1 0x4 ADD PUSH2 0xC0E SWAP1 PUSH2 0x3F00 JUMP JUMPDEST DUP3 MLOAD DUP9 MLOAD EQ PUSH2 0x15F0 JUMPI PUSH1 0x40 MLOAD PUSH3 0x461BCD PUSH1 0xE5 SHL DUP2 MSTORE PUSH1 0x4 ADD PUSH2 0xC0E SWAP1 PUSH2 0x3F00 JUMP JUMPDEST DUP2 MLOAD DUP9 MLOAD EQ PUSH2 0x1611 JUMPI PUSH1 0x40 MLOAD PUSH3 0x461BCD PUSH1 0xE5 SHL DUP2 MSTORE PUSH1 0x4 ADD PUSH2 0xC0E SWAP1 PUSH2 0x3F00 JUMP JUMPDEST DUP1 MLOAD DUP9 MLOAD EQ PUSH2 0x1632 JUMPI PUSH1 0x40 MLOAD PUSH3 0x461BCD PUSH1 0xE5 SHL DUP2 MSTORE PUSH1 0x4 ADD PUSH2 0xC0E SWAP1 PUSH2 0x3F00 JUMP JUMPDEST PUSH1 0xA DUP9 MLOAD GT ISZERO PUSH2 0x1684 JUMPI PUSH1 0x40 MLOAD PUSH3 0x461BCD PUSH1 0xE5 SHL DUP2 MSTORE PUSH1 0x20 PUSH1 0x4 DUP3 ADD MSTORE PUSH1 0x1A PUSH1 0x24 DUP3 ADD MSTORE PUSH32 0x546F6F206D616E79206D6573736167657320696E206261746368000000000000 PUSH1 0x44 DUP3 ADD MSTORE PUSH1 0x64 ADD PUSH2 0xC0E JUMP JUMPDEST PUSH1 0x0 DUP9 MLOAD PUSH1 0x1 PUSH1 0x1 PUSH1 0x40 SHL SUB DUP2 GT ISZERO PUSH2 0x169F JUMPI PUSH2 0x169F PUSH2 0x36BD JUMP JUMPDEST PUSH1 0x40 MLOAD SWAP1 DUP1 DUP3 MSTORE DUP1 PUSH1 0x20 MUL PUSH1 0x20 ADD DUP3 ADD PUSH1 0x40 MSTORE DUP1 ISZERO PUSH2 0x16C8 JUMPI DUP2 PUSH1 0x20 ADD PUSH1 0x20 DUP3 MUL DUP1 CALLDATASIZE DUP4 CALLDATACOPY ADD SWAP1 POP JUMPDEST POP SWAP1 POP PUSH1 0x0 JUMPDEST DUP10 MLOAD DUP2 LT ISZERO PUSH2 0x233B JUMPI PUSH1 0x0 PUSH1 0x1 PUSH1 0x1 PUSH1 0xA0 SHL SUB AND DUP11 DUP3 DUP2 MLOAD DUP2 LT PUSH2 0x16F4 JUMPI PUSH2 0x16F4 PUSH2 0x3E8E JUMP JUMPDEST PUSH1 0x20 MUL PUSH1 0x20 ADD ADD MLOAD PUSH1 0x1 PUSH1 0x1 PUSH1 0xA0 SHL SUB AND SUB PUSH2 0x1746 JUMPI PUSH1 0x40 MLOAD PUSH3 0x461BCD PUSH1 0xE5 SHL DUP2 MSTORE PUSH1 0x20 PUSH1 0x4 DUP3 ADD MSTORE PUSH1 0x11 PUSH1 0x24 DUP3 ADD MSTORE PUSH17 0x125B9D985B1A59081C9958DA5C1A595B9D PUSH1 0x7A SHL PUSH1 0x44 DUP3 ADD MSTORE PUSH1 0x64 ADD PUSH2 0xC0E JUMP JUMPDEST CALLER PUSH1 0x1 PUSH1 0x1 PUSH1 0xA0 SHL SUB AND DUP11 DUP3 DUP2 MLOAD DUP2 LT PUSH2 0x1762 JUMPI PUSH2 0x1762 PUSH2 0x3E8E JUMP JUMPDEST PUSH1 0x20 MUL PUSH1 0x20 ADD ADD MLOAD PUSH1 0x1 PUSH1 0x1 PUSH1 0xA0 SHL SUB AND SUB PUSH2 0x17B6 JUMPI PUSH1 0x40 MLOAD PUSH3 0x461BCD PUSH1 0xE5 SHL DUP2 MSTORE PUSH1 0x20 PUSH1 0x4 DUP3 ADD MSTORE PUSH1 0x13 PUSH1 0x24 DUP3 ADD MSTORE PUSH19 0x21B0B73737BA1039B2B732103A379039B2B633 PUSH1 0x69 SHL PUSH1 0x44 DUP3 ADD MSTORE PUSH1 0x64 ADD PUSH2 0xC0E JUMP JUMPDEST PUSH1 0x2 PUSH1 0x0 DUP12 DUP4 DUP2 MLOAD DUP2 LT PUSH2 0x17CC JUMPI PUSH2 0x17CC PUSH2 0x3E8E JUMP JUMPDEST PUSH1 0x20 SWAP1 DUP2 MUL SWAP2 SWAP1 SWAP2 ADD DUP2 ADD MLOAD PUSH1 0x1 PUSH1 0x1 PUSH1 0xA0 SHL SUB AND DUP3 MSTORE DUP2 ADD SWAP2 SWAP1 SWAP2 MSTORE PUSH1 0x40 ADD PUSH1 0x0 KECCAK256 PUSH1 0x1 ADD SLOAD PUSH1 0xFF AND PUSH2 0x183D JUMPI PUSH1 0x40 MLOAD PUSH3 0x461BCD PUSH1 0xE5 SHL DUP2 MSTORE PUSH1 0x20 PUSH1 0x4 DUP3 ADD MSTORE PUSH1 0x18 PUSH1 0x24 DUP3 ADD MSTORE PUSH24 0x149958DA5C1A595B9D081B9BDD081C9959DA5CDD195C9959 PUSH1 0x42 SHL PUSH1 0x44 DUP3 ADD MSTORE PUSH1 0x64 ADD PUSH2 0xC0E JUMP JUMPDEST PUSH1 0x0 DUP1 SHL DUP10 DUP3 DUP2 MLOAD DUP2 LT PUSH2 0x1853 JUMPI PUSH2 0x1853 PUSH2 0x3E8E JUMP JUMPDEST PUSH1 0x20 MUL PUSH1 0x20 ADD ADD MLOAD SUB PUSH2 0x189F JUMPI PUSH1 0x40 MLOAD PUSH3 0x461BCD PUSH1 0xE5 SHL DUP2 MSTORE PUSH1 0x20 PUSH1 0x4 DUP3 ADD MSTORE PUSH1 0x14 PUSH1 0x24 DUP3 ADD MSTORE PUSH20 0x92DCECC2D8D2C840DACAE6E6C2CECA40D0C2E6D PUSH1 0x63 SHL PUSH1 0x44 DUP3 ADD MSTORE PUSH1 0x64 ADD PUSH2 0xC0E JUMP JUMPDEST PUSH1 0x0 DUP6 DUP3 DUP2 MLOAD DUP2 LT PUSH2 0x18B3 JUMPI PUSH2 0x18B3 PUSH2 0x3E8E JUMP JUMPDEST PUSH1 0x20 MUL PUSH1 0x20 ADD ADD MLOAD PUSH1 0x4 DUP2 GT ISZERO PUSH2 0x18CC JUMPI PUSH2 0x18CC PUSH2 0x354E JUMP JUMPDEST SUB PUSH2 0x19C4 JUMPI PUSH1 0x0 DUP4 DUP3 DUP2 MLOAD DUP2 LT PUSH2 0x18E5 JUMPI PUSH2 0x18E5 PUSH2 0x3E8E JUMP JUMPDEST PUSH1 0x20 MUL PUSH1 0x20 ADD ADD MLOAD MLOAD GT PUSH2 0x190B JUMPI PUSH1 0x40 MLOAD PUSH3 0x461BCD PUSH1 0xE5 SHL DUP2 MSTORE PUSH1 0x4 ADD PUSH2 0xC0E SWAP1 PUSH2 0x3F2F JUMP JUMPDEST PUSH1 0x0 DUP7 DUP3 DUP2 MLOAD DUP2 LT PUSH2 0x191F JUMPI PUSH2 0x191F PUSH2 0x3E8E JUMP JUMPDEST PUSH1 0x20 MUL PUSH1 0x20 ADD ADD MLOAD MLOAD GT DUP1 ISZERO PUSH2 0x196E JUMPI POP PUSH1 0xB DUP7 DUP3 DUP2 MLOAD DUP2 LT PUSH2 0x1944 JUMPI PUSH2 0x1944 PUSH2 0x3E8E JUMP JUMPDEST PUSH1 0x20 MUL PUSH1 0x20 ADD ADD MLOAD PUSH1 0x40 MLOAD PUSH2 0x1959 SWAP2 SWAP1 PUSH2 0x3F76 JUMP JUMPDEST SWAP1 DUP2 MSTORE PUSH1 0x40 MLOAD SWAP1 DUP2 SWAP1 SUB PUSH1 0x20 ADD SWAP1 KECCAK256 SLOAD PUSH1 0xFF AND ISZERO JUMPDEST ISZERO PUSH2 0x19BF JUMPI PUSH1 0x1 PUSH1 0xB DUP8 DUP4 DUP2 MLOAD DUP2 LT PUSH2 0x1989 JUMPI PUSH2 0x1989 PUSH2 0x3E8E JUMP JUMPDEST PUSH1 0x20 MUL PUSH1 0x20 ADD ADD MLOAD PUSH1 0x40 MLOAD PUSH2 0x199E SWAP2 SWAP1 PUSH2 0x3F76 JUMP JUMPDEST SWAP1 DUP2 MSTORE PUSH1 0x40 MLOAD SWAP1 DUP2 SWAP1 SUB PUSH1 0x20 ADD SWAP1 KECCAK256 DUP1 SLOAD SWAP2 ISZERO ISZERO PUSH1 0xFF NOT SWAP1 SWAP3 AND SWAP2 SWAP1 SWAP2 OR SWAP1 SSTORE JUMPDEST PUSH2 0x1B74 JUMP JUMPDEST PUSH1 0x0 DUP7 DUP3 DUP2 MLOAD DUP2 LT PUSH2 0x19D8 JUMPI PUSH2 0x19D8 PUSH2 0x3E8E JUMP JUMPDEST PUSH1 0x20 MUL PUSH1 0x20 ADD ADD MLOAD MLOAD GT PUSH2 0x19FE JUMPI PUSH1 0x40 MLOAD PUSH3 0x461BCD PUSH1 0xE5 SHL DUP2 MSTORE PUSH1 0x4 ADD PUSH2 0xC0E SWAP1 PUSH2 0x3F92 JUMP JUMPDEST PUSH1 0xB DUP7 DUP3 DUP2 MLOAD DUP2 LT PUSH2 0x1A12 JUMPI PUSH2 0x1A12 PUSH2 0x3E8E JUMP JUMPDEST PUSH1 0x20 MUL PUSH1 0x20 ADD ADD MLOAD PUSH1 0x40 MLOAD PUSH2 0x1A27 SWAP2 SWAP1 PUSH2 0x3F76 JUMP JUMPDEST SWAP1 DUP2 MSTORE PUSH1 0x40 MLOAD SWAP1 DUP2 SWAP1 SUB PUSH1 0x20 ADD SWAP1 KECCAK256 SLOAD PUSH1 0xFF AND ISZERO PUSH2 0x1A80 JUMPI PUSH1 0x40 MLOAD PUSH3 0x461BCD PUSH1 0xE5 SHL DUP2 MSTORE PUSH1 0x20 PUSH1 0x4 DUP3 ADD MSTORE PUSH1 0x16 PUSH1 0x24 DUP3 ADD MSTORE PUSH22 0x12541194C81A185CDA08185B1C9958591E481D5CD959 PUSH1 0x52 SHL PUSH1 0x44 DUP3 ADD MSTORE PUSH1 0x64 ADD PUSH2 0xC0E JUMP JUMPDEST PUSH4 0x2FAF080 DUP5 DUP3 DUP2 MLOAD DUP2 LT PUSH2 0x1A97 JUMPI PUSH2 0x1A97 PUSH2 0x3E8E JUMP JUMPDEST PUSH1 0x20 MUL PUSH1 0x20 ADD ADD MLOAD GT ISZERO PUSH2 0x1ADE JUMPI PUSH1 0x40 MLOAD PUSH3 0x461BCD PUSH1 0xE5 SHL DUP2 MSTORE PUSH1 0x20 PUSH1 0x4 DUP3 ADD MSTORE PUSH1 0xE PUSH1 0x24 DUP3 ADD MSTORE PUSH14 0x46696C6520746F6F206C61726765 PUSH1 0x90 SHL PUSH1 0x44 DUP3 ADD MSTORE PUSH1 0x64 ADD PUSH2 0xC0E JUMP JUMPDEST PUSH4 0x3B9ACA00 DUP5 DUP3 DUP2 MLOAD DUP2 LT PUSH2 0x1AF5 JUMPI PUSH2 0x1AF5 PUSH2 0x3E8E JUMP JUMPDEST PUSH1 0x20 MUL PUSH1 0x20 ADD ADD MLOAD PUSH1 0xC PUSH1 0x0 CALLER PUSH1 0x1 PUSH1 0x1 PUSH1 0xA0 SHL SUB AND PUSH1 0x1 PUSH1 0x1 PUSH1 0xA0 SHL SUB AND DUP2 MSTORE PUSH1 0x20 ADD SWAP1 DUP2 MSTORE PUSH1 0x20 ADD PUSH1 0x0 KECCAK256 SLOAD PUSH2 0x1B2D SWAP2 SWAP1 PUSH2 0x3FED JUMP JUMPDEST GT ISZERO PUSH2 0x1B74 JUMPI PUSH1 0x40 MLOAD PUSH3 0x461BCD PUSH1 0xE5 SHL DUP2 MSTORE PUSH1 0x20 PUSH1 0x4 DUP3 ADD MSTORE PUSH1 0x16 PUSH1 0x24 DUP3 ADD MSTORE PUSH22 0x14DD1BDC9859D9481B1A5B5A5D08195E18D959591959 PUSH1 0x52 SHL PUSH1 0x44 DUP3 ADD MSTORE PUSH1 0x64 ADD PUSH2 0xC0E JUMP JUMPDEST PUSH1 0x0 CALLER DUP12 DUP4 DUP2 MLOAD DUP2 LT PUSH2 0x1B89 JUMPI PUSH2 0x1B89 PUSH2 0x3E8E JUMP JUMPDEST PUSH1 0x20 MUL PUSH1 0x20 ADD ADD MLOAD DUP12 DUP5 DUP2 MLOAD DUP2 LT PUSH2 0x1BA3 JUMPI PUSH2 0x1BA3 PUSH2 0x3E8E JUMP JUMPDEST PUSH1 0x20 SWAP1 DUP2 MUL SWAP2 SWAP1 SWAP2 ADD DUP2 ADD MLOAD PUSH1 0x40 MLOAD PUSH12 0xFFFFFFFFFFFFFFFFFFFFFFFF NOT PUSH1 0x60 SWAP6 DUP7 SHL DUP2 AND SWAP4 DUP3 ADD SWAP4 SWAP1 SWAP4 MSTORE SWAP3 SWAP1 SWAP4 SHL AND PUSH1 0x34 DUP3 ADD MSTORE PUSH1 0x48 DUP2 ADD SWAP2 SWAP1 SWAP2 MSTORE TIMESTAMP PUSH1 0x68 DUP3 ADD MSTORE NUMBER PUSH1 0x88 DUP3 ADD MSTORE PUSH1 0xA8 DUP2 ADD DUP4 SWAP1 MSTORE PUSH1 0xC8 ADD PUSH1 0x40 MLOAD PUSH1 0x20 DUP2 DUP4 SUB SUB DUP2 MSTORE SWAP1 PUSH1 0x40 MSTORE DUP1 MLOAD SWAP1 PUSH1 0x20 ADD KECCAK256 SWAP1 POP PUSH1 0x0 DUP9 DUP4 DUP2 MLOAD DUP2 LT PUSH2 0x1C22 JUMPI PUSH2 0x1C22 PUSH2 0x3E8E JUMP JUMPDEST PUSH1 0x20 MUL PUSH1 0x20 ADD ADD MLOAD GT ISZERO PUSH2 0x1F0F JUMPI PUSH1 0x0 PUSH1 0x1 PUSH1 0x1 PUSH1 0xA0 SHL SUB AND DUP10 DUP4 DUP2 MLOAD DUP2 LT PUSH2 0x1C4D JUMPI PUSH2 0x1C4D PUSH2 0x3E8E JUMP JUMPDEST PUSH1 0x20 MUL PUSH1 0x20 ADD ADD MLOAD PUSH1 0x1 PUSH1 0x1 PUSH1 0xA0 SHL SUB AND SUB PUSH2 0x1D98 JUMPI DUP8 DUP3 DUP2 MLOAD DUP2 LT PUSH2 0x1C75 JUMPI PUSH2 0x1C75 PUSH2 0x3E8E JUMP JUMPDEST PUSH1 0x20 MUL PUSH1 0x20 ADD ADD MLOAD CALLVALUE LT ISZERO PUSH2 0x1CC7 JUMPI PUSH1 0x40 MLOAD PUSH3 0x461BCD PUSH1 0xE5 SHL DUP2 MSTORE PUSH1 0x20 PUSH1 0x4 DUP3 ADD MSTORE PUSH1 0x18 PUSH1 0x24 DUP3 ADD MSTORE PUSH24 0x125B9CDD59999A58DA595B9D08115512081C185E5B595B9D PUSH1 0x42 SHL PUSH1 0x44 DUP3 ADD MSTORE PUSH1 0x64 ADD PUSH2 0xC0E JUMP JUMPDEST PUSH1 0x0 DUP12 DUP4 DUP2 MLOAD DUP2 LT PUSH2 0x1CDB JUMPI PUSH2 0x1CDB PUSH2 0x3E8E JUMP JUMPDEST PUSH1 0x20 MUL PUSH1 0x20 ADD ADD MLOAD PUSH1 0x1 PUSH1 0x1 PUSH1 0xA0 SHL SUB AND DUP10 DUP5 DUP2 MLOAD DUP2 LT PUSH2 0x1CFE JUMPI PUSH2 0x1CFE PUSH2 0x3E8E JUMP JUMPDEST PUSH1 0x20 MUL PUSH1 0x20 ADD ADD MLOAD PUSH1 0x40 MLOAD PUSH1 0x0 PUSH1 0x40 MLOAD DUP1 DUP4 SUB DUP2 DUP6 DUP8 GAS CALL SWAP3 POP POP POP RETURNDATASIZE DUP1 PUSH1 0x0 DUP2 EQ PUSH2 0x1D46 JUMPI PUSH1 0x40 MLOAD SWAP2 POP PUSH1 0x1F NOT PUSH1 0x3F RETURNDATASIZE ADD AND DUP3 ADD PUSH1 0x40 MSTORE RETURNDATASIZE DUP3 MSTORE RETURNDATASIZE PUSH1 0x0 PUSH1 0x20 DUP5 ADD RETURNDATACOPY PUSH2 0x1D4B JUMP JUMPDEST PUSH1 0x60 SWAP2 POP JUMPDEST POP POP SWAP1 POP DUP1 PUSH2 0x1D92 JUMPI PUSH1 0x40 MLOAD PUSH3 0x461BCD PUSH1 0xE5 SHL DUP2 MSTORE PUSH1 0x20 PUSH1 0x4 DUP3 ADD MSTORE PUSH1 0x13 PUSH1 0x24 DUP3 ADD MSTORE PUSH19 0x115512081D1C985B9CD9995C8819985A5B1959 PUSH1 0x6A SHL PUSH1 0x44 DUP3 ADD MSTORE PUSH1 0x64 ADD PUSH2 0xC0E JUMP JUMPDEST POP PUSH2 0x1EBB JUMP JUMPDEST PUSH1 0x0 DUP10 DUP4 DUP2 MLOAD DUP2 LT PUSH2 0x1DAC JUMPI PUSH2 0x1DAC PUSH2 0x3E8E JUMP JUMPDEST PUSH1 0x20 MUL PUSH1 0x20 ADD ADD MLOAD SWAP1 POP DUP1 PUSH1 0x1 PUSH1 0x1 PUSH1 0xA0 SHL SUB AND PUSH4 0x23B872DD CALLER DUP15 DUP7 DUP2 MLOAD DUP2 LT PUSH2 0x1DD8 JUMPI PUSH2 0x1DD8 PUSH2 0x3E8E JUMP JUMPDEST PUSH1 0x20 MUL PUSH1 0x20 ADD ADD MLOAD DUP13 DUP8 DUP2 MLOAD DUP2 LT PUSH2 0x1DF2 JUMPI PUSH2 0x1DF2 PUSH2 0x3E8E JUMP JUMPDEST PUSH1 0x20 SWAP1 DUP2 MUL SWAP2 SWAP1 SWAP2 ADD ADD MLOAD PUSH1 0x40 MLOAD PUSH1 0x1 PUSH1 0x1 PUSH1 0xE0 SHL SUB NOT PUSH1 0xE0 DUP7 SWAP1 SHL AND DUP2 MSTORE PUSH1 0x1 PUSH1 0x1 PUSH1 0xA0 SHL SUB SWAP4 DUP5 AND PUSH1 0x4 DUP3 ADD MSTORE SWAP3 SWAP1 SWAP2 AND PUSH1 0x24 DUP4 ADD MSTORE PUSH1 0x44 DUP3 ADD MSTORE PUSH1 0x64 ADD PUSH1 0x20 PUSH1 0x40 MLOAD DUP1 DUP4 SUB DUP2 PUSH1 0x0 DUP8 GAS CALL ISZERO DUP1 ISZERO PUSH2 0x1E51 JUMPI RETURNDATASIZE PUSH1 0x0 DUP1 RETURNDATACOPY RETURNDATASIZE PUSH1 0x0 REVERT JUMPDEST POP POP POP POP PUSH1 0x40 MLOAD RETURNDATASIZE PUSH1 0x1F NOT PUSH1 0x1F DUP3 ADD AND DUP3 ADD DUP1 PUSH1 0x40 MSTORE POP DUP2 ADD SWAP1 PUSH2 0x1E75 SWAP2 SWAP1 PUSH2 0x4000 JUMP JUMPDEST PUSH2 0x1EB9 JUMPI PUSH1 0x40 MLOAD PUSH3 0x461BCD PUSH1 0xE5 SHL DUP2 MSTORE PUSH1 0x20 PUSH1 0x4 DUP3 ADD MSTORE PUSH1 0x15 PUSH1 0x24 DUP3 ADD MSTORE PUSH21 0x151BDAD95B881D1C985B9CD9995C8819985A5B1959 PUSH1 0x5A SHL PUSH1 0x44 DUP3 ADD MSTORE PUSH1 0x64 ADD PUSH2 0xC0E JUMP JUMPDEST POP JUMPDEST DUP1 PUSH32 0x59DCD7F7740501F043C7FDD2559D35E50B1C6D9CFA1C72352BBCCCFC45467554 DUP10 DUP5 DUP2 MLOAD DUP2 LT PUSH2 0x1EEF JUMPI PUSH2 0x1EEF PUSH2 0x3E8E JUMP JUMPDEST PUSH1 0x20 MUL PUSH1 0x20 ADD ADD MLOAD PUSH1 0x40 MLOAD PUSH2 0x1F06 SWAP2 DUP2 MSTORE PUSH1 0x20 ADD SWAP1 JUMP JUMPDEST PUSH1 0x40 MLOAD DUP1 SWAP2 SUB SWAP1 LOG2 JUMPDEST PUSH1 0x40 MLOAD DUP1 PUSH2 0x180 ADD PUSH1 0x40 MSTORE DUP1 CALLER PUSH1 0x1 PUSH1 0x1 PUSH1 0xA0 SHL SUB AND DUP2 MSTORE PUSH1 0x20 ADD DUP13 DUP5 DUP2 MLOAD DUP2 LT PUSH2 0x1F3C JUMPI PUSH2 0x1F3C PUSH2 0x3E8E JUMP JUMPDEST PUSH1 0x20 MUL PUSH1 0x20 ADD ADD MLOAD PUSH1 0x1 PUSH1 0x1 PUSH1 0xA0 SHL SUB AND DUP2 MSTORE PUSH1 0x20 ADD DUP12 DUP5 DUP2 MLOAD DUP2 LT PUSH2 0x1F64 JUMPI PUSH2 0x1F64 PUSH2 0x3E8E JUMP JUMPDEST PUSH1 0x20 MUL PUSH1 0x20 ADD ADD MLOAD DUP2 MSTORE PUSH1 0x20 ADD TIMESTAMP DUP2 MSTORE PUSH1 0x20 ADD PUSH1 0x0 ISZERO ISZERO DUP2 MSTORE PUSH1 0x20 ADD PUSH1 0x0 ISZERO ISZERO DUP2 MSTORE PUSH1 0x20 ADD DUP10 DUP5 DUP2 MLOAD DUP2 LT PUSH2 0x1F9B JUMPI PUSH2 0x1F9B PUSH2 0x3E8E JUMP JUMPDEST PUSH1 0x20 MUL PUSH1 0x20 ADD ADD MLOAD DUP2 MSTORE PUSH1 0x20 ADD DUP11 DUP5 DUP2 MLOAD DUP2 LT PUSH2 0x1FBA JUMPI PUSH2 0x1FBA PUSH2 0x3E8E JUMP JUMPDEST PUSH1 0x20 MUL PUSH1 0x20 ADD ADD MLOAD PUSH1 0x1 PUSH1 0x1 PUSH1 0xA0 SHL SUB AND DUP2 MSTORE PUSH1 0x20 ADD DUP9 DUP5 DUP2 MLOAD DUP2 LT PUSH2 0x1FE2 JUMPI PUSH2 0x1FE2 PUSH2 0x3E8E JUMP JUMPDEST PUSH1 0x20 MUL PUSH1 0x20 ADD ADD MLOAD DUP2 MSTORE PUSH1 0x20 ADD DUP8 DUP5 DUP2 MLOAD DUP2 LT PUSH2 0x2001 JUMPI PUSH2 0x2001 PUSH2 0x3E8E JUMP JUMPDEST PUSH1 0x20 MUL PUSH1 0x20 ADD ADD MLOAD PUSH1 0x4 DUP2 GT ISZERO PUSH2 0x201A JUMPI PUSH2 0x201A PUSH2 0x354E JUMP JUMPDEST DUP2 MSTORE PUSH1 0x20 ADD DUP7 DUP5 DUP2 MLOAD DUP2 LT PUSH2 0x2031 JUMPI PUSH2 0x2031 PUSH2 0x3E8E JUMP JUMPDEST PUSH1 0x20 MUL PUSH1 0x20 ADD ADD MLOAD DUP2 MSTORE PUSH1 0x20 ADD DUP6 DUP5 DUP2 MLOAD DUP2 LT PUSH2 0x2050 JUMPI PUSH2 0x2050 PUSH2 0x3E8E JUMP JUMPDEST PUSH1 0x20 SWAP1 DUP2 MUL SWAP2 SWAP1 SWAP2 ADD DUP2 ADD MLOAD SWAP1 SWAP2 MSTORE PUSH1 0x0 DUP4 DUP2 MSTORE PUSH1 0x3 DUP1 DUP4 MSTORE PUSH1 0x40 SWAP2 DUP3 SWAP1 KECCAK256 DUP5 MLOAD DUP2 SLOAD PUSH1 0x1 PUSH1 0x1 PUSH1 0xA0 SHL SUB NOT SWAP1 DUP2 AND PUSH1 0x1 PUSH1 0x1 PUSH1 0xA0 SHL SUB SWAP3 DUP4 AND OR DUP4 SSTORE SWAP5 DUP7 ADD MLOAD PUSH1 0x1 DUP4 ADD DUP1 SLOAD DUP8 AND SWAP2 DUP4 AND SWAP2 SWAP1 SWAP2 OR SWAP1 SSTORE SWAP3 DUP6 ADD MLOAD PUSH1 0x2 DUP3 ADD SSTORE PUSH1 0x60 DUP6 ADD MLOAD SWAP2 DUP2 ADD SWAP2 SWAP1 SWAP2 SSTORE PUSH1 0x80 DUP5 ADD MLOAD PUSH1 0x4 DUP3 ADD DUP1 SLOAD PUSH1 0xA0 DUP8 ADD MLOAD PUSH2 0xFFFF NOT SWAP1 SWAP2 AND SWAP3 ISZERO ISZERO PUSH2 0xFF00 NOT AND SWAP3 SWAP1 SWAP3 OR PUSH2 0x100 SWAP3 ISZERO ISZERO DUP4 MUL OR SWAP1 SSTORE PUSH1 0xC0 DUP6 ADD MLOAD PUSH1 0x5 DUP4 ADD SSTORE PUSH1 0xE0 DUP6 ADD MLOAD PUSH1 0x6 DUP4 ADD DUP1 SLOAD SWAP1 SWAP6 AND SWAP4 AND SWAP3 SWAP1 SWAP3 OR SWAP1 SWAP3 SSTORE DUP3 ADD MLOAD PUSH1 0x7 DUP3 ADD SWAP1 PUSH2 0x2118 SWAP1 DUP3 PUSH2 0x4071 JUMP JUMPDEST POP PUSH2 0x120 DUP3 ADD MLOAD PUSH1 0x8 DUP3 ADD DUP1 SLOAD PUSH1 0xFF NOT AND PUSH1 0x1 DUP4 PUSH1 0x4 DUP2 GT ISZERO PUSH2 0x213D JUMPI PUSH2 0x213D PUSH2 0x354E JUMP JUMPDEST MUL OR SWAP1 SSTORE POP PUSH2 0x140 DUP3 ADD MLOAD PUSH1 0x9 DUP3 ADD SSTORE PUSH2 0x160 DUP3 ADD MLOAD PUSH1 0xA DUP3 ADD SWAP1 PUSH2 0x2162 SWAP1 DUP3 PUSH2 0x4071 JUMP JUMPDEST POP POP CALLER PUSH1 0x0 SWAP1 DUP2 MSTORE PUSH1 0x5 PUSH1 0x20 DUP2 DUP2 MSTORE PUSH1 0x40 DUP4 KECCAK256 DUP1 SLOAD PUSH1 0x1 DUP2 ADD DUP3 SSTORE SWAP1 DUP5 MSTORE SWAP1 DUP4 KECCAK256 ADD DUP5 SWAP1 SSTORE DUP14 MLOAD SWAP1 SWAP3 POP DUP14 SWAP1 DUP6 SWAP1 DUP2 LT PUSH2 0x219E JUMPI PUSH2 0x219E PUSH2 0x3E8E JUMP JUMPDEST PUSH1 0x20 SWAP1 DUP2 MUL SWAP2 SWAP1 SWAP2 ADD DUP2 ADD MLOAD PUSH1 0x1 PUSH1 0x1 PUSH1 0xA0 SHL SUB AND DUP3 MSTORE DUP2 DUP2 ADD SWAP3 SWAP1 SWAP3 MSTORE PUSH1 0x40 ADD PUSH1 0x0 SWAP1 DUP2 KECCAK256 DUP1 SLOAD PUSH1 0x1 DUP2 ADD DUP3 SSTORE SWAP1 DUP3 MSTORE SWAP2 SWAP1 KECCAK256 ADD DUP2 SWAP1 SSTORE DUP3 MLOAD DUP2 SWAP1 DUP5 SWAP1 DUP5 SWAP1 DUP2 LT PUSH2 0x21EC JUMPI PUSH2 0x21EC PUSH2 0x3E8E JUMP JUMPDEST PUSH1 0x20 MUL PUSH1 0x20 ADD ADD DUP2 DUP2 MSTORE POP POP PUSH1 0x0 DUP8 DUP4 DUP2 MLOAD DUP2 LT PUSH2 0x220C JUMPI PUSH2 0x220C PUSH2 0x3E8E JUMP JUMPDEST PUSH1 0x20 MUL PUSH1 0x20 ADD ADD MLOAD MLOAD GT DUP1 ISZERO PUSH2 0x225B JUMPI POP PUSH1 0xB DUP8 DUP4 DUP2 MLOAD DUP2 LT PUSH2 0x2231 JUMPI PUSH2 0x2231 PUSH2 0x3E8E JUMP JUMPDEST PUSH1 0x20 MUL PUSH1 0x20 ADD ADD MLOAD PUSH1 0x40 MLOAD PUSH2 0x2246 SWAP2 SWAP1 PUSH2 0x3F76 JUMP JUMPDEST SWAP1 DUP2 MSTORE PUSH1 0x40 MLOAD SWAP1 DUP2 SWAP1 SUB PUSH1 0x20 ADD SWAP1 KECCAK256 SLOAD PUSH1 0xFF AND ISZERO JUMPDEST ISZERO PUSH2 0x22AC JUMPI PUSH1 0x1 PUSH1 0xB DUP9 DUP5 DUP2 MLOAD DUP2 LT PUSH2 0x2276 JUMPI PUSH2 0x2276 PUSH2 0x3E8E JUMP JUMPDEST PUSH1 0x20 MUL PUSH1 0x20 ADD ADD MLOAD PUSH1 0x40 MLOAD PUSH2 0x228B SWAP2 SWAP1 PUSH2 0x3F76 JUMP JUMPDEST SWAP1 DUP2 MSTORE PUSH1 0x40 MLOAD SWAP1 DUP2 SWAP1 SUB PUSH1 0x20 ADD SWAP1 KECCAK256 DUP1 SLOAD SWAP2 ISZERO ISZERO PUSH1 0xFF NOT SWAP1 SWAP3 AND SWAP2 SWAP1 SWAP2 OR SWAP1 SSTORE JUMPDEST PUSH1 0x0 DUP7 DUP4 DUP2 MLOAD DUP2 LT PUSH2 0x22C0 JUMPI PUSH2 0x22C0 PUSH2 0x3E8E JUMP JUMPDEST PUSH1 0x20 MUL PUSH1 0x20 ADD ADD MLOAD PUSH1 0x4 DUP2 GT ISZERO PUSH2 0x22D9 JUMPI PUSH2 0x22D9 PUSH2 0x354E JUMP JUMPDEST EQ PUSH2 0x2332 JUMPI DUP5 DUP3 DUP2 MLOAD DUP2 LT PUSH2 0x22F0 JUMPI PUSH2 0x22F0 PUSH2 0x3E8E JUMP JUMPDEST PUSH1 0x20 MUL PUSH1 0x20 ADD ADD MLOAD PUSH1 0xC PUSH1 0x0 CALLER PUSH1 0x1 PUSH1 0x1 PUSH1 0xA0 SHL SUB AND PUSH1 0x1 PUSH1 0x1 PUSH1 0xA0 SHL SUB AND DUP2 MSTORE PUSH1 0x20 ADD SWAP1 DUP2 MSTORE PUSH1 0x20 ADD PUSH1 0x0 KECCAK256 PUSH1 0x0 DUP3 DUP3 SLOAD PUSH2 0x232C SWAP2 SWAP1 PUSH2 0x3FED JUMP JUMPDEST SWAP1 SWAP2 SSTORE POP POP JUMPDEST POP PUSH1 0x1 ADD PUSH2 0x16CE JUMP JUMPDEST POP DUP9 MLOAD CALLER PUSH1 0x0 SWAP1 DUP2 MSTORE PUSH1 0xA PUSH1 0x20 MSTORE PUSH1 0x40 DUP2 KECCAK256 DUP1 SLOAD SWAP1 SWAP2 SWAP1 PUSH2 0x235D SWAP1 DUP5 SWAP1 PUSH2 0x3FED JUMP JUMPDEST SWAP1 SWAP2 SSTORE POP POP PUSH1 0x40 MLOAD CALLER SWAP1 PUSH32 0xB86AE99ED5193DC66280D13677675BD13564A983809D971C92DE3BF5049BBE19 SWAP1 PUSH2 0x2394 SWAP1 DUP5 SWAP1 PUSH2 0x3D30 JUMP JUMPDEST PUSH1 0x40 MLOAD DUP1 SWAP2 SUB SWAP1 LOG2 POP PUSH2 0x23A7 PUSH1 0x1 PUSH1 0x0 SSTORE JUMP JUMPDEST POP POP POP POP POP POP POP POP JUMP JUMPDEST PUSH2 0x23B9 PUSH2 0x318D JUMP JUMPDEST PUSH2 0x1207 PUSH1 0x0 PUSH2 0x3386 JUMP JUMPDEST PUSH2 0x23CB PUSH2 0x318D JUMP JUMPDEST PUSH2 0x1207 PUSH2 0x33D8 JUMP JUMPDEST PUSH1 0x1 PUSH1 0x1 PUSH1 0xA0 SHL SUB DUP2 AND PUSH1 0x0 SWAP1 DUP2 MSTORE PUSH1 0xC PUSH1 0x20 MSTORE PUSH1 0x40 DUP2 KECCAK256 SLOAD PUSH2 0x23FA SWAP1 PUSH4 0x3B9ACA00 PUSH2 0x412F JUMP JUMPDEST SWAP3 SWAP2 POP POP JUMP JUMPDEST PUSH1 0x5 PUSH1 0x20 MSTORE DUP2 PUSH1 0x0 MSTORE PUSH1 0x40 PUSH1 0x0 KECCAK256 DUP2 DUP2 SLOAD DUP2 LT PUSH2 0x241C JUMPI PUSH1 0x0 DUP1 REVERT JUMPDEST SWAP1 PUSH1 0x0 MSTORE PUSH1 0x20 PUSH1 0x0 KECCAK256 ADD PUSH1 0x0 SWAP2 POP SWAP2 POP POP SLOAD DUP2 JUMP JUMPDEST PUSH1 0x1 PUSH1 0x1 PUSH1 0xA0 SHL SUB DUP2 AND PUSH1 0x0 SWAP1 DUP2 MSTORE PUSH1 0x5 PUSH1 0x20 SWAP1 DUP2 MSTORE PUSH1 0x40 SWAP2 DUP3 SWAP1 KECCAK256 DUP1 SLOAD DUP4 MLOAD DUP2 DUP5 MUL DUP2 ADD DUP5 ADD SWAP1 SWAP5 MSTORE DUP1 DUP5 MSTORE PUSH1 0x60 SWAP4 SWAP3 DUP4 ADD DUP3 DUP3 DUP1 ISZERO PUSH2 0x1115 JUMPI PUSH1 0x20 MUL DUP3 ADD SWAP2 SWAP1 PUSH1 0x0 MSTORE PUSH1 0x20 PUSH1 0x0 KECCAK256 SWAP1 JUMPDEST DUP2 SLOAD DUP2 MSTORE PUSH1 0x20 ADD SWAP1 PUSH1 0x1 ADD SWAP1 DUP1 DUP4 GT PUSH2 0x247D JUMPI POP POP POP POP POP SWAP1 POP SWAP2 SWAP1 POP JUMP JUMPDEST CALLER PUSH1 0x0 SWAP1 DUP2 MSTORE PUSH1 0x2 PUSH1 0x20 MSTORE PUSH1 0x40 SWAP1 KECCAK256 PUSH1 0x1 ADD SLOAD PUSH1 0xFF AND PUSH2 0x24CE JUMPI PUSH1 0x40 MLOAD PUSH3 0x461BCD PUSH1 0xE5 SHL DUP2 MSTORE PUSH1 0x4 ADD PUSH2 0xC0E SWAP1 PUSH2 0x3E61 JUMP JUMPDEST DUP1 PUSH2 0x2510 JUMPI PUSH1 0x40 MLOAD PUSH3 0x461BCD PUSH1 0xE5 SHL DUP2 MSTORE PUSH1 0x20 PUSH1 0x4 DUP3 ADD MSTORE PUSH1 0x12 PUSH1 0x24 DUP3 ADD MSTORE PUSH18 0x496E76616C6964207075626C6963206B6579 PUSH1 0x70 SHL PUSH1 0x44 DUP3 ADD MSTORE PUSH1 0x64 ADD PUSH2 0xC0E JUMP JUMPDEST CALLER PUSH1 0x0 SWAP1 DUP2 MSTORE PUSH1 0x2 PUSH1 0x20 DUP2 SWAP1 MSTORE PUSH1 0x40 SWAP1 SWAP2 KECCAK256 SWAP2 DUP3 SSTORE TIMESTAMP SWAP2 ADD SSTORE JUMP JUMPDEST CALLER PUSH1 0x0 SWAP1 DUP2 MSTORE PUSH1 0x2 PUSH1 0x20 MSTORE PUSH1 0x40 SWAP1 KECCAK256 PUSH1 0x1 ADD SLOAD PUSH1 0xFF AND PUSH2 0x255D JUMPI PUSH1 0x40 MLOAD PUSH3 0x461BCD PUSH1 0xE5 SHL DUP2 MSTORE PUSH1 0x4 ADD PUSH2 0xC0E SWAP1 PUSH2 0x3E61 JUMP JUMPDEST PUSH2 0x2565 PUSH2 0x32E0 JUMP JUMPDEST PUSH2 0x256D PUSH2 0x3339 JUMP JUMPDEST PUSH1 0x1 PUSH1 0x1 PUSH1 0xA0 SHL SUB DUP9 AND PUSH2 0x25B7 JUMPI PUSH1 0x40 MLOAD PUSH3 0x461BCD PUSH1 0xE5 SHL DUP2 MSTORE PUSH1 0x20 PUSH1 0x4 DUP3 ADD MSTORE PUSH1 0x11 PUSH1 0x24 DUP3 ADD MSTORE PUSH17 0x125B9D985B1A59081C9958DA5C1A595B9D PUSH1 0x7A SHL PUSH1 0x44 DUP3 ADD MSTORE PUSH1 0x64 ADD PUSH2 0xC0E JUMP JUMPDEST CALLER PUSH1 0x1 PUSH1 0x1 PUSH1 0xA0 SHL SUB DUP10 AND SUB PUSH2 0x2605 JUMPI PUSH1 0x40 MLOAD PUSH3 0x461BCD PUSH1 0xE5 SHL DUP2 MSTORE PUSH1 0x20 PUSH1 0x4 DUP3 ADD MSTORE PUSH1 0x13 PUSH1 0x24 DUP3 ADD MSTORE PUSH19 0x21B0B73737BA1039B2B732103A379039B2B633 PUSH1 0x69 SHL PUSH1 0x44 DUP3 ADD MSTORE PUSH1 0x64 ADD PUSH2 0xC0E JUMP JUMPDEST PUSH1 0x1 PUSH1 0x1 PUSH1 0xA0 SHL SUB DUP9 AND PUSH1 0x0 SWAP1 DUP2 MSTORE PUSH1 0x2 PUSH1 0x20 MSTORE PUSH1 0x40 SWAP1 KECCAK256 PUSH1 0x1 ADD SLOAD PUSH1 0xFF AND PUSH2 0x266B JUMPI PUSH1 0x40 MLOAD PUSH3 0x461BCD PUSH1 0xE5 SHL DUP2 MSTORE PUSH1 0x20 PUSH1 0x4 DUP3 ADD MSTORE PUSH1 0x18 PUSH1 0x24 DUP3 ADD MSTORE PUSH24 0x149958DA5C1A595B9D081B9BDD081C9959DA5CDD195C9959 PUSH1 0x42 SHL PUSH1 0x44 DUP3 ADD MSTORE PUSH1 0x64 ADD PUSH2 0xC0E JUMP JUMPDEST DUP7 PUSH2 0x26AF JUMPI PUSH1 0x40 MLOAD PUSH3 0x461BCD PUSH1 0xE5 SHL DUP2 MSTORE PUSH1 0x20 PUSH1 0x4 DUP3 ADD MSTORE PUSH1 0x14 PUSH1 0x24 DUP3 ADD MSTORE PUSH20 0x92DCECC2D8D2C840DACAE6E6C2CECA40D0C2E6D PUSH1 0x63 SHL PUSH1 0x44 DUP3 ADD MSTORE PUSH1 0x64 ADD PUSH2 0xC0E JUMP JUMPDEST CALLER PUSH1 0x0 SWAP1 DUP2 MSTORE PUSH1 0xA PUSH1 0x20 MSTORE PUSH1 0x40 SWAP1 KECCAK256 SLOAD PUSH2 0x2710 GT PUSH2 0x270F JUMPI PUSH1 0x40 MLOAD PUSH3 0x461BCD PUSH1 0xE5 SHL DUP2 MSTORE PUSH1 0x20 PUSH1 0x4 DUP3 ADD MSTORE PUSH1 0x1B PUSH1 0x24 DUP3 ADD MSTORE PUSH32 0x55736572206D657373616765206C696D69742065786365656465640000000000 PUSH1 0x44 DUP3 ADD MSTORE PUSH1 0x64 ADD PUSH2 0xC0E JUMP JUMPDEST PUSH1 0x0 DUP4 PUSH1 0x4 DUP2 GT ISZERO PUSH2 0x2723 JUMPI PUSH2 0x2723 PUSH2 0x354E JUMP JUMPDEST SUB PUSH2 0x27B7 JUMPI PUSH1 0x0 DUP2 MLOAD GT PUSH2 0x2749 JUMPI PUSH1 0x40 MLOAD PUSH3 0x461BCD PUSH1 0xE5 SHL DUP2 MSTORE PUSH1 0x4 ADD PUSH2 0xC0E SWAP1 PUSH2 0x3F2F JUMP JUMPDEST PUSH1 0x0 DUP5 MLOAD GT DUP1 ISZERO PUSH2 0x277A JUMPI POP PUSH1 0xB DUP5 PUSH1 0x40 MLOAD PUSH2 0x2765 SWAP2 SWAP1 PUSH2 0x3F76 JUMP JUMPDEST SWAP1 DUP2 MSTORE PUSH1 0x40 MLOAD SWAP1 DUP2 SWAP1 SUB PUSH1 0x20 ADD SWAP1 KECCAK256 SLOAD PUSH1 0xFF AND ISZERO JUMPDEST ISZERO PUSH2 0x27B2 JUMPI PUSH1 0x1 PUSH1 0xB DUP6 PUSH1 0x40 MLOAD PUSH2 0x2791 SWAP2 SWAP1 PUSH2 0x3F76 JUMP JUMPDEST SWAP1 DUP2 MSTORE PUSH1 0x40 MLOAD SWAP1 DUP2 SWAP1 SUB PUSH1 0x20 ADD SWAP1 KECCAK256 DUP1 SLOAD SWAP2 ISZERO ISZERO PUSH1 0xFF NOT SWAP1 SWAP3 AND SWAP2 SWAP1 SWAP2 OR SWAP1 SSTORE JUMPDEST PUSH2 0x28EE JUMP JUMPDEST PUSH1 0x0 DUP5 MLOAD GT PUSH2 0x27D8 JUMPI PUSH1 0x40 MLOAD PUSH3 0x461BCD PUSH1 0xE5 SHL DUP2 MSTORE PUSH1 0x4 ADD PUSH2 0xC0E SWAP1 PUSH2 0x3F92 JUMP JUMPDEST PUSH1 0xB DUP5 PUSH1 0x40 MLOAD PUSH2 0x27E8 SWAP2 SWAP1 PUSH2 0x3F76 JUMP JUMPDEST SWAP1 DUP2 MSTORE PUSH1 0x40 MLOAD SWAP1 DUP2 SWAP1 SUB PUSH1 0x20 ADD SWAP1 KECCAK256 SLOAD PUSH1 0xFF AND ISZERO PUSH2 0x2841 JUMPI PUSH1 0x40 MLOAD PUSH3 0x461BCD PUSH1 0xE5 SHL DUP2 MSTORE PUSH1 0x20 PUSH1 0x4 DUP3 ADD MSTORE PUSH1 0x16 PUSH1 0x24 DUP3 ADD MSTORE PUSH22 0x12541194C81A185CDA08185B1C9958591E481D5CD959 PUSH1 0x52 SHL PUSH1 0x44 DUP3 ADD MSTORE PUSH1 0x64 ADD PUSH2 0xC0E JUMP JUMPDEST PUSH4 0x2FAF080 DUP3 GT ISZERO PUSH2 0x2886 JUMPI PUSH1 0x40 MLOAD PUSH3 0x461BCD PUSH1 0xE5 SHL DUP2 MSTORE PUSH1 0x20 PUSH1 0x4 DUP3 ADD MSTORE PUSH1 0xE PUSH1 0x24 DUP3 ADD MSTORE PUSH14 0x46696C6520746F6F206C61726765 PUSH1 0x90 SHL PUSH1 0x44 DUP3 ADD MSTORE PUSH1 0x64 ADD PUSH2 0xC0E JUMP JUMPDEST CALLER PUSH1 0x0 SWAP1 DUP2 MSTORE PUSH1 0xC PUSH1 0x20 MSTORE PUSH1 0x40 SWAP1 KECCAK256 SLOAD PUSH4 0x3B9ACA00 SWAP1 PUSH2 0x28A7 SWAP1 DUP5 SWAP1 PUSH2 0x3FED JUMP JUMPDEST GT ISZERO PUSH2 0x28EE JUMPI PUSH1 0x40 MLOAD PUSH3 0x461BCD PUSH1 0xE5 SHL DUP2 MSTORE PUSH1 0x20 PUSH1 0x4 DUP3 ADD MSTORE PUSH1 0x16 PUSH1 0x24 DUP3 ADD MSTORE PUSH22 0x14DD1BDC9859D9481B1A5B5A5D08195E18D959591959 PUSH1 0x52 SHL PUSH1 0x44 DUP3 ADD MSTORE PUSH1 0x64 ADD PUSH2 0xC0E JUMP JUMPDEST PUSH1 0x40 MLOAD PUSH12 0xFFFFFFFFFFFFFFFFFFFFFFFF NOT CALLER PUSH1 0x60 SWAP1 DUP2 SHL DUP3 AND PUSH1 0x20 DUP5 ADD MSTORE DUP11 SWAP1 SHL AND PUSH1 0x34 DUP3 ADD MSTORE PUSH1 0x48 DUP2 ADD DUP9 SWAP1 MSTORE TIMESTAMP PUSH1 0x68 DUP3 ADD MSTORE NUMBER PUSH1 0x88 DUP3 ADD MSTORE PUSH1 0x0 SWAP1 PUSH1 0xA8 ADD PUSH1 0x40 MLOAD PUSH1 0x20 DUP2 DUP4 SUB SUB DUP2 MSTORE SWAP1 PUSH1 0x40 MSTORE DUP1 MLOAD SWAP1 PUSH1 0x20 ADD KECCAK256 SWAP1 POP PUSH1 0x0 DUP7 GT ISZERO PUSH2 0x2B44 JUMPI PUSH1 0x1 PUSH1 0x1 PUSH1 0xA0 SHL SUB DUP8 AND PUSH2 0x2A47 JUMPI DUP6 CALLVALUE LT ISZERO PUSH2 0x29A8 JUMPI PUSH1 0x40 MLOAD PUSH3 0x461BCD PUSH1 0xE5 SHL DUP2 MSTORE PUSH1 0x20 PUSH1 0x4 DUP3 ADD MSTORE PUSH1 0x18 PUSH1 0x24 DUP3 ADD MSTORE PUSH24 0x125B9CDD59999A58DA595B9D08115512081C185E5B595B9D PUSH1 0x42 SHL PUSH1 0x44 DUP3 ADD MSTORE PUSH1 0x64 ADD PUSH2 0xC0E JUMP JUMPDEST PUSH1 0x0 DUP10 PUSH1 0x1 PUSH1 0x1 PUSH1 0xA0 SHL SUB AND DUP8 PUSH1 0x40 MLOAD PUSH1 0x0 PUSH1 0x40 MLOAD DUP1 DUP4 SUB DUP2 DUP6 DUP8 GAS CALL SWAP3 POP POP POP RETURNDATASIZE DUP1 PUSH1 0x0 DUP2 EQ PUSH2 0x29F5 JUMPI PUSH1 0x40 MLOAD SWAP2 POP PUSH1 0x1F NOT PUSH1 0x3F RETURNDATASIZE ADD AND DUP3 ADD PUSH1 0x40 MSTORE RETURNDATASIZE DUP3 MSTORE RETURNDATASIZE PUSH1 0x0 PUSH1 0x20 DUP5 ADD RETURNDATACOPY PUSH2 0x29FA JUMP JUMPDEST PUSH1 0x60 SWAP2 POP JUMPDEST POP POP SWAP1 POP DUP1 PUSH2 0x2A41 JUMPI PUSH1 0x40 MLOAD PUSH3 0x461BCD PUSH1 0xE5 SHL DUP2 MSTORE PUSH1 0x20 PUSH1 0x4 DUP3 ADD MSTORE PUSH1 0x13 PUSH1 0x24 DUP3 ADD MSTORE PUSH19 0x115512081D1C985B9CD9995C8819985A5B1959 PUSH1 0x6A SHL PUSH1 0x44 DUP3 ADD MSTORE PUSH1 0x64 ADD PUSH2 0xC0E JUMP JUMPDEST POP PUSH2 0x2B09 JUMP JUMPDEST PUSH1 0x40 MLOAD PUSH4 0x23B872DD PUSH1 0xE0 SHL DUP2 MSTORE CALLER PUSH1 0x4 DUP3 ADD MSTORE PUSH1 0x1 PUSH1 0x1 PUSH1 0xA0 SHL SUB DUP11 DUP2 AND PUSH1 0x24 DUP4 ADD MSTORE PUSH1 0x44 DUP3 ADD DUP9 SWAP1 MSTORE DUP9 SWAP2 SWAP1 DUP3 AND SWAP1 PUSH4 0x23B872DD SWAP1 PUSH1 0x64 ADD PUSH1 0x20 PUSH1 0x40 MLOAD DUP1 DUP4 SUB DUP2 PUSH1 0x0 DUP8 GAS CALL ISZERO DUP1 ISZERO PUSH2 0x2A9F JUMPI RETURNDATASIZE PUSH1 0x0 DUP1 RETURNDATACOPY RETURNDATASIZE PUSH1 0x0 REVERT JUMPDEST POP POP POP POP PUSH1 0x40 MLOAD RETURNDATASIZE PUSH1 0x1F NOT PUSH1 0x1F DUP3 ADD AND DUP3 ADD DUP1 PUSH1 0x40 MSTORE POP DUP2 ADD SWAP1 PUSH2 0x2AC3 SWAP2 SWAP1 PUSH2 0x4000 JUMP JUMPDEST PUSH2 0x2B07 JUMPI PUSH1 0x40 MLOAD PUSH3 0x461BCD PUSH1 0xE5 SHL DUP2 MSTORE PUSH1 0x20 PUSH1 0x4 DUP3 ADD MSTORE PUSH1 0x15 PUSH1 0x24 DUP3 ADD MSTORE PUSH21 0x151BDAD95B881D1C985B9CD9995C8819985A5B1959 PUSH1 0x5A SHL PUSH1 0x44 DUP3 ADD MSTORE PUSH1 0x64 ADD PUSH2 0xC0E JUMP JUMPDEST POP JUMPDEST DUP1 PUSH32 0x59DCD7F7740501F043C7FDD2559D35E50B1C6D9CFA1C72352BBCCCFC45467554 DUP8 PUSH1 0x40 MLOAD PUSH2 0x2B3B SWAP2 DUP2 MSTORE PUSH1 0x20 ADD SWAP1 JUMP JUMPDEST PUSH1 0x40 MLOAD DUP1 SWAP2 SUB SWAP1 LOG2 JUMPDEST PUSH1 0x40 MLOAD DUP1 PUSH2 0x180 ADD PUSH1 0x40 MSTORE DUP1 CALLER PUSH1 0x1 PUSH1 0x1 PUSH1 0xA0 SHL SUB AND DUP2 MSTORE PUSH1 0x20 ADD DUP11 PUSH1 0x1 PUSH1 0x1 PUSH1 0xA0 SHL SUB AND DUP2 MSTORE PUSH1 0x20 ADD DUP10 DUP2 MSTORE PUSH1 0x20 ADD TIMESTAMP DUP2 MSTORE PUSH1 0x20 ADD PUSH1 0x0 ISZERO ISZERO DUP2 MSTORE PUSH1 0x20 ADD PUSH1 0x0 ISZERO ISZERO DUP2 MSTORE PUSH1 0x20 ADD DUP8 DUP2 MSTORE PUSH1 0x20 ADD DUP9 PUSH1 0x1 PUSH1 0x1 PUSH1 0xA0 SHL SUB AND DUP2 MSTORE PUSH1 0x20 ADD DUP7 DUP2 MSTORE PUSH1 0x20 ADD DUP6 PUSH1 0x4 DUP2 GT ISZERO PUSH2 0x2BB9 JUMPI PUSH2 0x2BB9 PUSH2 0x354E JUMP JUMPDEST DUP2 MSTORE PUSH1 0x20 DUP1 DUP3 ADD DUP7 SWAP1 MSTORE PUSH1 0x40 SWAP2 DUP3 ADD DUP6 SWAP1 MSTORE PUSH1 0x0 DUP5 DUP2 MSTORE PUSH1 0x3 DUP1 DUP4 MSTORE SWAP1 DUP4 SWAP1 KECCAK256 DUP5 MLOAD DUP2 SLOAD PUSH1 0x1 PUSH1 0x1 PUSH1 0xA0 SHL SUB NOT SWAP1 DUP2 AND PUSH1 0x1 PUSH1 0x1 PUSH1 0xA0 SHL SUB SWAP3 DUP4 AND OR DUP4 SSTORE SWAP4 DUP7 ADD MLOAD PUSH1 0x1 DUP4 ADD DUP1 SLOAD DUP7 AND SWAP2 DUP4 AND SWAP2 SWAP1 SWAP2 OR SWAP1 SSTORE SWAP4 DUP6 ADD MLOAD PUSH1 0x2 DUP3 ADD SSTORE PUSH1 0x60 DUP6 ADD MLOAD SWAP2 DUP2 ADD SWAP2 SWAP1 SWAP2 SSTORE PUSH1 0x80 DUP5 ADD MLOAD PUSH1 0x4 DUP3 ADD DUP1 SLOAD PUSH1 0xA0 DUP8 ADD MLOAD PUSH2 0xFFFF NOT SWAP1 SWAP2 AND SWAP3 ISZERO ISZERO PUSH2 0xFF00 NOT AND SWAP3 SWAP1 SWAP3 OR PUSH2 0x100 SWAP3 ISZERO ISZERO DUP4 MUL OR SWAP1 SSTORE PUSH1 0xC0 DUP6 ADD MLOAD PUSH1 0x5 DUP4 ADD SSTORE PUSH1 0xE0 DUP6 ADD MLOAD PUSH1 0x6 DUP4 ADD DUP1 SLOAD SWAP1 SWAP5 AND SWAP5 AND SWAP4 SWAP1 SWAP4 OR SWAP1 SWAP2 SSTORE SWAP1 DUP3 ADD MLOAD PUSH1 0x7 DUP3 ADD SWAP1 PUSH2 0x2C83 SWAP1 DUP3 PUSH2 0x4071 JUMP JUMPDEST POP PUSH2 0x120 DUP3 ADD MLOAD PUSH1 0x8 DUP3 ADD DUP1 SLOAD PUSH1 0xFF NOT AND PUSH1 0x1 DUP4 PUSH1 0x4 DUP2 GT ISZERO PUSH2 0x2CA8 JUMPI PUSH2 0x2CA8 PUSH2 0x354E JUMP JUMPDEST MUL OR SWAP1 SSTORE POP PUSH2 0x140 DUP3 ADD MLOAD PUSH1 0x9 DUP3 ADD SSTORE PUSH2 0x160 DUP3 ADD MLOAD PUSH1 0xA DUP3 ADD SWAP1 PUSH2 0x2CCD SWAP1 DUP3 PUSH2 0x4071 JUMP JUMPDEST POP POP CALLER PUSH1 0x0 DUP2 DUP2 MSTORE PUSH1 0x5 PUSH1 0x20 SWAP1 DUP2 MSTORE PUSH1 0x40 DUP1 DUP4 KECCAK256 DUP1 SLOAD PUSH1 0x1 DUP2 DUP2 ADD DUP4 SSTORE SWAP2 DUP6 MSTORE DUP4 DUP6 KECCAK256 ADD DUP8 SWAP1 SSTORE PUSH1 0x1 PUSH1 0x1 PUSH1 0xA0 SHL SUB DUP16 AND DUP5 MSTORE DUP2 DUP5 KECCAK256 DUP1 SLOAD SWAP2 DUP3 ADD DUP2 SSTORE DUP5 MSTORE DUP3 DUP5 KECCAK256 ADD DUP7 SWAP1 SSTORE SWAP3 DUP3 MSTORE PUSH1 0xA SWAP1 MSTORE SWAP1 DUP2 KECCAK256 DUP1 SLOAD SWAP3 POP SWAP1 PUSH2 0x2D2B DUP4 PUSH2 0x4142 JUMP JUMPDEST SWAP2 SWAP1 POP SSTORE POP PUSH1 0x0 DUP6 MLOAD GT DUP1 ISZERO PUSH2 0x2D61 JUMPI POP PUSH1 0xB DUP6 PUSH1 0x40 MLOAD PUSH2 0x2D4C SWAP2 SWAP1 PUSH2 0x3F76 JUMP JUMPDEST SWAP1 DUP2 MSTORE PUSH1 0x40 MLOAD SWAP1 DUP2 SWAP1 SUB PUSH1 0x20 ADD SWAP1 KECCAK256 SLOAD PUSH1 0xFF AND ISZERO JUMPDEST ISZERO PUSH2 0x2D99 JUMPI PUSH1 0x1 PUSH1 0xB DUP7 PUSH1 0x40 MLOAD PUSH2 0x2D78 SWAP2 SWAP1 PUSH2 0x3F76 JUMP JUMPDEST SWAP1 DUP2 MSTORE PUSH1 0x40 MLOAD SWAP1 DUP2 SWAP1 SUB PUSH1 0x20 ADD SWAP1 KECCAK256 DUP1 SLOAD SWAP2 ISZERO ISZERO PUSH1 0xFF NOT SWAP1 SWAP3 AND SWAP2 SWAP1 SWAP2 OR SWAP1 SSTORE JUMPDEST PUSH1 0x0 DUP5 PUSH1 0x4 DUP2 GT ISZERO PUSH2 0x2DAD JUMPI PUSH2 0x2DAD PUSH2 0x354E JUMP JUMPDEST EQ PUSH2 0x2DD7 JUMPI CALLER PUSH1 0x0 SWAP1 DUP2 MSTORE PUSH1 0xC PUSH1 0x20 MSTORE PUSH1 0x40 DUP2 KECCAK256 DUP1 SLOAD DUP6 SWAP3 SWAP1 PUSH2 0x2DD1 SWAP1 DUP5 SWAP1 PUSH2 0x3FED JUMP JUMPDEST SWAP1 SWAP2 SSTORE POP POP JUMPDEST PUSH1 0x40 DUP1 MLOAD TIMESTAMP DUP2 MSTORE PUSH1 0x20 DUP2 ADD DUP9 SWAP1 MSTORE PUSH1 0x1 PUSH1 0x1 PUSH1 0xA0 SHL SUB DUP12 AND SWAP2 CALLER SWAP2 DUP5 SWAP2 PUSH32 0x3F25921F9859DD3AA049D420D41E16CC17AFEF0F1BC7994033679DD72865CDA2 SWAP2 ADD PUSH1 0x40 MLOAD DUP1 SWAP2 SUB SWAP1 LOG4 DUP1 PUSH32 0x5D21D37BF37DAF68715464BE18DD14C0FC968D8693D617680606C709FE106D23 DUP7 DUP7 PUSH1 0x40 MLOAD PUSH2 0x2394 SWAP3 SWAP2 SWAP1 PUSH2 0x415B JUMP JUMPDEST PUSH1 0x6 PUSH1 0x20 MSTORE DUP2 PUSH1 0x0 MSTORE PUSH1 0x40 PUSH1 0x0 KECCAK256 DUP2 DUP2 SLOAD DUP2 LT PUSH2 0x241C JUMPI PUSH1 0x0 DUP1 REVERT JUMPDEST PUSH2 0x2E75 PUSH2 0x318D JUMP JUMPDEST SELFBALANCE DUP1 PUSH2 0x2EBC JUMPI PUSH1 0x40 MLOAD PUSH3 0x461BCD PUSH1 0xE5 SHL DUP2 MSTORE PUSH1 0x20 PUSH1 0x4 DUP3 ADD MSTORE PUSH1 0x16 PUSH1 0x24 DUP3 ADD MSTORE PUSH22 0x4E6F2062616C616E636520746F207769746864726177 PUSH1 0x50 SHL PUSH1 0x44 DUP3 ADD MSTORE PUSH1 0x64 ADD PUSH2 0xC0E JUMP JUMPDEST PUSH1 0x0 PUSH2 0x2ED0 PUSH1 0x1 SLOAD PUSH1 0x1 PUSH1 0x1 PUSH1 0xA0 SHL SUB AND SWAP1 JUMP JUMPDEST PUSH1 0x1 PUSH1 0x1 PUSH1 0xA0 SHL SUB AND DUP3 PUSH1 0x40 MLOAD PUSH1 0x0 PUSH1 0x40 MLOAD DUP1 DUP4 SUB DUP2 DUP6 DUP8 GAS CALL SWAP3 POP POP POP RETURNDATASIZE DUP1 PUSH1 0x0 DUP2 EQ PUSH2 0x2F1A JUMPI PUSH1 0x40 MLOAD SWAP2 POP PUSH1 0x1F NOT PUSH1 0x3F RETURNDATASIZE ADD AND DUP3 ADD PUSH1 0x40 MSTORE RETURNDATASIZE DUP3 MSTORE RETURNDATASIZE PUSH1 0x0 PUSH1 0x20 DUP5 ADD RETURNDATACOPY PUSH2 0x2F1F JUMP JUMPDEST PUSH1 0x60 SWAP2 POP JUMPDEST POP POP SWAP1 POP DUP1 PUSH2 0x12B8 JUMPI PUSH1 0x40 MLOAD PUSH3 0x461BCD PUSH1 0xE5 SHL DUP2 MSTORE PUSH1 0x20 PUSH1 0x4 DUP3 ADD MSTORE PUSH1 0x1B PUSH1 0x24 DUP3 ADD MSTORE PUSH32 0x456D657267656E6379207769746864726177616C206661696C65640000000000 PUSH1 0x44 DUP3 ADD MSTORE PUSH1 0x64 ADD PUSH2 0xC0E JUMP JUMPDEST PUSH1 0x0 PUSH1 0xB DUP3 PUSH1 0x40 MLOAD PUSH2 0x2F82 SWAP2 SWAP1 PUSH2 0x3F76 JUMP JUMPDEST SWAP1 DUP2 MSTORE PUSH1 0x40 MLOAD SWAP1 DUP2 SWAP1 SUB PUSH1 0x20 ADD SWAP1 KECCAK256 SLOAD PUSH1 0xFF AND SWAP3 SWAP2 POP POP JUMP JUMPDEST PUSH2 0x2FA3 PUSH2 0x318D JUMP JUMPDEST PUSH1 0x1 PUSH1 0x1 PUSH1 0xA0 SHL SUB DUP2 AND PUSH2 0x3008 JUMPI PUSH1 0x40 MLOAD PUSH3 0x461BCD PUSH1 0xE5 SHL DUP2 MSTORE PUSH1 0x20 PUSH1 0x4 DUP3 ADD MSTORE PUSH1 0x26 PUSH1 0x24 DUP3 ADD MSTORE PUSH32 0x4F776E61626C653A206E6577206F776E657220697320746865207A65726F2061 PUSH1 0x44 DUP3 ADD MSTORE PUSH6 0x646472657373 PUSH1 0xD0 SHL PUSH1 0x64 DUP3 ADD MSTORE PUSH1 0x84 ADD PUSH2 0xC0E JUMP JUMPDEST PUSH2 0x3011 DUP2 PUSH2 0x3386 JUMP JUMPDEST POP JUMP JUMPDEST PUSH1 0x0 DUP2 DUP2 MSTORE PUSH1 0x3 PUSH1 0x20 MSTORE PUSH1 0x40 SWAP1 KECCAK256 SLOAD DUP2 SWAP1 PUSH1 0x1 PUSH1 0x1 PUSH1 0xA0 SHL SUB AND PUSH2 0x3073 JUMPI PUSH1 0x40 MLOAD PUSH3 0x461BCD PUSH1 0xE5 SHL DUP2 MSTORE PUSH1 0x20 PUSH1 0x4 DUP3 ADD MSTORE PUSH1 0x16 PUSH1 0x24 DUP3 ADD MSTORE PUSH22 0x13595CDCD859D948191BD95CC81B9BDD08195E1A5CDD PUSH1 0x52 SHL PUSH1 0x44 DUP3 ADD MSTORE PUSH1 0x64 ADD PUSH2 0xC0E JUMP JUMPDEST PUSH1 0x0 DUP3 DUP2 MSTORE PUSH1 0x9 PUSH1 0x20 MSTORE PUSH1 0x40 SWAP1 KECCAK256 SLOAD DUP3 SWAP1 PUSH1 0xFF AND ISZERO PUSH2 0x30C6 JUMPI PUSH1 0x40 MLOAD PUSH3 0x461BCD PUSH1 0xE5 SHL DUP2 MSTORE PUSH1 0x20 PUSH1 0x4 DUP3 ADD MSTORE PUSH1 0xF PUSH1 0x24 DUP3 ADD MSTORE PUSH15 0x13595CDCD859D94819195B195D1959 PUSH1 0x8A SHL PUSH1 0x44 DUP3 ADD MSTORE PUSH1 0x64 ADD PUSH2 0xC0E JUMP JUMPDEST PUSH1 0x0 DUP4 DUP2 MSTORE PUSH1 0x3 PUSH1 0x20 MSTORE PUSH1 0x40 SWAP1 KECCAK256 DUP1 SLOAD PUSH1 0x1 PUSH1 0x1 PUSH1 0xA0 SHL SUB AND CALLER EQ DUP1 PUSH2 0x30F8 JUMPI POP PUSH1 0x1 DUP2 ADD SLOAD PUSH1 0x1 PUSH1 0x1 PUSH1 0xA0 SHL SUB AND CALLER EQ JUMPDEST PUSH2 0x3144 JUMPI PUSH1 0x40 MLOAD PUSH3 0x461BCD PUSH1 0xE5 SHL DUP2 MSTORE PUSH1 0x20 PUSH1 0x4 DUP3 ADD MSTORE PUSH1 0x18 PUSH1 0x24 DUP3 ADD MSTORE PUSH32 0x4E6F7420617574686F72697A656420746F2064656C6574650000000000000000 PUSH1 0x44 DUP3 ADD MSTORE PUSH1 0x64 ADD PUSH2 0xC0E JUMP JUMPDEST PUSH1 0x0 DUP5 DUP2 MSTORE PUSH1 0x9 PUSH1 0x20 MSTORE PUSH1 0x40 DUP1 DUP3 KECCAK256 DUP1 SLOAD PUSH1 0xFF NOT AND PUSH1 0x1 OR SWAP1 SSTORE MLOAD CALLER SWAP2 DUP7 SWAP2 PUSH32 0xDB5031387D41BF5EDF2CC7C9F161D7CFC8095D67AD6EEC15CD99149DCDAFC093 SWAP2 SWAP1 LOG3 POP POP POP POP JUMP JUMPDEST PUSH1 0x1 SLOAD PUSH1 0x1 PUSH1 0x1 PUSH1 0xA0 SHL SUB AND CALLER EQ PUSH2 0x1207 JUMPI PUSH1 0x40 MLOAD PUSH3 0x461BCD PUSH1 0xE5 SHL DUP2 MSTORE PUSH1 0x20 PUSH1 0x4 DUP3 ADD DUP2 SWAP1 MSTORE PUSH1 0x24 DUP3 ADD MSTORE PUSH32 0x4F776E61626C653A2063616C6C6572206973206E6F7420746865206F776E6572 PUSH1 0x44 DUP3 ADD MSTORE PUSH1 0x64 ADD PUSH2 0xC0E JUMP JUMPDEST PUSH2 0x31EF PUSH2 0x341B JUMP JUMPDEST PUSH1 0x1 DUP1 SLOAD PUSH1 0xFF PUSH1 0xA0 SHL NOT AND SWAP1 SSTORE PUSH32 0x5DB9EE0A495BF2E6FF9C91A7834C1BA4FDD244A5E8AA4E537BD38AEAE4B073AA CALLER JUMPDEST PUSH1 0x40 MLOAD PUSH1 0x1 PUSH1 0x1 PUSH1 0xA0 SHL SUB SWAP1 SWAP2 AND DUP2 MSTORE PUSH1 0x20 ADD PUSH1 0x40 MLOAD DUP1 SWAP2 SUB SWAP1 LOG1 JUMP JUMPDEST PUSH1 0x40 DUP1 MLOAD PUSH1 0x80 DUP2 ADD DUP3 MSTORE DUP4 DUP2 MSTORE PUSH1 0x1 PUSH1 0x20 DUP1 DUP4 ADD DUP3 DUP2 MSTORE TIMESTAMP DUP5 DUP7 ADD SWAP1 DUP2 MSTORE PUSH1 0x60 DUP6 ADD DUP8 DUP2 MSTORE CALLER PUSH1 0x0 SWAP1 DUP2 MSTORE PUSH1 0x2 SWAP5 DUP6 SWAP1 MSTORE SWAP7 SWAP1 SWAP7 KECCAK256 DUP6 MLOAD DUP2 SSTORE SWAP2 MLOAD SWAP4 DUP3 ADD DUP1 SLOAD PUSH1 0xFF NOT AND SWAP5 ISZERO ISZERO SWAP5 SWAP1 SWAP5 OR SWAP1 SWAP4 SSTORE SWAP2 MLOAD SWAP1 DUP3 ADD SSTORE SWAP2 MLOAD SWAP1 SWAP2 SWAP1 PUSH1 0x3 DUP3 ADD SWAP1 PUSH2 0x32A4 SWAP1 DUP3 PUSH2 0x4071 JUMP JUMPDEST POP POP PUSH1 0x40 MLOAD DUP4 DUP2 MSTORE CALLER SWAP2 POP PUSH32 0x4C5D15F5779AE1ECD7D55BD3283D898E29C35743D172BD7B83A16E17BC0AFE2A SWAP1 PUSH1 0x20 ADD PUSH1 0x40 MLOAD DUP1 SWAP2 SUB SWAP1 LOG2 POP POP JUMP JUMPDEST PUSH1 0x2 PUSH1 0x0 SLOAD SUB PUSH2 0x3332 JUMPI PUSH1 0x40 MLOAD PUSH3 0x461BCD PUSH1 0xE5 SHL DUP2 MSTORE PUSH1 0x20 PUSH1 0x4 DUP3 ADD MSTORE PUSH1 0x1F PUSH1 0x24 DUP3 ADD MSTORE PUSH32 0x5265656E7472616E637947756172643A207265656E7472616E742063616C6C00 PUSH1 0x44 DUP3 ADD MSTORE PUSH1 0x64 ADD PUSH2 0xC0E JUMP JUMPDEST PUSH1 0x2 PUSH1 0x0 SSTORE JUMP JUMPDEST PUSH1 0x1 SLOAD PUSH1 0x1 PUSH1 0xA0 SHL SWAP1 DIV PUSH1 0xFF AND ISZERO PUSH2 0x1207 JUMPI PUSH1 0x40 MLOAD PUSH3 0x461BCD PUSH1 0xE5 SHL DUP2 MSTORE PUSH1 0x20 PUSH1 0x4 DUP3 ADD MSTORE PUSH1 0x10 PUSH1 0x24 DUP3 ADD MSTORE PUSH16 0x14185D5CD8589B194E881C185D5CD959 PUSH1 0x82 SHL PUSH1 0x44 DUP3 ADD MSTORE PUSH1 0x64 ADD PUSH2 0xC0E JUMP JUMPDEST PUSH1 0x1 DUP1 SLOAD PUSH1 0x1 PUSH1 0x1 PUSH1 0xA0 SHL SUB DUP4 DUP2 AND PUSH1 0x1 PUSH1 0x1 PUSH1 0xA0 SHL SUB NOT DUP4 AND DUP2 OR SWAP1 SWAP4 SSTORE PUSH1 0x40 MLOAD SWAP2 AND SWAP2 SWAP1 DUP3 SWAP1 PUSH32 0x8BE0079C531659141344CD1FD0A4F28419497F9722A3DAAFE3B4186F6B6457E0 SWAP1 PUSH1 0x0 SWAP1 LOG3 POP POP JUMP JUMPDEST PUSH2 0x33E0 PUSH2 0x3339 JUMP JUMPDEST PUSH1 0x1 DUP1 SLOAD PUSH1 0xFF PUSH1 0xA0 SHL NOT AND PUSH1 0x1 PUSH1 0xA0 SHL OR SWAP1 SSTORE PUSH32 0x62E78CEA01BEE320CD4E420270B5EA74000D11B0C9F74754EBDBFC544B05A258 PUSH2 0x321F CALLER SWAP1 JUMP JUMPDEST PUSH1 0x1 SLOAD PUSH1 0x1 PUSH1 0xA0 SHL SWAP1 DIV PUSH1 0xFF AND PUSH2 0x1207 JUMPI PUSH1 0x40 MLOAD PUSH3 0x461BCD PUSH1 0xE5 SHL DUP2 MSTORE PUSH1 0x20 PUSH1 0x4 DUP3 ADD MSTORE PUSH1 0x14 PUSH1 0x24 DUP3 ADD MSTORE PUSH20 0x14185D5CD8589B194E881B9BDD081C185D5CD959 PUSH1 0x62 SHL PUSH1 0x44 DUP3 ADD MSTORE PUSH1 0x64 ADD PUSH2 0xC0E JUMP JUMPDEST DUP3 DUP1 SLOAD DUP3 DUP3 SSTORE SWAP1 PUSH1 0x0 MSTORE PUSH1 0x20 PUSH1 0x0 KECCAK256 SWAP1 DUP2 ADD SWAP3 DUP3 ISZERO PUSH2 0x34C0 JUMPI SWAP2 PUSH1 0x20 MUL DUP3 ADD JUMPDEST DUP3 DUP2 GT ISZERO PUSH2 0x34C0 JUMPI DUP3 MLOAD DUP3 SLOAD PUSH1 0x1 PUSH1 0x1 PUSH1 0xA0 SHL SUB NOT AND PUSH1 0x1 PUSH1 0x1 PUSH1 0xA0 SHL SUB SWAP1 SWAP2 AND OR DUP3 SSTORE PUSH1 0x20 SWAP1 SWAP3 ADD SWAP2 PUSH1 0x1 SWAP1 SWAP2 ADD SWAP1 PUSH2 0x348B JUMP JUMPDEST POP PUSH2 0x34CC SWAP3 SWAP2 POP PUSH2 0x34D0 JUMP JUMPDEST POP SWAP1 JUMP JUMPDEST JUMPDEST DUP1 DUP3 GT ISZERO PUSH2 0x34CC JUMPI PUSH1 0x0 DUP2 SSTORE PUSH1 0x1 ADD PUSH2 0x34D1 JUMP JUMPDEST PUSH1 0x0 PUSH1 0x20 DUP3 DUP5 SUB SLT ISZERO PUSH2 0x34F7 JUMPI PUSH1 0x0 DUP1 REVERT JUMPDEST POP CALLDATALOAD SWAP2 SWAP1 POP JUMP JUMPDEST PUSH1 0x0 JUMPDEST DUP4 DUP2 LT ISZERO PUSH2 0x3519 JUMPI DUP2 DUP2 ADD MLOAD DUP4 DUP3 ADD MSTORE PUSH1 0x20 ADD PUSH2 0x3501 JUMP JUMPDEST POP POP PUSH1 0x0 SWAP2 ADD MSTORE JUMP JUMPDEST PUSH1 0x0 DUP2 MLOAD DUP1 DUP5 MSTORE PUSH2 0x353A DUP2 PUSH1 0x20 DUP7 ADD PUSH1 0x20 DUP7 ADD PUSH2 0x34FE JUMP JUMPDEST PUSH1 0x1F ADD PUSH1 0x1F NOT AND SWAP3 SWAP1 SWAP3 ADD PUSH1 0x20 ADD SWAP3 SWAP2 POP POP JUMP JUMPDEST PUSH4 0x4E487B71 PUSH1 0xE0 SHL PUSH1 0x0 MSTORE PUSH1 0x21 PUSH1 0x4 MSTORE PUSH1 0x24 PUSH1 0x0 REVERT JUMPDEST PUSH1 0x5 DUP2 LT PUSH2 0x3582 JUMPI PUSH4 0x4E487B71 PUSH1 0xE0 SHL PUSH1 0x0 MSTORE PUSH1 0x21 PUSH1 0x4 MSTORE PUSH1 0x24 PUSH1 0x0 REVERT JUMPDEST SWAP1 MSTORE JUMP JUMPDEST PUSH1 0x20 DUP2 MSTORE PUSH2 0x35A0 PUSH1 0x20 DUP3 ADD DUP4 MLOAD PUSH1 0x1 PUSH1 0x1 PUSH1 0xA0 SHL SUB AND SWAP1 MSTORE JUMP JUMPDEST PUSH1 0x0 PUSH1 0x20 DUP4 ADD MLOAD PUSH2 0x35BC PUSH1 0x40 DUP5 ADD DUP3 PUSH1 0x1 PUSH1 0x1 PUSH1 0xA0 SHL SUB AND SWAP1 MSTORE JUMP JUMPDEST POP PUSH1 0x40 DUP4 ADD MLOAD PUSH1 0x60 DUP4 ADD MSTORE PUSH1 0x60 DUP4 ADD MLOAD PUSH1 0x80 DUP4 ADD MSTORE PUSH1 0x80 DUP4 ADD MLOAD PUSH2 0x35E4 PUSH1 0xA0 DUP5 ADD DUP3 ISZERO ISZERO SWAP1 MSTORE JUMP JUMPDEST POP PUSH1 0xA0 DUP4 ADD MLOAD DUP1 ISZERO ISZERO PUSH1 0xC0 DUP5 ADD MSTORE POP PUSH1 0xC0 DUP4 ADD MLOAD PUSH1 0xE0 DUP4 ADD MSTORE PUSH1 0xE0 DUP4 ADD MLOAD PUSH2 0x3618 PUSH2 0x100 DUP5 ADD DUP3 PUSH1 0x1 PUSH1 0x1 PUSH1 0xA0 SHL SUB AND SWAP1 MSTORE JUMP JUMPDEST POP PUSH2 0x100 DUP4 ADD MLOAD PUSH2 0x180 PUSH2 0x120 DUP5 ADD MSTORE PUSH2 0x3636 PUSH2 0x1A0 DUP5 ADD DUP3 PUSH2 0x3522 JUMP JUMPDEST SWAP1 POP PUSH2 0x120 DUP5 ADD MLOAD PUSH2 0x364C PUSH2 0x140 DUP6 ADD DUP3 PUSH2 0x3564 JUMP JUMPDEST POP PUSH2 0x140 DUP5 ADD MLOAD PUSH2 0x160 DUP5 ADD MSTORE PUSH2 0x160 DUP5 ADD MLOAD PUSH1 0x1F NOT DUP5 DUP4 SUB ADD PUSH2 0x180 DUP6 ADD MSTORE PUSH2 0x3676 DUP3 DUP3 PUSH2 0x3522 JUMP JUMPDEST SWAP6 SWAP5 POP POP POP POP POP JUMP JUMPDEST DUP1 CALLDATALOAD PUSH1 0x1 PUSH1 0x1 PUSH1 0xA0 SHL SUB DUP2 AND DUP2 EQ PUSH2 0x3696 JUMPI PUSH1 0x0 DUP1 REVERT JUMPDEST SWAP2 SWAP1 POP JUMP JUMPDEST PUSH1 0x0 PUSH1 0x20 DUP3 DUP5 SUB SLT ISZERO PUSH2 0x36AD JUMPI PUSH1 0x0 DUP1 REVERT JUMPDEST PUSH2 0x36B6 DUP3 PUSH2 0x367F JUMP JUMPDEST SWAP4 SWAP3 POP POP POP JUMP JUMPDEST PUSH4 0x4E487B71 PUSH1 0xE0 SHL PUSH1 0x0 MSTORE PUSH1 0x41 PUSH1 0x4 MSTORE PUSH1 0x24 PUSH1 0x0 REVERT JUMPDEST PUSH1 0x40 MLOAD PUSH1 0x1F DUP3 ADD PUSH1 0x1F NOT AND DUP2 ADD PUSH1 0x1 PUSH1 0x1 PUSH1 0x40 SHL SUB DUP2 GT DUP3 DUP3 LT OR ISZERO PUSH2 0x36FB JUMPI PUSH2 0x36FB PUSH2 0x36BD JUMP JUMPDEST PUSH1 0x40 MSTORE SWAP2 SWAP1 POP JUMP JUMPDEST PUSH1 0x0 PUSH1 0x1 PUSH1 0x1 PUSH1 0x40 SHL SUB DUP3 GT ISZERO PUSH2 0x371C JUMPI PUSH2 0x371C PUSH2 0x36BD JUMP JUMPDEST POP PUSH1 0x5 SHL PUSH1 0x20 ADD SWAP1 JUMP JUMPDEST PUSH1 0x0 DUP3 PUSH1 0x1F DUP4 ADD SLT PUSH2 0x3737 JUMPI PUSH1 0x0 DUP1 REVERT JUMPDEST DUP2 CALLDATALOAD PUSH2 0x374A PUSH2 0x3745 DUP3 PUSH2 0x3703 JUMP JUMPDEST PUSH2 0x36D3 JUMP JUMPDEST DUP1 DUP3 DUP3 MSTORE PUSH1 0x20 DUP3 ADD SWAP2 POP PUSH1 0x20 DUP4 PUSH1 0x5 SHL DUP7 ADD ADD SWAP3 POP DUP6 DUP4 GT ISZERO PUSH2 0x376C JUMPI PUSH1 0x0 DUP1 REVERT JUMPDEST PUSH1 0x20 DUP6 ADD JUMPDEST DUP4 DUP2 LT ISZERO PUSH2 0x3790 JUMPI PUSH2 0x3782 DUP2 PUSH2 0x367F JUMP JUMPDEST DUP4 MSTORE PUSH1 0x20 SWAP3 DUP4 ADD SWAP3 ADD PUSH2 0x3771 JUMP JUMPDEST POP SWAP6 SWAP5 POP POP POP POP POP JUMP JUMPDEST PUSH1 0x0 DUP1 PUSH1 0x40 DUP4 DUP6 SUB SLT ISZERO PUSH2 0x37AD JUMPI PUSH1 0x0 DUP1 REVERT JUMPDEST DUP3 CALLDATALOAD PUSH1 0x1 PUSH1 0x1 PUSH1 0x40 SHL SUB DUP2 GT ISZERO PUSH2 0x37C3 JUMPI PUSH1 0x0 DUP1 REVERT JUMPDEST PUSH2 0x37CF DUP6 DUP3 DUP7 ADD PUSH2 0x3726 JUMP JUMPDEST SWAP6 PUSH1 0x20 SWAP5 SWAP1 SWAP5 ADD CALLDATALOAD SWAP5 POP POP POP POP JUMP JUMPDEST PUSH1 0x1 PUSH1 0x1 PUSH1 0xA0 SHL SUB DUP14 DUP2 AND DUP3 MSTORE DUP13 AND PUSH1 0x20 DUP3 ADD MSTORE PUSH1 0x40 DUP2 ADD DUP12 SWAP1 MSTORE PUSH1 0x60 DUP2 ADD DUP11 SWAP1 MSTORE DUP9 ISZERO ISZERO PUSH1 0x80 DUP3 ADD MSTORE DUP8 ISZERO ISZERO PUSH1 0xA0 DUP3 ADD MSTORE DUP7 PUSH1 0xC0 DUP3 ADD MSTORE PUSH2 0x382B PUSH1 0xE0 DUP3 ADD DUP8 PUSH1 0x1 PUSH1 0x1 PUSH1 0xA0 SHL SUB AND SWAP1 MSTORE JUMP JUMPDEST PUSH2 0x180 PUSH2 0x100 DUP3 ADD MSTORE PUSH1 0x0 PUSH2 0x3844 PUSH2 0x180 DUP4 ADD DUP8 PUSH2 0x3522 JUMP JUMPDEST PUSH2 0x3852 PUSH2 0x120 DUP5 ADD DUP8 PUSH2 0x3564 JUMP JUMPDEST DUP5 PUSH2 0x140 DUP5 ADD MSTORE DUP3 DUP2 SUB PUSH2 0x160 DUP5 ADD MSTORE PUSH2 0x386C DUP2 DUP6 PUSH2 0x3522 JUMP JUMPDEST SWAP16 SWAP15 POP POP POP POP POP POP POP POP POP POP POP POP POP POP POP JUMP JUMPDEST PUSH1 0x20 DUP2 MSTORE PUSH1 0x0 PUSH2 0x36B6 PUSH1 0x20 DUP4 ADD DUP5 PUSH2 0x3522 JUMP JUMPDEST DUP5 DUP2 MSTORE DUP4 ISZERO ISZERO PUSH1 0x20 DUP3 ADD MSTORE DUP3 PUSH1 0x40 DUP3 ADD MSTORE PUSH1 0x80 PUSH1 0x60 DUP3 ADD MSTORE PUSH1 0x0 PUSH2 0x38B9 PUSH1 0x80 DUP4 ADD DUP5 PUSH2 0x3522 JUMP JUMPDEST SWAP7 SWAP6 POP POP POP POP POP POP JUMP JUMPDEST PUSH1 0x0 DUP3 PUSH1 0x1F DUP4 ADD SLT PUSH2 0x38D4 JUMPI PUSH1 0x0 DUP1 REVERT JUMPDEST DUP2 CALLDATALOAD PUSH1 0x1 PUSH1 0x1 PUSH1 0x40 SHL SUB DUP2 GT ISZERO PUSH2 0x38ED JUMPI PUSH2 0x38ED PUSH2 0x36BD JUMP JUMPDEST PUSH2 0x3900 PUSH1 0x1F DUP3 ADD PUSH1 0x1F NOT AND PUSH1 0x20 ADD PUSH2 0x36D3 JUMP JUMPDEST DUP2 DUP2 MSTORE DUP5 PUSH1 0x20 DUP4 DUP7 ADD ADD GT ISZERO PUSH2 0x3915 JUMPI PUSH1 0x0 DUP1 REVERT JUMPDEST DUP2 PUSH1 0x20 DUP6 ADD PUSH1 0x20 DUP4 ADD CALLDATACOPY PUSH1 0x0 SWAP2 DUP2 ADD PUSH1 0x20 ADD SWAP2 SWAP1 SWAP2 MSTORE SWAP4 SWAP3 POP POP POP JUMP JUMPDEST PUSH1 0x0 PUSH1 0x20 DUP3 DUP5 SUB SLT ISZERO PUSH2 0x3944 JUMPI PUSH1 0x0 DUP1 REVERT JUMPDEST DUP2 CALLDATALOAD PUSH1 0x1 PUSH1 0x1 PUSH1 0x40 SHL SUB DUP2 GT ISZERO PUSH2 0x395A JUMPI PUSH1 0x0 DUP1 REVERT JUMPDEST PUSH2 0x3966 DUP5 DUP3 DUP6 ADD PUSH2 0x38C3 JUMP JUMPDEST SWAP5 SWAP4 POP POP POP POP JUMP JUMPDEST PUSH1 0x0 DUP1 PUSH1 0x40 DUP4 DUP6 SUB SLT ISZERO PUSH2 0x3981 JUMPI PUSH1 0x0 DUP1 REVERT JUMPDEST DUP3 CALLDATALOAD SWAP2 POP PUSH1 0x20 DUP4 ADD CALLDATALOAD PUSH1 0x1 PUSH1 0x1 PUSH1 0x40 SHL SUB DUP2 GT ISZERO PUSH2 0x399E JUMPI PUSH1 0x0 DUP1 REVERT JUMPDEST PUSH2 0x39AA DUP6 DUP3 DUP7 ADD PUSH2 0x38C3 JUMP JUMPDEST SWAP2 POP POP SWAP3 POP SWAP3 SWAP1 POP JUMP JUMPDEST PUSH1 0x0 DUP2 MLOAD DUP1 DUP5 MSTORE PUSH1 0x20 DUP5 ADD SWAP4 POP PUSH1 0x20 DUP4 ADD PUSH1 0x0 JUMPDEST DUP3 DUP2 LT ISZERO PUSH2 0x39EF JUMPI DUP2 MLOAD PUSH1 0x1 PUSH1 0x1 PUSH1 0xA0 SHL SUB AND DUP7 MSTORE PUSH1 0x20 SWAP6 DUP7 ADD SWAP6 SWAP1 SWAP2 ADD SWAP1 PUSH1 0x1 ADD PUSH2 0x39C8 JUMP JUMPDEST POP SWAP4 SWAP5 SWAP4 POP POP POP POP JUMP JUMPDEST PUSH1 0x20 DUP2 MSTORE PUSH1 0x0 DUP3 MLOAD PUSH1 0xA0 PUSH1 0x20 DUP5 ADD MSTORE PUSH2 0x3A15 PUSH1 0xC0 DUP5 ADD DUP3 PUSH2 0x39B4 JUMP JUMPDEST SWAP1 POP PUSH1 0x20 DUP5 ADD MLOAD PUSH1 0x40 DUP5 ADD MSTORE PUSH1 0x40 DUP5 ADD MLOAD PUSH1 0x60 DUP5 ADD MSTORE PUSH1 0x60 DUP5 ADD MLOAD ISZERO ISZERO PUSH1 0x80 DUP5 ADD MSTORE PUSH1 0x80 DUP5 ADD MLOAD PUSH1 0xA0 DUP5 ADD MSTORE DUP1 SWAP2 POP POP SWAP3 SWAP2 POP POP JUMP JUMPDEST PUSH1 0x0 DUP3 PUSH1 0x1F DUP4 ADD SLT PUSH2 0x3A5C JUMPI PUSH1 0x0 DUP1 REVERT JUMPDEST DUP2 CALLDATALOAD PUSH2 0x3A6A PUSH2 0x3745 DUP3 PUSH2 0x3703 JUMP JUMPDEST DUP1 DUP3 DUP3 MSTORE PUSH1 0x20 DUP3 ADD SWAP2 POP PUSH1 0x20 DUP4 PUSH1 0x5 SHL DUP7 ADD ADD SWAP3 POP DUP6 DUP4 GT ISZERO PUSH2 0x3A8C JUMPI PUSH1 0x0 DUP1 REVERT JUMPDEST PUSH1 0x20 DUP6 ADD JUMPDEST DUP4 DUP2 LT ISZERO PUSH2 0x3790 JUMPI DUP1 CALLDATALOAD DUP4 MSTORE PUSH1 0x20 SWAP3 DUP4 ADD SWAP3 ADD PUSH2 0x3A91 JUMP JUMPDEST PUSH1 0x0 DUP3 PUSH1 0x1F DUP4 ADD SLT PUSH2 0x3ABA JUMPI PUSH1 0x0 DUP1 REVERT JUMPDEST DUP2 CALLDATALOAD PUSH2 0x3AC8 PUSH2 0x3745 DUP3 PUSH2 0x3703 JUMP JUMPDEST DUP1 DUP3 DUP3 MSTORE PUSH1 0x20 DUP3 ADD SWAP2 POP PUSH1 0x20 DUP4 PUSH1 0x5 SHL DUP7 ADD ADD SWAP3 POP DUP6 DUP4 GT ISZERO PUSH2 0x3AEA JUMPI PUSH1 0x0 DUP1 REVERT JUMPDEST PUSH1 0x20 DUP6 ADD JUMPDEST DUP4 DUP2 LT ISZERO PUSH2 0x3790 JUMPI DUP1 CALLDATALOAD PUSH1 0x1 PUSH1 0x1 PUSH1 0x40 SHL SUB DUP2 GT ISZERO PUSH2 0x3B0D JUMPI PUSH1 0x0 DUP1 REVERT JUMPDEST PUSH2 0x3B1C DUP9 PUSH1 0x20 DUP4 DUP11 ADD ADD PUSH2 0x38C3 JUMP JUMPDEST DUP5 MSTORE POP PUSH1 0x20 SWAP3 DUP4 ADD SWAP3 ADD PUSH2 0x3AEF JUMP JUMPDEST DUP1 CALLDATALOAD PUSH1 0x5 DUP2 LT PUSH2 0x3696 JUMPI PUSH1 0x0 DUP1 REVERT JUMPDEST PUSH1 0x0 DUP3 PUSH1 0x1F DUP4 ADD SLT PUSH2 0x3B4B JUMPI PUSH1 0x0 DUP1 REVERT JUMPDEST DUP2 CALLDATALOAD PUSH2 0x3B59 PUSH2 0x3745 DUP3 PUSH2 0x3703 JUMP JUMPDEST DUP1 DUP3 DUP3 MSTORE PUSH1 0x20 DUP3 ADD SWAP2 POP PUSH1 0x20 DUP4 PUSH1 0x5 SHL DUP7 ADD ADD SWAP3 POP DUP6 DUP4 GT ISZERO PUSH2 0x3B7B JUMPI PUSH1 0x0 DUP1 REVERT JUMPDEST PUSH1 0x20 DUP6 ADD JUMPDEST DUP4 DUP2 LT ISZERO PUSH2 0x3790 JUMPI PUSH2 0x3B91 DUP2 PUSH2 0x3B2B JUMP JUMPDEST DUP4 MSTORE PUSH1 0x20 SWAP3 DUP4 ADD SWAP3 ADD PUSH2 0x3B80 JUMP JUMPDEST PUSH1 0x0 DUP1 PUSH1 0x0 DUP1 PUSH1 0x0 DUP1 PUSH1 0x0 DUP1 PUSH2 0x100 DUP10 DUP12 SUB SLT ISZERO PUSH2 0x3BBC JUMPI PUSH1 0x0 DUP1 REVERT JUMPDEST DUP9 CALLDATALOAD PUSH1 0x1 PUSH1 0x1 PUSH1 0x40 SHL SUB DUP2 GT ISZERO PUSH2 0x3BD2 JUMPI PUSH1 0x0 DUP1 REVERT JUMPDEST PUSH2 0x3BDE DUP12 DUP3 DUP13 ADD PUSH2 0x3726 JUMP JUMPDEST SWAP9 POP POP PUSH1 0x20 DUP10 ADD CALLDATALOAD PUSH1 0x1 PUSH1 0x1 PUSH1 0x40 SHL SUB DUP2 GT ISZERO PUSH2 0x3BFA JUMPI PUSH1 0x0 DUP1 REVERT JUMPDEST PUSH2 0x3C06 DUP12 DUP3 DUP13 ADD PUSH2 0x3A4B JUMP JUMPDEST SWAP8 POP POP PUSH1 0x40 DUP10 ADD CALLDATALOAD PUSH1 0x1 PUSH1 0x1 PUSH1 0x40 SHL SUB DUP2 GT ISZERO PUSH2 0x3C22 JUMPI PUSH1 0x0 DUP1 REVERT JUMPDEST PUSH2 0x3C2E DUP12 DUP3 DUP13 ADD PUSH2 0x3726 JUMP JUMPDEST SWAP7 POP POP PUSH1 0x60 DUP10 ADD CALLDATALOAD PUSH1 0x1 PUSH1 0x1 PUSH1 0x40 SHL SUB DUP2 GT ISZERO PUSH2 0x3C4A JUMPI PUSH1 0x0 DUP1 REVERT JUMPDEST PUSH2 0x3C56 DUP12 DUP3 DUP13 ADD PUSH2 0x3A4B JUMP JUMPDEST SWAP6 POP POP PUSH1 0x80 DUP10 ADD CALLDATALOAD PUSH1 0x1 PUSH1 0x1 PUSH1 0x40 SHL SUB DUP2 GT ISZERO PUSH2 0x3C72 JUMPI PUSH1 0x0 DUP1 REVERT JUMPDEST PUSH2 0x3C7E DUP12 DUP3 DUP13 ADD PUSH2 0x3AA9 JUMP JUMPDEST SWAP5 POP POP PUSH1 0xA0 DUP10 ADD CALLDATALOAD PUSH1 0x1 PUSH1 0x1 PUSH1 0x40 SHL SUB DUP2 GT ISZERO PUSH2 0x3C9A JUMPI PUSH1 0x0 DUP1 REVERT JUMPDEST PUSH2 0x3CA6 DUP12 DUP3 DUP13 ADD PUSH2 0x3B3A JUMP JUMPDEST SWAP4 POP POP PUSH1 0xC0 DUP10 ADD CALLDATALOAD PUSH1 0x1 PUSH1 0x1 PUSH1 0x40 SHL SUB DUP2 GT ISZERO PUSH2 0x3CC2 JUMPI PUSH1 0x0 DUP1 REVERT JUMPDEST PUSH2 0x3CCE DUP12 DUP3 DUP13 ADD PUSH2 0x3A4B JUMP JUMPDEST SWAP3 POP POP PUSH1 0xE0 DUP10 ADD CALLDATALOAD PUSH1 0x1 PUSH1 0x1 PUSH1 0x40 SHL SUB DUP2 GT ISZERO PUSH2 0x3CEA JUMPI PUSH1 0x0 DUP1 REVERT JUMPDEST PUSH2 0x3CF6 DUP12 DUP3 DUP13 ADD PUSH2 0x3AA9 JUMP JUMPDEST SWAP2 POP POP SWAP3 SWAP6 SWAP9 POP SWAP3 SWAP6 SWAP9 SWAP1 SWAP4 SWAP7 POP JUMP JUMPDEST PUSH1 0x0 DUP1 PUSH1 0x40 DUP4 DUP6 SUB SLT ISZERO PUSH2 0x3D19 JUMPI PUSH1 0x0 DUP1 REVERT JUMPDEST PUSH2 0x3D22 DUP4 PUSH2 0x367F JUMP JUMPDEST SWAP5 PUSH1 0x20 SWAP4 SWAP1 SWAP4 ADD CALLDATALOAD SWAP4 POP POP POP JUMP JUMPDEST PUSH1 0x20 DUP1 DUP3 MSTORE DUP3 MLOAD DUP3 DUP3 ADD DUP2 SWAP1 MSTORE PUSH1 0x0 SWAP2 DUP5 ADD SWAP1 PUSH1 0x40 DUP5 ADD SWAP1 DUP4 JUMPDEST DUP2 DUP2 LT ISZERO PUSH2 0x3D68 JUMPI DUP4 MLOAD DUP4 MSTORE PUSH1 0x20 SWAP4 DUP5 ADD SWAP4 SWAP1 SWAP3 ADD SWAP2 PUSH1 0x1 ADD PUSH2 0x3D4A JUMP JUMPDEST POP SWAP1 SWAP6 SWAP5 POP POP POP POP POP JUMP JUMPDEST PUSH1 0x0 DUP1 PUSH1 0x0 DUP1 PUSH1 0x0 DUP1 PUSH1 0x0 DUP1 PUSH2 0x100 DUP10 DUP12 SUB SLT ISZERO PUSH2 0x3D90 JUMPI PUSH1 0x0 DUP1 REVERT JUMPDEST PUSH2 0x3D99 DUP10 PUSH2 0x367F JUMP JUMPDEST SWAP8 POP PUSH1 0x20 DUP10 ADD CALLDATALOAD SWAP7 POP PUSH2 0x3DAE PUSH1 0x40 DUP11 ADD PUSH2 0x367F JUMP JUMPDEST SWAP6 POP PUSH1 0x60 DUP10 ADD CALLDATALOAD SWAP5 POP PUSH1 0x80 DUP10 ADD CALLDATALOAD PUSH1 0x1 PUSH1 0x1 PUSH1 0x40 SHL SUB DUP2 GT ISZERO PUSH2 0x3DD0 JUMPI PUSH1 0x0 DUP1 REVERT JUMPDEST PUSH2 0x3DDC DUP12 DUP3 DUP13 ADD PUSH2 0x38C3 JUMP JUMPDEST SWAP5 POP POP PUSH2 0x3DEB PUSH1 0xA0 DUP11 ADD PUSH2 0x3B2B JUMP JUMPDEST SWAP3 POP PUSH1 0xC0 DUP10 ADD CALLDATALOAD SWAP2 POP PUSH1 0xE0 DUP10 ADD CALLDATALOAD PUSH1 0x1 PUSH1 0x1 PUSH1 0x40 SHL SUB DUP2 GT ISZERO PUSH2 0x3E0D JUMPI PUSH1 0x0 DUP1 REVERT JUMPDEST PUSH2 0x3CF6 DUP12 DUP3 DUP13 ADD PUSH2 0x38C3 JUMP JUMPDEST PUSH1 0x20 DUP2 ADD PUSH2 0x23FA DUP3 DUP5 PUSH2 0x3564 JUMP JUMPDEST PUSH1 0x1 DUP2 DUP2 SHR SWAP1 DUP3 AND DUP1 PUSH2 0x3E3B JUMPI PUSH1 0x7F DUP3 AND SWAP2 POP JUMPDEST PUSH1 0x20 DUP3 LT DUP2 SUB PUSH2 0x3E5B JUMPI PUSH4 0x4E487B71 PUSH1 0xE0 SHL PUSH1 0x0 MSTORE PUSH1 0x22 PUSH1 0x4 MSTORE PUSH1 0x24 PUSH1 0x0 REVERT JUMPDEST POP SWAP2 SWAP1 POP JUMP JUMPDEST PUSH1 0x20 DUP1 DUP3 MSTORE PUSH1 0x13 SWAP1 DUP3 ADD MSTORE PUSH19 0x155CD95C881B9BDD081C9959DA5CDD195C9959 PUSH1 0x6A SHL PUSH1 0x40 DUP3 ADD MSTORE PUSH1 0x60 ADD SWAP1 JUMP JUMPDEST PUSH4 0x4E487B71 PUSH1 0xE0 SHL PUSH1 0x0 MSTORE PUSH1 0x32 PUSH1 0x4 MSTORE PUSH1 0x24 PUSH1 0x0 REVERT JUMPDEST DUP4 MLOAD PUSH1 0x0 SWAP1 DUP3 SWAP1 PUSH1 0x20 DUP8 ADD DUP4 JUMPDEST DUP3 DUP2 LT ISZERO PUSH2 0x3ED8 JUMPI DUP2 MLOAD PUSH1 0x1 PUSH1 0x1 PUSH1 0xA0 SHL SUB AND DUP5 MSTORE PUSH1 0x20 SWAP4 DUP5 ADD SWAP4 SWAP1 SWAP2 ADD SWAP1 PUSH1 0x1 ADD PUSH2 0x3EB1 JUMP JUMPDEST POP POP POP SWAP4 DUP5 MSTORE POP POP PUSH1 0x20 DUP3 ADD MSTORE PUSH1 0x40 ADD SWAP2 SWAP1 POP JUMP JUMPDEST PUSH1 0x20 DUP2 MSTORE PUSH1 0x0 PUSH2 0x36B6 PUSH1 0x20 DUP4 ADD DUP5 PUSH2 0x39B4 JUMP JUMPDEST PUSH1 0x20 DUP1 DUP3 MSTORE PUSH1 0x15 SWAP1 DUP3 ADD MSTORE PUSH21 0x82E4E4C2F240D8CADCCEE8D040DAD2E6DAC2E8C6D PUSH1 0x5B SHL PUSH1 0x40 DUP3 ADD MSTORE PUSH1 0x60 ADD SWAP1 JUMP JUMPDEST PUSH1 0x20 DUP1 DUP3 MSTORE PUSH1 0x27 SWAP1 DUP3 ADD MSTORE PUSH32 0x5465787420636F6E74656E7420726571756972656420666F722054455854206D PUSH1 0x40 DUP3 ADD MSTORE PUSH7 0x65737361676573 PUSH1 0xC8 SHL PUSH1 0x60 DUP3 ADD MSTORE PUSH1 0x80 ADD SWAP1 JUMP JUMPDEST PUSH1 0x0 DUP3 MLOAD PUSH2 0x3F88 DUP2 DUP5 PUSH1 0x20 DUP8 ADD PUSH2 0x34FE JUMP JUMPDEST SWAP2 SWAP1 SWAP2 ADD SWAP3 SWAP2 POP POP JUMP JUMPDEST PUSH1 0x20 DUP1 DUP3 MSTORE PUSH1 0x25 SWAP1 DUP3 ADD MSTORE PUSH32 0x49504653206861736820726571756972656420666F72206D65646961206D6573 PUSH1 0x40 DUP3 ADD MSTORE PUSH5 0x7361676573 PUSH1 0xD8 SHL PUSH1 0x60 DUP3 ADD MSTORE PUSH1 0x80 ADD SWAP1 JUMP JUMPDEST PUSH4 0x4E487B71 PUSH1 0xE0 SHL PUSH1 0x0 MSTORE PUSH1 0x11 PUSH1 0x4 MSTORE PUSH1 0x24 PUSH1 0x0 REVERT JUMPDEST DUP1 DUP3 ADD DUP1 DUP3 GT ISZERO PUSH2 0x23FA JUMPI PUSH2 0x23FA PUSH2 0x3FD7 JUMP JUMPDEST PUSH1 0x0 PUSH1 0x20 DUP3 DUP5 SUB SLT ISZERO PUSH2 0x4012 JUMPI PUSH1 0x0 DUP1 REVERT JUMPDEST DUP2 MLOAD DUP1 ISZERO ISZERO DUP2 EQ PUSH2 0x36B6 JUMPI PUSH1 0x0 DUP1 REVERT JUMPDEST PUSH1 0x1F DUP3 GT ISZERO PUSH2 0x406C JUMPI DUP1 PUSH1 0x0 MSTORE PUSH1 0x20 PUSH1 0x0 KECCAK256 PUSH1 0x1F DUP5 ADD PUSH1 0x5 SHR DUP2 ADD PUSH1 0x20 DUP6 LT ISZERO PUSH2 0x4049 JUMPI POP DUP1 JUMPDEST PUSH1 0x1F DUP5 ADD PUSH1 0x5 SHR DUP3 ADD SWAP2 POP JUMPDEST DUP2 DUP2 LT ISZERO PUSH2 0x4069 JUMPI PUSH1 0x0 DUP2 SSTORE PUSH1 0x1 ADD PUSH2 0x4055 JUMP JUMPDEST POP POP JUMPDEST POP POP POP JUMP JUMPDEST DUP2 MLOAD PUSH1 0x1 PUSH1 0x1 PUSH1 0x40 SHL SUB DUP2 GT ISZERO PUSH2 0x408A JUMPI PUSH2 0x408A PUSH2 0x36BD JUMP JUMPDEST PUSH2 0x409E DUP2 PUSH2 0x4098 DUP5 SLOAD PUSH2 0x3E27 JUMP JUMPDEST DUP5 PUSH2 0x4022 JUMP JUMPDEST PUSH1 0x20 PUSH1 0x1F DUP3 GT PUSH1 0x1 DUP2 EQ PUSH2 0x40D2 JUMPI PUSH1 0x0 DUP4 ISZERO PUSH2 0x40BA JUMPI POP DUP5 DUP3 ADD MLOAD JUMPDEST PUSH1 0x0 NOT PUSH1 0x3 DUP6 SWAP1 SHL SHR NOT AND PUSH1 0x1 DUP5 SWAP1 SHL OR DUP5 SSTORE PUSH2 0x4069 JUMP JUMPDEST PUSH1 0x0 DUP5 DUP2 MSTORE PUSH1 0x20 DUP2 KECCAK256 PUSH1 0x1F NOT DUP6 AND SWAP2 JUMPDEST DUP3 DUP2 LT ISZERO PUSH2 0x4102 JUMPI DUP8 DUP6 ADD MLOAD DUP3 SSTORE PUSH1 0x20 SWAP5 DUP6 ADD SWAP5 PUSH1 0x1 SWAP1 SWAP3 ADD SWAP2 ADD PUSH2 0x40E2 JUMP JUMPDEST POP DUP5 DUP3 LT ISZERO PUSH2 0x4120 JUMPI DUP7 DUP5 ADD MLOAD PUSH1 0x0 NOT PUSH1 0x3 DUP8 SWAP1 SHL PUSH1 0xF8 AND SHR NOT AND DUP2 SSTORE JUMPDEST POP POP POP POP PUSH1 0x1 SWAP1 DUP2 SHL ADD SWAP1 SSTORE POP JUMP JUMPDEST DUP2 DUP2 SUB DUP2 DUP2 GT ISZERO PUSH2 0x23FA JUMPI PUSH2 0x23FA PUSH2 0x3FD7 JUMP JUMPDEST PUSH1 0x0 PUSH1 0x1 DUP3 ADD PUSH2 0x4154 JUMPI PUSH2 0x4154 PUSH2 0x3FD7 JUMP JUMPDEST POP PUSH1 0x1 ADD SWAP1 JUMP JUMPDEST PUSH1 0x40 DUP2 MSTORE PUSH1 0x0 PUSH2 0x416E PUSH1 0x40 DUP4 ADD DUP6 PUSH2 0x3522 JUMP JUMPDEST SWAP1 POP PUSH2 0x36B6 PUSH1 0x20 DUP4 ADD DUP5 PUSH2 0x3564 JUMP INVALID LOG2 PUSH5 0x6970667358 0x22 SLT KECCAK256 DUP2 0xDE 0xCA 0xD ADDMOD 0xB1 SGT 0xCC PUSH8 0x8EF60C7B32F6E69C 0xDB 0xEA CREATE 0xC1 LOG3 0xEB PUSH30 0x83525FCC1489ED8364736F6C634300081C00330000000000000000000000 "
        },
        "methodIdentifiers": {
          "MAX_FILE_SIZE()": "5a9baf37",
          "MAX_MESSAGES_PER_USER()": "541d5f03",
          "MAX_STORAGE_PER_USER()": "964db8f5",
          "clearStorage()": "69bd38a0",
          "conversations(bytes32)": "fcaadf56",
          "createConversation(address[],bytes32)": "28b5238d",
          "deleteMessage(bytes32)": "fe1e3eca",
          "emergencyWithdraw()": "db2e21bc",
          "getContractStats()": "dfe6b5d6",
          "getConversation(bytes32)": "6c90d39f",
          "getFileSize(bytes32)": "d3bb8b96",
          "getIPFSHash(bytes32)": "2ed5ef14",
          "getMediaType(bytes32)": "c462a512",
          "getMessage(bytes32)": "0139a221",
          "getRemainingStorage(address)": "88f12d27",
          "getTextContent(bytes32)": "33234630",
          "getUserMessageCount(address)": "2b659bfb",
          "getUserMessages(address)": "98d63d3d",
          "getUserPublicKey(address)": "11231fe0",
          "getUserStorageUsed(address)": "7f635fa6",
          "isIPFSHashUsed(string)": "e968e83d",
          "isMessageDeleted(bytes32)": "b206c446",
          "isUserRegistered(address)": "163f7522",
          "messageDeleted(bytes32)": "d92fa314",
          "messages(bytes32)": "2bbd59ca",
          "owner()": "8da5cb5b",
          "pause()": "8456cb59",
          "paused()": "5c975abb",
          "paymentSettled(bytes32)": "0f2cb69d",
          "registerUser(bytes32,string)": "4a54315c",
          "renounceOwnership()": "715018a6",
          "sendBatchMessages(address[],bytes32[],address[],uint256[],string[],uint8[],uint256[],string[])": "6eca1665",
          "sendMessage(address,bytes32,address,uint256,string,uint8,uint256,string)": "c3b68fba",
          "transferOwnership(address)": "f2fde38b",
          "unpause()": "3f4ba83a",
          "updateLastSeen()": "1ddd58f1",
          "updatePublicKey(bytes32)": "99b06454",
          "usedIPFSHashes(string)": "462f4a3e",
          "userBalances(address)": "26224c64",
          "userConversations(address,uint256)": "ccfd55e7",
          "userMessageCount(address)": "5a506ebc",
          "userMessages(address,uint256)": "9428cda3",
          "userProfiles(address)": "332d56d7",
          "userStorageUsed(address)": "d91dd84f",
          "withdrawBalance()": "5fd8c710"
        }
      }
    }
  }
}